{
  "abi": [
    {
      "inputs": [],
      "name": "Access_OnlyAdmin",
      "type": "error"
    },
    {
      "inputs": [],
      "name": "MetadataFrozen",
      "type": "error"
    },
    {
      "anonymous": false,
      "inputs": [
        {
          "indexed": true,
          "internalType": "address",
          "name": "target",
          "type": "address"
        },
        {
          "indexed": false,
          "internalType": "string",
          "name": "metadataBase",
          "type": "string"
        },
        {
          "indexed": false,
          "internalType": "string",
          "name": "metadataExtension",
          "type": "string"
        },
        {
          "indexed": false,
          "internalType": "string",
          "name": "contractURI",
          "type": "string"
        },
        {
          "indexed": false,
          "internalType": "uint256",
          "name": "freezeAt",
          "type": "uint256"
        }
      ],
      "name": "MetadataUpdated",
      "type": "event"
    },
    {
      "anonymous": false,
      "inputs": [
        {
          "indexed": true,
          "internalType": "address",
          "name": "target",
          "type": "address"
        },
        {
          "indexed": false,
          "internalType": "bytes32",
          "name": "provenanceHash",
          "type": "bytes32"
        }
      ],
      "name": "ProvenanceHashUpdated",
      "type": "event"
    },
    {
      "inputs": [],
      "name": "contractURI",
      "outputs": [
        {
          "internalType": "string",
          "name": "",
          "type": "string"
        }
      ],
      "stateMutability": "view",
      "type": "function"
    },
    {
      "inputs": [
        {
          "internalType": "bytes",
          "name": "data",
          "type": "bytes"
        }
      ],
      "name": "initializeWithData",
      "outputs": [],
      "stateMutability": "nonpayable",
      "type": "function"
    },
    {
      "inputs": [
        {
          "internalType": "address",
          "name": "",
          "type": "address"
        }
      ],
      "name": "metadataBaseByContract",
      "outputs": [
        {
          "internalType": "string",
          "name": "base",
          "type": "string"
        },
        {
          "internalType": "string",
          "name": "extension",
          "type": "string"
        },
        {
          "internalType": "string",
          "name": "contractURI",
          "type": "string"
        },
        {
          "internalType": "uint256",
          "name": "freezeAt",
          "type": "uint256"
        }
      ],
      "stateMutability": "view",
      "type": "function"
    },
    {
      "inputs": [
        {
          "internalType": "address",
          "name": "",
          "type": "address"
        }
      ],
      "name": "provenanceHashes",
      "outputs": [
        {
          "internalType": "bytes32",
          "name": "",
          "type": "bytes32"
        }
      ],
      "stateMutability": "view",
      "type": "function"
    },
    {
      "inputs": [
        {
          "internalType": "uint256",
          "name": "tokenId",
          "type": "uint256"
        }
      ],
      "name": "tokenURI",
      "outputs": [
        {
          "internalType": "string",
          "name": "",
          "type": "string"
        }
      ],
      "stateMutability": "view",
      "type": "function"
    },
    {
      "inputs": [
        {
          "internalType": "address",
          "name": "target",
          "type": "address"
        },
        {
          "internalType": "string",
          "name": "baseUri",
          "type": "string"
        },
        {
          "internalType": "string",
          "name": "newContractUri",
          "type": "string"
        }
      ],
      "name": "updateMetadataBase",
      "outputs": [],
      "stateMutability": "nonpayable",
      "type": "function"
    },
    {
      "inputs": [
        {
          "internalType": "address",
          "name": "target",
          "type": "address"
        },
        {
          "internalType": "string",
          "name": "metadataBase",
          "type": "string"
        },
        {
          "internalType": "string",
          "name": "metadataExtension",
          "type": "string"
        },
        {
          "internalType": "string",
          "name": "newContractURI",
          "type": "string"
        },
        {
          "internalType": "uint256",
          "name": "freezeAt",
          "type": "uint256"
        }
      ],
      "name": "updateMetadataBaseWithDetails",
      "outputs": [],
      "stateMutability": "nonpayable",
      "type": "function"
    },
    {
      "inputs": [
        {
          "internalType": "address",
          "name": "target",
          "type": "address"
        },
        {
          "internalType": "bytes32",
          "name": "provenanceHash",
          "type": "bytes32"
        }
      ],
      "name": "updateProvenanceHash",
      "outputs": [],
      "stateMutability": "nonpayable",
      "type": "function"
    }
  ],
  "bytecode": {
    "object": "0x60808060405234610016576115b4908161001c8239f35b600080fdfe6080604052600436101561001257600080fd5b60003560e01c806342495a9514610cad578063856a7ffa1461082657806391074f98146107c0578063af806d56146102cb578063c87b56dd146101ee578063cc1306db14610100578063de5af49b146100c65763e8a3d4851461007457600080fd5b346100c15760003660031901126100c15733600052600060205261009e60026040600020016112b0565b8051156100c1576100bd90604051918291602083526020830190611379565b0390f35b600080fd5b346100c15760203660031901126100c1576001600160a01b036100e76111b4565b1660005260016020526020604060002054604051908152f35b346100c15760403660031901126100c1576101196111b4565b6001600160a01b03166024353382141580610181575b61016f5760207ff2e078c4022bfd6c56addd06540a4a5dd4252b6b2c424b6840c184063f48fc2791836000526001825280604060002055604051908152a2005b6040516302bd6bd160e01b8152600490fd5b50604051630935e01b60e21b8152336004820152602081602481865afa9081156101e2576000916101b4575b501561012f565b6101d5915060203d81116101db575b6101cd81836111e5565b81019061143f565b836101ad565b503d6101c3565b6040513d6000823e3d90fd5b346100c1576020806003193601126100c157336000526000815260406000209060405161021a816111ca565b610223836112b0565b81526003610233600185016112b0565b93838301948552610246600282016112b0565b604084015201546060820152518051156100c157816102b79161026a600435611457565b945160405195826102848894518092878088019101611356565b830161029882518093878085019101611356565b016102ab82518093868085019101611356565b010380855201836111e5565b6100bd604051928284938452830190611379565b346100c15760603660031901126100c1576102e46111b4565b6024356001600160401b0381116100c157610303903690600401611258565b906044356001600160401b0381116100c157610323903690600401611258565b336001600160a01b038316141580610766575b61016f57604051602081018181106001600160401b038211176105c45760405260008152604051610366816111ca565b848152816020820152826040820152600060608201526001600160a01b038416600052600060205260406000209080518051906001600160401b0382116105c45781906103b38554611276565b601f8111610716575b50602090601f83116001146106b0576000926106a5575b50508160011b916000199060031b1c19161782555b60208101518051906001600160401b0382116105c457819061040d6001860154611276565b601f8111610652575b50602090601f83116001146105e5576000926105da575b50508160011b916000199060031b1c19161760018301555b60408101518051906001600160401b0382116105c4576104686002850154611276565b601f8111610579575b50602090601f83116001146104e95760606001600160a01b0397948460008051602061155f8339815191529a98956104d998956003956000926104de575b50508160011b9160001990861b1c19161760028501555b015191015560405194859416968461139e565b0390a2005b015190508d806104af565b90601f198316916002860160005260206000209260005b8181106105615750946001856104d9989560039560609560008051602061155f8339815191529e9c996001600160a01b039e9b10610549575b505050811b0160028501556104c6565b015160001983881b60f8161c191690558d8080610539565b92936020600181928786015181550195019301610500565b600285016000526020600020601f840160051c810191602085106105ba575b601f0160051c01905b8181106105ae5750610471565b600081556001016105a1565b9091508190610598565b634e487b7160e01b600052604160045260246000fd5b01519050888061042d565b600186016000908152602081209350601f198516905b81811061063a5750908460019594939210610621575b505050811b016001830155610445565b015160001960f88460031b161c19169055888080610611565b929360206001819287860151815501950193016105fb565b909150600185016000526020600020601f840160051c81016020851061069e575b90849392915b601f830160051c8201811061068f575050610416565b60008155859450600101610679565b5080610673565b0151905088806103d3565b6000868152602081209350601f198516905b8181106106fe57509084600195949392106106e5575b505050811b0182556103e8565b015160001960f88460031b161c191690558880806106d8565b929360206001819287860151815501950193016106c2565b909150846000526020600020601f840160051c81016020851061075f575b90849392915b601f830160051c820181106107505750506103bc565b6000815585945060010161073a565b5080610734565b50604051630935e01b60e21b81523360048201526020816024816001600160a01b0387165afa9081156101e2576000916107a2575b5015610336565b6107ba915060203d81116101db576101cd81836111e5565b8461079b565b346100c15760203660031901126100c1576001600160a01b036107e16111b4565b16600052600060205260406000206107f8816112b0565b6100bd610807600184016112b0565b926003610816600283016112b0565b91015490604051948594856113df565b346100c15760203660031901126100c1576004356001600160401b0381116100c157366023820112156100c157610867903690602481600401359101611221565b8051810190604081602084019303126100c15760208101516001600160401b0381116100c15782602061089c928401016113fd565b916040820151916001600160401b0383116100c1576108be92016020016113fd565b9060405191602083018381106001600160401b038211176105c45760405260008352604051926108ed846111ca565b82845280602085015281604085015260006060850152336000526000602052604060002084518051906001600160401b0382116105c45781906109308454611276565b601f8111610c5d575b50602090601f8311600114610bf757600092610bec575b50508160011b916000199060031b1c19161781555b60208501518051906001600160401b0382116105c457819061098a6001850154611276565b601f8111610b99575b50602090601f8311600114610b2c57600092610b21575b50508160011b916000199060031b1c19161760018201555b60408501519485516001600160401b0381116105c4576109e56002840154611276565b601f8111610ad6575b506020601f8211600114610a5557918160609260039460008051602061155f833981519152999a600092610a4a575b50508160011b9160001990861b1c19161760028501555b01519101556104d960405192839233968461139e565b015190508a80610a1d565b601f198216976002850160005260206000209860005b818110610abe57509260008051602061155f8339815191529899600395936001938360609710610aa6575b505050811b016002850155610a34565b015160001983881b60f8161c191690558a8080610a96565b838301518b556001909a019960209384019301610a6b565b600284016000526020600020601f830160051c81019160208410610b17575b601f0160051c01905b818110610b0b57506109ee565b60008155600101610afe565b9091508190610af5565b0151905087806109aa565b600185016000908152602081209350601f198516905b818110610b815750908460019594939210610b68575b505050811b0160018201556109c2565b015160001960f88460031b161c19169055878080610b58565b92936020600181928786015181550195019301610b42565b909150600184016000526020600020601f840160051c810160208510610be5575b90849392915b601f830160051c82018110610bd6575050610993565b60008155859450600101610bc0565b5080610bba565b015190508780610950565b6000858152602081209350601f198516905b818110610c455750908460019594939210610c2c575b505050811b018155610965565b015160001960f88460031b161c19169055878080610c1f565b92936020600181928786015181550195019301610c09565b909150836000526020600020601f840160051c810160208510610ca6575b90849392915b601f830160051c82018110610c97575050610939565b60008155859450600101610c81565b5080610c7b565b346100c15760a03660031901126100c157610cc66111b4565b6024356001600160401b0381116100c157610ce5903690600401611258565b906044356001600160401b0381116100c157610d05903690600401611258565b916064356001600160401b0381116100c157610d25903690600401611258565b336001600160a01b03841614158061115a575b61016f5760843515158061114f575b61113d57604051610d57816111ca565b82815284602082015281604082015260843560608201526001600160a01b038416600052600060205260406000209080518051906001600160401b0382116105c4578190610da58554611276565b601f81116110ed575b50602090601f83116001146110875760009261107c575b50508160011b916000199060031b1c19161782555b60208101518051906001600160401b0382116105c4578190610dff6001860154611276565b601f8111611029575b50602090601f8311600114610fbc57600092610fb1575b50508160011b916000199060031b1c19161760018301555b60408101518051906001600160401b0382116105c457610e5a6002850154611276565b601f8111610f6a575b50602090601f8311600114610eda5760606001600160a01b0397948460008051602061155f8339815191529a98956104d99895600395600092610ecf575b50508160011b9160001990861b1c19161760028501555b0151910155604051948594169660843592856113df565b015190508d80610ea1565b90601f198316916002860160005260206000209260005b818110610f525750946001856104d9989560039560609560008051602061155f8339815191529e9c996001600160a01b039e9b10610f3a575b505050811b016002850155610eb8565b015160001983881b60f8161c191690558d8080610f2a565b92936020600181928786015181550195019301610ef1565b600285016000526020600020601f840160051c810160208510610faa575b601f830160051c82018110610f9e575050610e63565b60008155600101610f88565b5080610f88565b015190508880610e1f565b600186016000908152602081209350601f198516905b8181106110115750908460019594939210610ff8575b505050811b016001830155610e37565b015160001960f88460031b161c19169055888080610fe8565b92936020600181928786015181550195019301610fd2565b909150600185016000526020600020601f840160051c810160208510611075575b90849392915b601f830160051c82018110611066575050610e08565b60008155859450600101611050565b508061104a565b015190508880610dc5565b6000868152602081209350601f198516905b8181106110d557509084600195949392106110bc575b505050811b018255610dda565b015160001960f88460031b161c191690558880806110af565b92936020600181928786015181550195019301611099565b909150846000526020600020601f840160051c810160208510611136575b90849392915b601f830160051c82018110611127575050610dae565b60008155859450600101611111565b508061110b565b60405163777821ff60e11b8152600490fd5b504260843511610d47565b50604051630935e01b60e21b81523360048201526020816024816001600160a01b0388165afa9081156101e257600091611196575b5015610d38565b6111ae915060203d81116101db576101cd81836111e5565b8561118f565b600435906001600160a01b03821682036100c157565b608081019081106001600160401b038211176105c457604052565b90601f801991011681019081106001600160401b038211176105c457604052565b6001600160401b0381116105c457601f01601f191660200190565b92919261122d82611206565b9161123b60405193846111e5565b8294818452818301116100c1578281602093846000960137010152565b9080601f830112156100c15781602061127393359101611221565b90565b90600182811c921680156112a6575b602083101461129057565b634e487b7160e01b600052602260045260246000fd5b91607f1691611285565b90604051918260008254926112c484611276565b90818452600194858116908160001461133357506001146112f0575b50506112ee925003836111e5565b565b9093915060005260209081600020936000915b81831061131b5750506112ee935082010138806112e0565b85548884018501529485019487945091830191611303565b9150506112ee94506020925060ff191682840152151560051b82010138806112e0565b60005b8381106113695750506000910152565b8181015183820152602001611359565b9060209161139281518092818552858086019101611356565b601f01601f1916010190565b93926113da906113cc6000946113be60609560808a5260808a0190611379565b9088820360208a0152611379565b908682036040880152611379565b930152565b9493926113cc6060936113be6113da9460808a5260808a0190611379565b81601f820112156100c157805161141381611206565b9261142160405194856111e5565b818452602082840101116100c1576112739160208085019101611356565b908160209103126100c1575180151581036100c15790565b80156115305780816000925b611516575061147182611206565b9161147f60405193846111e5565b808352601f1961148e82611206565b01908260209236848701375b6114a45750505090565b6000198101908111611500578092600a91603083830681018091116115005786518210156114ea5760f81b6001600160f81b03191660001a90860184015304918261149a565b634e487b7160e01b600052603260045260246000fd5b634e487b7160e01b600052601160045260246000fd5b90916000198114611500576001019190600a900480611463565b50604051604081018181106001600160401b038211176105c45760405260018152600360fc1b60208201529056fe5eff125d5659803f33dbda215d6e8bfe0a404fd213a9ecb5e61973ee16cb17e7a26469706673582212200c02f473bd90bba17cb031314c31165c6665a6ae7a7042594a68ae9b7a977f9164736f6c63430008110033",
    "linkReferences": {}
  },
  "methodIdentifiers": {
    "contractURI()": "e8a3d485",
    "initializeWithData(bytes)": "856a7ffa",
    "metadataBaseByContract(address)": "91074f98",
    "provenanceHashes(address)": "de5af49b",
    "tokenURI(uint256)": "c87b56dd",
    "updateMetadataBase(address,string,string)": "af806d56",
    "updateMetadataBaseWithDetails(address,string,string,string,uint256)": "42495a95",
    "updateProvenanceHash(address,bytes32)": "cc1306db"
  },
  "id": 83
}