{
  "abi": [
    {
      "inputs": [],
      "name": "Access_OnlyAdmin",
      "type": "error"
    },
    {
      "anonymous": false,
      "inputs": [
        {
          "indexed": true,
          "internalType": "address",
          "name": "target",
          "type": "address"
        },
        {
          "indexed": false,
          "internalType": "address",
          "name": "sender",
          "type": "address"
        },
        {
          "indexed": false,
          "internalType": "string",
          "name": "newDescription",
          "type": "string"
        }
      ],
      "name": "DescriptionUpdated",
      "type": "event"
    },
    {
      "anonymous": false,
      "inputs": [
        {
          "indexed": true,
          "internalType": "address",
          "name": "target",
          "type": "address"
        },
        {
          "indexed": false,
          "internalType": "string",
          "name": "description",
          "type": "string"
        },
        {
          "indexed": false,
          "internalType": "string",
          "name": "imageURI",
          "type": "string"
        },
        {
          "indexed": false,
          "internalType": "string",
          "name": "animationURI",
          "type": "string"
        }
      ],
      "name": "EditionInitialized",
      "type": "event"
    },
    {
      "anonymous": false,
      "inputs": [
        {
          "indexed": true,
          "internalType": "address",
          "name": "target",
          "type": "address"
        },
        {
          "indexed": false,
          "internalType": "address",
          "name": "sender",
          "type": "address"
        },
        {
          "indexed": false,
          "internalType": "string",
          "name": "imageURI",
          "type": "string"
        },
        {
          "indexed": false,
          "internalType": "string",
          "name": "animationURI",
          "type": "string"
        }
      ],
      "name": "MediaURIsUpdated",
      "type": "event"
    },
    {
      "inputs": [],
      "name": "contractURI",
      "outputs": [
        {
          "internalType": "string",
          "name": "",
          "type": "string"
        }
      ],
      "stateMutability": "view",
      "type": "function"
    },
    {
      "inputs": [
        {
          "internalType": "bytes",
          "name": "data",
          "type": "bytes"
        }
      ],
      "name": "initializeWithData",
      "outputs": [],
      "stateMutability": "nonpayable",
      "type": "function"
    },
    {
      "inputs": [
        {
          "internalType": "address",
          "name": "",
          "type": "address"
        }
      ],
      "name": "tokenInfos",
      "outputs": [
        {
          "internalType": "string",
          "name": "description",
          "type": "string"
        },
        {
          "internalType": "string",
          "name": "imageURI",
          "type": "string"
        },
        {
          "internalType": "string",
          "name": "animationURI",
          "type": "string"
        }
      ],
      "stateMutability": "view",
      "type": "function"
    },
    {
      "inputs": [
        {
          "internalType": "uint256",
          "name": "tokenId",
          "type": "uint256"
        }
      ],
      "name": "tokenURI",
      "outputs": [
        {
          "internalType": "string",
          "name": "",
          "type": "string"
        }
      ],
      "stateMutability": "view",
      "type": "function"
    },
    {
      "inputs": [
        {
          "internalType": "address",
          "name": "target",
          "type": "address"
        },
        {
          "internalType": "string",
          "name": "newDescription",
          "type": "string"
        }
      ],
      "name": "updateDescription",
      "outputs": [],
      "stateMutability": "nonpayable",
      "type": "function"
    },
    {
      "inputs": [
        {
          "internalType": "address",
          "name": "target",
          "type": "address"
        },
        {
          "internalType": "string",
          "name": "imageURI",
          "type": "string"
        },
        {
          "internalType": "string",
          "name": "animationURI",
          "type": "string"
        }
      ],
      "name": "updateMediaURIs",
      "outputs": [],
      "stateMutability": "nonpayable",
      "type": "function"
    }
  ],
  "bytecode": {
    "object": "0x6080806040523461001657611974908161001c8239f35b600080fdfe608060405260048036101561001357600080fd5b600090813560e01c9182632f17b8f0146100915750508063856a7ffa146100885780638bbb2cf21461007f578063ba46ae7214610076578063c87b56dd1461006d5763e8a3d48514610065575b600080fd5b6100606107df565b506100606106a6565b5061006061062d565b506100606103f7565b506100606102dd565b3461019b57606036600319011261019b5781356100ad8161019e565b67ffffffffffffffff602435818111610197576100cd90369086016102bf565b90604435908111610197576100e590369086016102bf565b916001600160a01b03811633811415908161011f575b5061010e5761010b939450610aa7565b80f35b6040516302bd6bd160e01b81528590fd5b604051630935e01b60e21b815233888201908152909250602091839182908190850103915afa90811561018a575b859161015c575b5015866100fb565b61017d915060203d8111610183575b610175818361020b565b81019061092f565b86610154565b503d61016b565b610192610943565b61014d565b8380fd5b80fd5b6001600160a01b0381160361006057565b50634e487b7160e01b600052604160045260246000fd5b6060810190811067ffffffffffffffff8211176101e257604052565b6101ea6101af565b604052565b6020810190811067ffffffffffffffff8211176101e257604052565b90601f8019910116810190811067ffffffffffffffff8211176101e257604052565b6040519061023a826101c6565b565b60405190610160820182811067ffffffffffffffff8211176101e257604052565b60209067ffffffffffffffff811161027b575b601f01601f19160190565b6102836101af565b610270565b9291926102948261025d565b916102a2604051938461020b565b829481845281830111610060578281602093846000960137010152565b9080601f83011215610060578160206102da93359101610288565b90565b5034610060576020806003193601126100605767ffffffffffffffff600435818111610060573660238201121561006057610322903690602481600401359101610288565b918251830191606084838501940312610060578184015181811161006057838361034e92870101610da8565b93604081015182811161006057848461036992840101610da8565b916060820151908111610060577ff889a5cdc62274389379cbfade0f225b1d30b7395177fd6aeaab61662b1c6edf94846103a8926103e1940101610da8565b92826103b261022d565b918783528201528360408201526103dc336001600160a01b03166000526000602052604060002090565b610dea565b6103f26040519283923396846105f6565b0390a2005b5034610060576040366003190112610060576004356104158161019e565b60243567ffffffffffffffff8111610060576104359036906004016102bf565b6001600160a01b03821633811415908161046c575b5061045a5761045891610c63565b005b6040516302bd6bd160e01b8152600490fd5b604051630935e01b60e21b81523360048201529150602090829060249082905afa9081156104c3575b6000916104a5575b50153861044a565b6104bd915060203d811161018357610175818361020b565b3861049d565b6104cb610943565b610495565b90600182811c92168015610500575b60208310146104ea57565b634e487b7160e01b600052602260045260246000fd5b91607f16916104df565b906040519182600082549261051e846104d0565b90818452600194858116908160001461058b5750600114610548575b505061023a9250038361020b565b9093915060005260209081600020936000915b81831061057357505061023a9350820101388061053a565b8554888401850152948501948794509183019161055b565b91505061023a94506020925060ff191682840152151560051b820101388061053a565b60005b8381106105c15750506000910152565b81810151838201526020016105b1565b906020916105ea815180928185528580860191016105ae565b601f01601f1916010190565b9161061f906106116102da95936060865260608601906105d1565b9084820360208601526105d1565b9160408184039101526105d1565b5034610060576020366003190112610060576001600160a01b036004356106538161019e565b166000526000602052604060002061066a8161050a565b610691610685600261067e6001860161050a565b940161050a565b604051938493846105f6565b0390f35b9060206102da9281815201906105d1565b5034610060576020366003190112610060576106916107626106e36106de336001600160a01b03166000526000602052604060002090565b610fb7565b604051631a3a525360e11b815261014090610160908181600481335afa9182156107d2575b6000926107a5575b505001519067ffffffffffffffff821461079c575b6040516306fdde0360e01b8152600081600481335afa90811561078f575b60009161076e575b5081516020830151906040600435940151926110c0565b60405191829182610695565b610789913d8091833e610781818361020b565b810190610f91565b3861074b565b610797610943565b610743565b60009150610725565b6107c49250803d106107cb575b6107bc818361020b565b810190611013565b3880610710565b503d6107b2565b6107da610943565b610708565b50346100605760008060031936011261019b5761076261069191610816336001600160a01b03166000526000602052604060002090565b6040516379502c5560e01b815290608082600481335afa918215610915575b83926108e5575b506040516306fdde0360e01b81528381600481335afa9384156108d8575b80946108bb575b5050610890606061088161087a604086015161ffff1690565b61ffff1690565b9301516001600160a01b031690565b9061089a8161050a565b6001600160a01b036108b3600261067e6001860161050a565b931694611250565b6108d09294503d8091833e610781818361020b565b913880610861565b6108e0610943565b61085a565b61090791925060803d811161090e575b6108ff818361020b565b810190610f10565b903861083c565b503d6108f5565b61091d610943565b610835565b5190811515820361006057565b90816020910312610060576102da90610922565b506040513d6000823e3d90fd5b90601f811161095e57505050565b600091825260208220906020601f850160051c8301941061099a575b601f0160051c01915b82811061098f57505050565b818155600101610983565b909250829061097a565b919091825167ffffffffffffffff8111610a74575b6109cd816109c784546104d0565b84610950565b602080601f8311600114610a095750819293946000926109fe575b50508160011b916000199060031b1c1916179055565b0151905038806109e8565b90601f19831695610a1f85600052602060002090565b926000905b888210610a5c57505083600195969710610a43575b505050811b019055565b015160001960f88460031b161c19169055388080610a39565b80600185968294968601518155019501930190610a24565b610a7c6101af565b6109b9565b9161061f906001600160a01b036102da95931684526060602085015260608401906105d1565b92916001600160a01b0384169160009483865260208681526001908160408920019184519167ffffffffffffffff8311610c36575b610af083610aea86546104d0565b86610950565b80601f8411600114610b8657509386938380600295610b6095610b66997fc4c1b9223fcebe5f35b9030d3df655018c40e88d70b8a3c63ed851c5d972210f9d9e9f93610b7b575b501b916000199060031b1c19161790556001600160a01b03166000526000602052604060002090565b016109a4565b610b766040519283923384610a81565b0390a2565b8b0151925038610b37565b601f9a9294959a19841690610ba087600052602060002090565b93905b828210610c1f57505094879484610b60947fc4c1b9223fcebe5f35b9030d3df655018c40e88d70b8a3c63ed851c5d972210f9b9c9d94600297610b669a10610c06575b5050811b0190556001600160a01b03166000526000602052604060002090565b8a015160001960f88460031b161c191690553880610be6565b808785968294968c01518155019501930190610ba3565b610c3e6101af565b610adc565b6040906001600160a01b036102da949316815281602082015201906105d1565b6001600160a01b0316906000828152602090808252604081209183519167ffffffffffffffff8311610d9b575b610c9e83610aea86546104d0565b81601f8411600114610d0757509180610b7694927f36195b44a3184513e02477929207751ea9d67026b917ed74d374a7f9e8c5e4d1969491610cfc575b508160011b916000199060031b1c19161790555b6040519182913383610c43565b905083015138610cdb565b601f92919219841690610d1f86600052602060002090565b93905b828210610d8357505092610b769492600192827f36195b44a3184513e02477929207751ea9d67026b917ed74d374a7f9e8c5e4d1989610610d6a575b5050811b019055610cef565b85015160001960f88460031b161c191690553880610d5e565b80600185968294968b01518155019501930190610d22565b610da36101af565b610c90565b81601f82011215610060578051610dbe8161025d565b92610dcc604051948561020b565b81845260208284010111610060576102da91602080850191016105ae565b919091825192835167ffffffffffffffff8111610eee575b610e1681610e1085546104d0565b85610950565b6020948590601f8311600114610e745761023a95968360409460029694610e6094600092610e69575b50508160011b916000199060031b1c19161786555b820151600186016109a4565b015191016109a4565b015190503880610e3f565b90601f19831691610e8a86600052602060002090565b9260005b818110610ed757508460029694610e609461023a9a9b9460409860019510610ebe575b505050811b018655610e54565b015160001960f88460031b161c19169055388080610eb1565b929389600181928786015181550195019301610e8e565b610ef66101af565b610e02565b519067ffffffffffffffff8216820361006057565b9081608091031261006057604051906080820182811067ffffffffffffffff821117610f84575b6040528051610f458161019e565b8252610f5360208201610efb565b602083015260408101519061ffff821682036100605760609160408401520151610f7c8161019e565b606082015290565b610f8c6101af565b610f37565b9060208282031261006057815167ffffffffffffffff8111610060576102da9201610da8565b906040516060810181811067ffffffffffffffff821117611006575b604052604061100160028395610fe88161050a565b8552610ff66001820161050a565b60208601520161050a565b910152565b61100e6101af565b610fd3565b90816101609103126100605761102761023c565b9061103181610922565b825261103f60208201610922565b60208301526040810151604083015261105a60608201610efb565b606083015261106b60808201610efb565b608083015261107c60a08201610efb565b60a083015261108d60c08201610efb565b60c083015260e081015160e083015261010080820151908301526101208082015190830152610140809101519082015290565b926110cb9192611846565b606094806111e5575b506110de846114ac565b936110e8906114ac565b604051693d913730b6b2911d101160b11b6020820152958695919391611111602a880187611239565b600160fd1b815260010161112491611239565b61112d91611239565b631116101160e11b81526004016e3232b9b1b934b83a34b7b7111d101160891b8152600f0161115b91611239565b631116101160e11b815260040161117191611239565b7f70726f70657274696573223a207b226e756d626572223a20000000000000000081526018016111a091611239565b6a1610113730b6b2911d101160a91b8152600b016111bd91611239565b62227d7d60e81b81526003015b03601f19810182526111dc908261020b565b6102da906116b0565b6112119195506111f761121f916114ac565b604051928391602f60f81b60208401526021830190611239565b03601f19810183528261020b565b93386110d4565b60405190611233826101ef565b60008252565b9061124c602092828151948592016105ae565b0190565b9394909461125c611226565b9280516113a9575b5061126d611226565b938051611360575b5061127f906114ac565b906001600160a01b031661129290611601565b604051693d913730b6b2911d101160b11b6020820152958695919291602a87016112bb91611239565b72111610113232b9b1b934b83a34b7b7111d101160691b81526013016112e091611239565b7f222c202273656c6c65725f6665655f62617369735f706f696e7473223a2000008152601e0161130f91611239565b7f2c20226665655f726563697069656e74223a2022000000000000000000000000815260140161133e91611239565b61134791611239565b61135091611239565b61227d60f01b81526002016111ca565b61127f9194506113a26112119160405192839161139c60208401601590741116101130b734b6b0ba34b7b72fbab936111d101160591b81520190565b90611239565b9390611275565b6040516c1116101134b6b0b3b2911d101160991b60208201529193506113d890829061121190602d830161139c565b9138611264565b50634e487b7160e01b600052601160045260246000fd5b60405190611403826101c6565b602a82526040366020840137565b9061141b8261025d565b611428604051918261020b565b8281528092611439601f199161025d565b0190602036910137565b60001981019190821161145257565b61023a6113df565b603001908160301161145257565b906002820180921161145257565b50634e487b7160e01b600052603260045260246000fd5b90602091805182101561149f57010190565b6114a7611476565b010190565b8015611546576000818181805b61151c57506114c781611411565b935b6114d35750505090565b6114dc90611443565b90600a906115076114f76114f184840661145a565b60ff1690565b60f81b6001600160f81b03191690565b841a611513848761148d565b530490816114c9565b91506001600a916000198114611539575b019104808492916114b9565b6115416113df565b61152d565b506040516040810181811067ffffffffffffffff821117611576575b60405260018152600360fc1b602082015290565b61157e6101af565b611562565b600281901b91906001600160fe1b0381160361145257565b80156115a9575b6000190190565b6115b16113df565b6115a2565b156115bd57565b606460405162461bcd60e51b815260206004820152602060248201527f537472696e67733a20686578206c656e67746820696e73756666696369656e746044820152fd5b6116096113f6565b908151156116a3575b603060208301538151600190811015611696575b90607860218401536029915b80831161164557506102da9150156115b6565b9080600f61168292166010811015611689575b6f181899199a1a9b1b9c1cb0b131b232b360811b901a611678858761148d565b5360041c9261159b565b9190611632565b611691611476565b611658565b61169e611476565b611626565b6116ab611476565b611612565b6116b99061176b565b6102da603d60405180937f646174613a6170706c69636174696f6e2f6a736f6e3b6261736536342c00000060208301526116fc81518092602086860191016105ae565b810103601d81018452018261020b565b60405190611719826101c6565b604082527f6768696a6b6c6d6e6f707172737475767778797a303132333435363738392b2f6040837f4142434445464748494a4b4c4d4e4f505152535455565758595a61626364656660208201520152565b80511561183d5761177a61170c565b61179e61179961179461178d8551611468565b6003900490565b611583565b611411565b9160208301918182518301915b8282106117eb575050506003905106806001146117d8576002146117cd575090565b603d90600019015390565b50603d9081600019820153600119015390565b9091936004906003809401938451600190603f9082828260121c16880101518553828282600c1c16880101518386015382828260061c16880101516002860153168501015190820153019391906117ab565b506102da611226565b805115159082511515918080611937575b6118e1576118b2575061186d57506102da611226565b6040517030b734b6b0ba34b7b72fbab936111d101160791b6020820152906102da908290611211906118a2906031840161139c565b631116101160e11b815260040190565b6040516834b6b0b3b2911d101160b91b602082015292506102da91508290611211906118a2906029840161139c565b506040516834b6b0b3b2911d101160b91b6020820152926102da92508391611211916118a29161139c90611916906029870183565b741116101130b734b6b0ba34b7b72fbab936111d101160591b815260150190565b508261185756fea2646970667358221220b7722c8f494f6f9bb5ebc33eabac00610c0dce8599a885b08fb8b643dd556add64736f6c63430008110033",
    "linkReferences": {}
  },
  "methodIdentifiers": {
    "contractURI()": "e8a3d485",
    "initializeWithData(bytes)": "856a7ffa",
    "tokenInfos(address)": "ba46ae72",
    "tokenURI(uint256)": "c87b56dd",
    "updateDescription(address,string)": "8bbb2cf2",
    "updateMediaURIs(address,string,string)": "2f17b8f0"
  },
  "id": 84
}