{
  "abi": [
    {
      "inputs": [
        {
          "internalType": "address",
          "name": "_implementation",
          "type": "address"
        },
        {
          "internalType": "contract EditionMetadataRenderer",
          "name": "_editionMetadataRenderer",
          "type": "address"
        },
        {
          "internalType": "contract DropMetadataRenderer",
          "name": "_dropMetadataRenderer",
          "type": "address"
        }
      ],
      "stateMutability": "nonpayable",
      "type": "constructor"
    },
    {
      "inputs": [
        {
          "internalType": "string",
          "name": "expected",
          "type": "string"
        },
        {
          "internalType": "string",
          "name": "actual",
          "type": "string"
        }
      ],
      "name": "UpgradeToMismatchedContractName",
      "type": "error"
    },
    {
      "anonymous": false,
      "inputs": [
        {
          "indexed": false,
          "internalType": "address",
          "name": "previousAdmin",
          "type": "address"
        },
        {
          "indexed": false,
          "internalType": "address",
          "name": "newAdmin",
          "type": "address"
        }
      ],
      "name": "AdminChanged",
      "type": "event"
    },
    {
      "anonymous": false,
      "inputs": [
        {
          "indexed": true,
          "internalType": "address",
          "name": "beacon",
          "type": "address"
        }
      ],
      "name": "BeaconUpgraded",
      "type": "event"
    },
    {
      "anonymous": false,
      "inputs": [
        {
          "indexed": true,
          "internalType": "address",
          "name": "creator",
          "type": "address"
        },
        {
          "indexed": true,
          "internalType": "address",
          "name": "editionContractAddress",
          "type": "address"
        },
        {
          "indexed": false,
          "internalType": "uint256",
          "name": "editionSize",
          "type": "uint256"
        }
      ],
      "name": "CreatedDrop",
      "type": "event"
    },
    {
      "anonymous": false,
      "inputs": [
        {
          "indexed": true,
          "internalType": "address",
          "name": "previousOwner",
          "type": "address"
        },
        {
          "indexed": true,
          "internalType": "address",
          "name": "newOwner",
          "type": "address"
        }
      ],
      "name": "OwnershipTransferred",
      "type": "event"
    },
    {
      "anonymous": false,
      "inputs": [
        {
          "indexed": true,
          "internalType": "address",
          "name": "implementation",
          "type": "address"
        }
      ],
      "name": "Upgraded",
      "type": "event"
    },
    {
      "inputs": [],
      "name": "contractName",
      "outputs": [
        {
          "internalType": "string",
          "name": "",
          "type": "string"
        }
      ],
      "stateMutability": "pure",
      "type": "function"
    },
    {
      "inputs": [],
      "name": "contractURI",
      "outputs": [
        {
          "internalType": "string",
          "name": "",
          "type": "string"
        }
      ],
      "stateMutability": "pure",
      "type": "function"
    },
    {
      "inputs": [],
      "name": "contractVersion",
      "outputs": [
        {
          "internalType": "uint32",
          "name": "",
          "type": "uint32"
        }
      ],
      "stateMutability": "view",
      "type": "function"
    },
    {
      "inputs": [
        {
          "internalType": "string",
          "name": "name",
          "type": "string"
        },
        {
          "internalType": "string",
          "name": "symbol",
          "type": "string"
        },
        {
          "internalType": "address",
          "name": "defaultAdmin",
          "type": "address"
        },
        {
          "internalType": "uint64",
          "name": "editionSize",
          "type": "uint64"
        },
        {
          "internalType": "uint16",
          "name": "royaltyBPS",
          "type": "uint16"
        },
        {
          "internalType": "address payable",
          "name": "fundsRecipient",
          "type": "address"
        },
        {
          "internalType": "bytes[]",
          "name": "setupCalls",
          "type": "bytes[]"
        },
        {
          "internalType": "contract IMetadataRenderer",
          "name": "metadataRenderer",
          "type": "address"
        },
        {
          "internalType": "bytes",
          "name": "metadataInitializer",
          "type": "bytes"
        },
        {
          "internalType": "address",
          "name": "createReferral",
          "type": "address"
        }
      ],
      "name": "createAndConfigureDrop",
      "outputs": [
        {
          "internalType": "address payable",
          "name": "newDropAddress",
          "type": "address"
        }
      ],
      "stateMutability": "nonpayable",
      "type": "function"
    },
    {
      "inputs": [
        {
          "internalType": "string",
          "name": "name",
          "type": "string"
        },
        {
          "internalType": "string",
          "name": "symbol",
          "type": "string"
        },
        {
          "internalType": "address",
          "name": "defaultAdmin",
          "type": "address"
        },
        {
          "internalType": "uint64",
          "name": "editionSize",
          "type": "uint64"
        },
        {
          "internalType": "uint16",
          "name": "royaltyBPS",
          "type": "uint16"
        },
        {
          "internalType": "address payable",
          "name": "fundsRecipient",
          "type": "address"
        },
        {
          "components": [
            {
              "internalType": "uint104",
              "name": "publicSalePrice",
              "type": "uint104"
            },
            {
              "internalType": "uint32",
              "name": "maxSalePurchasePerAddress",
              "type": "uint32"
            },
            {
              "internalType": "uint64",
              "name": "publicSaleStart",
              "type": "uint64"
            },
            {
              "internalType": "uint64",
              "name": "publicSaleEnd",
              "type": "uint64"
            },
            {
              "internalType": "uint64",
              "name": "presaleStart",
              "type": "uint64"
            },
            {
              "internalType": "uint64",
              "name": "presaleEnd",
              "type": "uint64"
            },
            {
              "internalType": "bytes32",
              "name": "presaleMerkleRoot",
              "type": "bytes32"
            }
          ],
          "internalType": "struct IERC721Drop.SalesConfiguration",
          "name": "saleConfig",
          "type": "tuple"
        },
        {
          "internalType": "string",
          "name": "metadataURIBase",
          "type": "string"
        },
        {
          "internalType": "string",
          "name": "metadataContractURI",
          "type": "string"
        }
      ],
      "name": "createDrop",
      "outputs": [
        {
          "internalType": "address",
          "name": "",
          "type": "address"
        }
      ],
      "stateMutability": "nonpayable",
      "type": "function"
    },
    {
      "inputs": [
        {
          "internalType": "string",
          "name": "name",
          "type": "string"
        },
        {
          "internalType": "string",
          "name": "symbol",
          "type": "string"
        },
        {
          "internalType": "address",
          "name": "defaultAdmin",
          "type": "address"
        },
        {
          "internalType": "uint64",
          "name": "editionSize",
          "type": "uint64"
        },
        {
          "internalType": "uint16",
          "name": "royaltyBPS",
          "type": "uint16"
        },
        {
          "internalType": "address payable",
          "name": "fundsRecipient",
          "type": "address"
        },
        {
          "components": [
            {
              "internalType": "uint104",
              "name": "publicSalePrice",
              "type": "uint104"
            },
            {
              "internalType": "uint32",
              "name": "maxSalePurchasePerAddress",
              "type": "uint32"
            },
            {
              "internalType": "uint64",
              "name": "publicSaleStart",
              "type": "uint64"
            },
            {
              "internalType": "uint64",
              "name": "publicSaleEnd",
              "type": "uint64"
            },
            {
              "internalType": "uint64",
              "name": "presaleStart",
              "type": "uint64"
            },
            {
              "internalType": "uint64",
              "name": "presaleEnd",
              "type": "uint64"
            },
            {
              "internalType": "bytes32",
              "name": "presaleMerkleRoot",
              "type": "bytes32"
            }
          ],
          "internalType": "struct IERC721Drop.SalesConfiguration",
          "name": "saleConfig",
          "type": "tuple"
        },
        {
          "internalType": "string",
          "name": "metadataURIBase",
          "type": "string"
        },
        {
          "internalType": "string",
          "name": "metadataContractURI",
          "type": "string"
        },
        {
          "internalType": "address",
          "name": "createReferral",
          "type": "address"
        }
      ],
      "name": "createDropWithReferral",
      "outputs": [
        {
          "internalType": "address",
          "name": "",
          "type": "address"
        }
      ],
      "stateMutability": "nonpayable",
      "type": "function"
    },
    {
      "inputs": [
        {
          "internalType": "string",
          "name": "name",
          "type": "string"
        },
        {
          "internalType": "string",
          "name": "symbol",
          "type": "string"
        },
        {
          "internalType": "uint64",
          "name": "editionSize",
          "type": "uint64"
        },
        {
          "internalType": "uint16",
          "name": "royaltyBPS",
          "type": "uint16"
        },
        {
          "internalType": "address payable",
          "name": "fundsRecipient",
          "type": "address"
        },
        {
          "internalType": "address",
          "name": "defaultAdmin",
          "type": "address"
        },
        {
          "components": [
            {
              "internalType": "uint104",
              "name": "publicSalePrice",
              "type": "uint104"
            },
            {
              "internalType": "uint32",
              "name": "maxSalePurchasePerAddress",
              "type": "uint32"
            },
            {
              "internalType": "uint64",
              "name": "publicSaleStart",
              "type": "uint64"
            },
            {
              "internalType": "uint64",
              "name": "publicSaleEnd",
              "type": "uint64"
            },
            {
              "internalType": "uint64",
              "name": "presaleStart",
              "type": "uint64"
            },
            {
              "internalType": "uint64",
              "name": "presaleEnd",
              "type": "uint64"
            },
            {
              "internalType": "bytes32",
              "name": "presaleMerkleRoot",
              "type": "bytes32"
            }
          ],
          "internalType": "struct IERC721Drop.SalesConfiguration",
          "name": "saleConfig",
          "type": "tuple"
        },
        {
          "internalType": "string",
          "name": "description",
          "type": "string"
        },
        {
          "internalType": "string",
          "name": "animationURI",
          "type": "string"
        },
        {
          "internalType": "string",
          "name": "imageURI",
          "type": "string"
        }
      ],
      "name": "createEdition",
      "outputs": [
        {
          "internalType": "address",
          "name": "",
          "type": "address"
        }
      ],
      "stateMutability": "nonpayable",
      "type": "function"
    },
    {
      "inputs": [
        {
          "internalType": "string",
          "name": "name",
          "type": "string"
        },
        {
          "internalType": "string",
          "name": "symbol",
          "type": "string"
        },
        {
          "internalType": "uint64",
          "name": "editionSize",
          "type": "uint64"
        },
        {
          "internalType": "uint16",
          "name": "royaltyBPS",
          "type": "uint16"
        },
        {
          "internalType": "address payable",
          "name": "fundsRecipient",
          "type": "address"
        },
        {
          "internalType": "address",
          "name": "defaultAdmin",
          "type": "address"
        },
        {
          "components": [
            {
              "internalType": "uint104",
              "name": "publicSalePrice",
              "type": "uint104"
            },
            {
              "internalType": "uint32",
              "name": "maxSalePurchasePerAddress",
              "type": "uint32"
            },
            {
              "internalType": "uint64",
              "name": "publicSaleStart",
              "type": "uint64"
            },
            {
              "internalType": "uint64",
              "name": "publicSaleEnd",
              "type": "uint64"
            },
            {
              "internalType": "uint64",
              "name": "presaleStart",
              "type": "uint64"
            },
            {
              "internalType": "uint64",
              "name": "presaleEnd",
              "type": "uint64"
            },
            {
              "internalType": "bytes32",
              "name": "presaleMerkleRoot",
              "type": "bytes32"
            }
          ],
          "internalType": "struct IERC721Drop.SalesConfiguration",
          "name": "saleConfig",
          "type": "tuple"
        },
        {
          "internalType": "string",
          "name": "description",
          "type": "string"
        },
        {
          "internalType": "string",
          "name": "animationURI",
          "type": "string"
        },
        {
          "internalType": "string",
          "name": "imageURI",
          "type": "string"
        },
        {
          "internalType": "address",
          "name": "createReferral",
          "type": "address"
        }
      ],
      "name": "createEditionWithReferral",
      "outputs": [
        {
          "internalType": "address",
          "name": "",
          "type": "address"
        }
      ],
      "stateMutability": "nonpayable",
      "type": "function"
    },
    {
      "inputs": [],
      "name": "dropMetadataRenderer",
      "outputs": [
        {
          "internalType": "contract DropMetadataRenderer",
          "name": "",
          "type": "address"
        }
      ],
      "stateMutability": "view",
      "type": "function"
    },
    {
      "inputs": [],
      "name": "editionMetadataRenderer",
      "outputs": [
        {
          "internalType": "contract EditionMetadataRenderer",
          "name": "",
          "type": "address"
        }
      ],
      "stateMutability": "view",
      "type": "function"
    },
    {
      "inputs": [],
      "name": "implementation",
      "outputs": [
        {
          "internalType": "address",
          "name": "",
          "type": "address"
        }
      ],
      "stateMutability": "view",
      "type": "function"
    },
    {
      "inputs": [],
      "name": "initialize",
      "outputs": [],
      "stateMutability": "nonpayable",
      "type": "function"
    },
    {
      "inputs": [],
      "name": "owner",
      "outputs": [
        {
          "internalType": "address",
          "name": "",
          "type": "address"
        }
      ],
      "stateMutability": "view",
      "type": "function"
    },
    {
      "inputs": [],
      "name": "proxiableUUID",
      "outputs": [
        {
          "internalType": "bytes32",
          "name": "",
          "type": "bytes32"
        }
      ],
      "stateMutability": "view",
      "type": "function"
    },
    {
      "inputs": [],
      "name": "renounceOwnership",
      "outputs": [],
      "stateMutability": "nonpayable",
      "type": "function"
    },
    {
      "inputs": [
        {
          "internalType": "string",
          "name": "name",
          "type": "string"
        },
        {
          "internalType": "string",
          "name": "symbol",
          "type": "string"
        },
        {
          "internalType": "address",
          "name": "defaultAdmin",
          "type": "address"
        },
        {
          "internalType": "uint64",
          "name": "editionSize",
          "type": "uint64"
        },
        {
          "internalType": "uint16",
          "name": "royaltyBPS",
          "type": "uint16"
        },
        {
          "internalType": "address payable",
          "name": "fundsRecipient",
          "type": "address"
        },
        {
          "components": [
            {
              "internalType": "uint104",
              "name": "publicSalePrice",
              "type": "uint104"
            },
            {
              "internalType": "uint32",
              "name": "maxSalePurchasePerAddress",
              "type": "uint32"
            },
            {
              "internalType": "uint64",
              "name": "publicSaleStart",
              "type": "uint64"
            },
            {
              "internalType": "uint64",
              "name": "publicSaleEnd",
              "type": "uint64"
            },
            {
              "internalType": "uint64",
              "name": "presaleStart",
              "type": "uint64"
            },
            {
              "internalType": "uint64",
              "name": "presaleEnd",
              "type": "uint64"
            },
            {
              "internalType": "bytes32",
              "name": "presaleMerkleRoot",
              "type": "bytes32"
            }
          ],
          "internalType": "struct IERC721Drop.SalesConfiguration",
          "name": "saleConfig",
          "type": "tuple"
        },
        {
          "internalType": "contract IMetadataRenderer",
          "name": "metadataRenderer",
          "type": "address"
        },
        {
          "internalType": "bytes",
          "name": "metadataInitializer",
          "type": "bytes"
        },
        {
          "internalType": "address",
          "name": "createReferral",
          "type": "address"
        }
      ],
      "name": "setupDropsContract",
      "outputs": [
        {
          "internalType": "address",
          "name": "",
          "type": "address"
        }
      ],
      "stateMutability": "nonpayable",
      "type": "function"
    },
    {
      "inputs": [
        {
          "internalType": "address",
          "name": "newOwner",
          "type": "address"
        }
      ],
      "name": "transferOwnership",
      "outputs": [],
      "stateMutability": "nonpayable",
      "type": "function"
    },
    {
      "inputs": [
        {
          "internalType": "address",
          "name": "newImplementation",
          "type": "address"
        }
      ],
      "name": "upgradeTo",
      "outputs": [],
      "stateMutability": "nonpayable",
      "type": "function"
    },
    {
      "inputs": [
        {
          "internalType": "address",
          "name": "newImplementation",
          "type": "address"
        },
        {
          "internalType": "bytes",
          "name": "data",
          "type": "bytes"
        }
      ],
      "name": "upgradeToAndCall",
      "outputs": [],
      "stateMutability": "payable",
      "type": "function"
    }
  ],
  "bytecode": {
    "object": "0x61012034620001e857601f6200301538819003918201601f19168301916001600160401b03831184841017620001ed57808492606094604052833981010312620001e85780516001600160a01b039182821691828103620001e85760208201519184831690818403620001e85760400151948516808603620001e85730608052600860a0526000549460ff8660081c169283600014620001dd57303b155b156200018157620000ce620000ce92620000d8951598896200016e575b50620000c562000203565b9015156200024d565b620000c562000203565b60c05260e0526101009182526200015d575b604051612d5d9182620002b88339608051828181610267015281816108b90152610ab2015260a051826110dd015260c051828181610c5f01528181611ec00152611fd5015260e051828181610d91015281816123d10152612428015251818181610846015281816122e8015261233e0152f35b61ff001960005416600055620000ea565b61ffff19166101011760005538620000ba565b60405162461bcd60e51b815260206004820152602e60248201527f496e697469616c697a61626c653a20636f6e747261637420697320616c72656160448201526d191e481a5b9a5d1a585b1a5e995960921b6064820152608490fd5b60ff8716156200009d565b600080fd5b634e487b7160e01b600052604160045260246000fd5b60408051919082016001600160401b03811183821017620001ed57604052601382527f43616e6e6f7420626520302061646472657373000000000000000000000000006020830152565b15620002565750565b6040519062461bcd60e51b82528160208060048301528251908160248401526000935b8285106200029d575050604492506000838284010152601f80199101168101030190fd5b84810182015186860160440152938101938593506200027956fe6080604052600436101562000014575b600080fd5b60003560e01c80633659cfe614620001c75780633857fb1314620001bc5780634abde72914620001b15780634f1ef28614620001a657806352d1902d146200019b578063583fd1ab14620001905780635c60da1b14620001855780635f7317fb146200017a578063686ce435146200016f578063715018a6146200016457806371525d8c146200015957806375d0c0dc146200014e5780638129fc1c14620001435780638da5cb5b1462000138578063a0a8e460146200012d578063c4f932e11462000122578063cb0c247f1462000117578063e8a3d485146200010c5763f2fde38b146200010257600080fd5b6200000f62001402565b506200000f62001385565b506200000f620012a9565b506200000f62001101565b506200000f620010bd565b506200000f62001093565b506200000f62000fa1565b506200000f62000f49565b506200000f62000e2a565b506200000f62000db5565b506200000f62000d6e565b506200000f62000ca2565b506200000f62000c3c565b506200000f62000b5e565b506200000f62000a94565b506200000f6200086a565b506200000f62000823565b506200000f62000710565b506200000f62000234565b6001600160a01b038116036200000f57565b60a43590620001f382620001d2565b565b60443590620001f382620001d2565b6101e43590620001f382620001d2565b6102043590620001f382620001d2565b6101243590620001f382620001d2565b50346200000f5760203660031901126200000f5760048035906200025882620001d2565b6001600160a01b03620002af817f000000000000000000000000000000000000000000000000000000000000000016620002958130141562001541565b8260008051602062002d08833981519152541614620015a3565b620002c081603354163314620014a6565b82169160405191631d74303760e21b93848452620003286000948581858183875af190811562000473575b869162000455575b506020815191012060405187815286818681305afa90811562000445575b879162000427575b50602081519101201415151590565b62000347578362000344846200033d62001605565b906200170a565b80f35b909291506040519380855282858581305afa94851562000417575b8395620003e8575b509180809285620003ac95604051948593849283525af1918215620003d8575b8092620003b0575b505060405163a23cbf7b60e01b8152938493840162001c6e565b0390fd5b620003d092503d8091833e620003c78183620004f5565b81019062001c03565b388062000392565b620003e26200164f565b6200038a565b839283929650856200040a620003ac96933d8086833e620003c78183620004f5565b979350509293506200036a565b620004216200164f565b62000362565b6200043e91503d8089833e620003c78183620004f5565b3862000319565b6200044f6200164f565b62000311565b6200046c91503d8088833e620003c78183620004f5565b38620002f3565b6200047d6200164f565b620002eb565b50634e487b7160e01b600052604160045260246000fd5b6001600160401b038111620004ae57604052565b620004b862000483565b604052565b604081019081106001600160401b03821117620004ae57604052565b606081019081106001600160401b03821117620004ae57604052565b90601f801991011681019081106001600160401b03821117620004ae57604052565b6020906001600160401b03811162000535575b601f01601f19160190565b6200053f62000483565b6200052a565b81601f820112156200000f578035906200055f8262000517565b926200056f6040519485620004f5565b828452602083830101116200000f57816000926020809301838601378301015290565b604435906001600160401b03821682036200000f57565b606435906001600160401b03821682036200000f57565b61010435906001600160401b03821682036200000f57565b61012435906001600160401b03821682036200000f57565b61014435906001600160401b03821682036200000f57565b61016435906001600160401b03821682036200000f57565b6064359061ffff821682036200000f57565b6084359061ffff821682036200000f57565b60843590620001f382620001d2565b60e4359063ffffffff821682036200000f57565b60e09060c31901126200000f576040519060e082018281106001600160401b0382111762000700575b6040528160c4356001600160681b03811681036200000f578152620006b462000653565b6020820152620006c3620005c0565b6040820152620006d2620005d8565b6060820152620006e1620005f0565b6080820152620006f062000608565b60a082015260c061018435910152565b6200070a62000483565b62000690565b50346200000f576102003660031901126200000f576001600160401b03600480358281116200000f5762000748903690830162000545565b6024358381116200000f5762000762903690840162000545565b6200076c62000592565b6200077662000620565b6200078062000644565b6200078a620001e4565b90620007963662000667565b926101a4358981116200000f57620007b29036908a0162000545565b946101c4358a81116200000f57620007ce9036908b0162000545565b966101e4359a8b116200000f57620007f2620007f99a620008139c36910162000545565b98620023a2565b6040516001600160a01b0390911681529081906020820190565b0390f35b60009103126200000f57565b50346200000f5760003660031901126200000f5760206040516001600160a01b037f0000000000000000000000000000000000000000000000000000000000000000168152f35b506040806003193601126200000f57600480356200088881620001d2565b6024356001600160401b0381116200000f57620008a9903690840162000545565b906001600160a01b03620008e7817f000000000000000000000000000000000000000000000000000000000000000016620002958130141562001541565b620008f881603354163314620014a6565b8116845193631d74303760e21b958686526200095c6000968781858183895af190811562000a84575b889162000a66575b5060208151910120825189815288818681305afa90811562000a56575b899162000a3f5750602081519101201415151590565b6200096e5785620003448686620017f1565b869350808691519385855282858581305afa94851562000a2f575b839562000a02575b5082809185620003ac9697988551948593849283525af1928315620009f2575b8093620009d1575b50505163a23cbf7b60e01b8152938493840162001c6e565b620009e99293503d8091833e620003c78183620004f5565b908580620009b9565b620009fc6200164f565b620009b1565b8495508391620003ac9562000a2384933d8086833e620003c78183620004f5565b97509550915062000991565b62000a396200164f565b62000989565b6200043e91503d808b833e620003c78183620004f5565b62000a606200164f565b62000946565b62000a7d91503d808a833e620003c78183620004f5565b3862000929565b62000a8e6200164f565b62000921565b50346200000f5760003660031901126200000f576001600160a01b037f000000000000000000000000000000000000000000000000000000000000000016300362000af35760405160008051602062002d088339815191528152602090f35b60405162461bcd60e51b815260206004820152603860248201527f555550535570677261646561626c653a206d757374206e6f742062652063616c60448201527f6c6564207468726f7567682064656c656761746563616c6c00000000000000006064820152608490fd5b50346200000f576102003660031901126200000f576001600160401b036004358181116200000f5762000b9690369060040162000545565b906024358181116200000f5762000bb290369060040162000545565b9162000bbd620001f5565b9262000bc8620005a9565b62000bd262000632565b62000bdc620001e4565b62000be73662000667565b916101a4358781116200000f5762000c0490369060040162000545565b936101c4359788116200000f57620008139862000c2a620007f999369060040162000545565b9662000c3562000204565b986200230f565b50346200000f5760003660031901126200000f5760206040516001600160a01b037f0000000000000000000000000000000000000000000000000000000000000000168152f35b6101a43590620001f382620001d2565b60e43590620001f382620001d2565b50346200000f576102003660031901126200000f576001600160401b036004358181116200000f5762000cda90369060040162000545565b906024358181116200000f5762000cf690369060040162000545565b9162000d01620001f5565b9262000d0c620005a9565b62000d1662000632565b62000d20620001e4565b62000d2b3662000667565b9162000d3662000c83565b936101c4359788116200000f57620008139862000d5c620007f999369060040162000545565b9662000d6762000204565b9862002259565b50346200000f5760003660031901126200000f5760206040516001600160a01b037f0000000000000000000000000000000000000000000000000000000000000000168152f35b50346200000f5760008060031936011262000e2757806033546001600160a01b0381169062000de6338314620014a6565b73ffffffffffffffffffffffffffffffffffffffff19166033557f8be0079c531659141344cd1fd0a4f28419497f9722a3daafe3b4186f6b6457e08280a380f35b80fd5b50346200000f576101e03660031901126200000f576001600160401b036004358181116200000f5762000e6290369060040162000545565b906024358181116200000f5762000e7e90369060040162000545565b9162000e89620001f5565b62000e93620005a9565b62000e9d62000632565b62000ea7620001e4565b9062000eb33662000667565b926101a4358781116200000f5762000ed090369060040162000545565b946101c4359788116200000f57620008139862000ef6620007f999369060040162000545565b97620022ab565b60005b83811062000f115750506000910152565b818101518382015260200162000f00565b9060209162000f3d8151809281855285808601910162000efd565b601f01601f1916010190565b50346200000f5760003660031901126200000f576200081360405162000f6f81620004bd565b601081526f2d27a9209027232a1021b932b0ba37b960811b602082015260405191829160208352602083019062000f22565b50346200000f5760008060031936011262000e2757805460ff8160081c169081600014620010895750303b155b156200102d57158062000fff575b62000fe662001b6b565b62000fee5780f35b6200034461ff001960005416600055565b6200101461010061ff00196000541617600055565b62001027600160ff196000541617600055565b62000fdc565b60405162461bcd60e51b815260206004820152602e60248201527f496e697469616c697a61626c653a20636f6e747261637420697320616c72656160448201526d191e481a5b9a5d1a585b1a5e995960921b6064820152608490fd5b60ff161562000fce565b50346200000f5760003660031901126200000f5760206001600160a01b0360335416604051908152f35b50346200000f5760003660031901126200000f57602060405163ffffffff7f0000000000000000000000000000000000000000000000000000000000000000168152f35b50346200000f576102203660031901126200000f576001600160401b03600480358281116200000f5762001139903690830162000545565b6024358381116200000f5762001153903690840162000545565b6200115d62000592565b6200116762000620565b6200117162000644565b6200117b620001e4565b620011863662000667565b916101a4358981116200000f57620011a29036908a0162000545565b936101c4358a81116200000f57620011be9036908b0162000545565b956101e4359a8b116200000f57620011e2620007f99a620008139c36910162000545565b97620011ed62000214565b99620023f8565b6020906001600160401b0381116200120e575b60051b0190565b6200121862000483565b62001207565b9080601f830112156200000f578135906200123982620011f4565b92620012496040519485620004f5565b828452602092838086019160051b830101928084116200000f57848301915b848310620012795750505050505090565b82356001600160401b0381116200000f5786916200129d8484809489010162000545565b81520192019162001268565b50346200000f576101403660031901126200000f576001600160401b036004358181116200000f57620012e190369060040162000545565b906024358181116200000f57620012fd90369060040162000545565b9162001308620001f5565b9262001313620005a9565b6200131d62000632565b62001327620001e4565b60c4358681116200000f57620013429036906004016200121e565b916200134d62000c93565b93610104359788116200000f57620008139862001373620007f999369060040162000545565b966200137e62000224565b9862001f98565b50346200000f5760003660031901126200000f5762000813604051620013ab81620004d9565b602f81527f68747470733a2f2f6769746875622e636f6d2f6f75727a6f72612f7a6f72612d60208201526e64726f70732d636f6e74726163747360881b604082015260405191829160208352602083019062000f22565b50346200000f5760203660031901126200000f576004356200142481620001d2565b6001600160a01b036200143d81603354163314620014a6565b81161562001452576200145090620014f2565b005b60405162461bcd60e51b815260206004820152602660248201527f4f776e61626c653a206e6577206f776e657220697320746865207a65726f206160448201526564647265737360d01b6064820152608490fd5b15620014ae57565b606460405162461bcd60e51b815260206004820152602060248201527f4f776e61626c653a2063616c6c6572206973206e6f7420746865206f776e65726044820152fd5b603354906001600160a01b0380911691826bffffffffffffffffffffffff60a01b821617603355167f8be0079c531659141344cd1fd0a4f28419497f9722a3daafe3b4186f6b6457e0600080a3565b156200154957565b60405162461bcd60e51b815260206004820152602c60248201527f46756e6374696f6e206d7573742062652063616c6c6564207468726f7567682060448201526b19195b1959d85d1958d85b1b60a21b6064820152608490fd5b15620015ab57565b60405162461bcd60e51b815260206004820152602c60248201527f46756e6374696f6e206d7573742062652063616c6c6564207468726f7567682060448201526b6163746976652070726f787960a01b6064820152608490fd5b604051602081018181106001600160401b038211176200162f575b60405260008152906000368137565b6200163962000483565b62001620565b908160209103126200000f575190565b506040513d6000823e3d90fd5b156200166457565b60405162461bcd60e51b815260206004820152602960248201527f45524331393637557067726164653a20756e737570706f727465642070726f786044820152681a58589b195555525160ba1b6064820152608490fd5b60809060208152602e60208201527f45524331393637557067726164653a206e657720696d706c656d656e7461746960408201526d6f6e206973206e6f74205555505360901b60608201520190565b90620017377f4910fdfa16fed3260ed0e7147f7cc6da11a60208b5b9406d12a635614ffd91435460ff1690565b15620017495750620001f390620018c6565b6040516352d1902d60e01b8152916020836004816001600160a01b0385165afa60009381620017ba575b50620017945760405162461bcd60e51b815280620003ac60048201620016bb565b620017b460008051602062002d08833981519152620001f394146200165c565b6200195b565b620017e191945060203d8111620017e9575b620017d88183620004f5565b8101906200163f565b923862001773565b503d620017cc565b906200181e7f4910fdfa16fed3260ed0e7147f7cc6da11a60208b5b9406d12a635614ffd91435460ff1690565b15620018305750620001f390620018c6565b6040516352d1902d60e01b8152916020836004816001600160a01b0385165afa60009381620018a1575b506200187b5760405162461bcd60e51b815280620003ac60048201620016bb565b6200189b60008051602062002d08833981519152620001f394146200165c565b62001a7c565b620018be91945060203d8111620017e957620017d88183620004f5565b92386200185a565b803b1562001900576001600160a01b0360008051602062002d0883398151915291166bffffffffffffffffffffffff60a01b825416179055565b60405162461bcd60e51b815260206004820152602d60248201527f455243313936373a206e657720696d706c656d656e746174696f6e206973206e60448201526c1bdd08184818dbdb9d1c9858dd609a1b6064820152608490fd5b906200196782620018c6565b604051916000926001600160a01b0382167fbc7cd75a20ee27fd9adebab32041f755214dbc6bffa90cc0225b39da2e5c2d3b8580a282511580159062001a74575b620019b4575b50505050565b813b1562001a23575091808262001a0f9460208395519201905af4903d1562001a1a573d620019e38162000517565b90620019f36040519283620004f5565b8152809160203d92013e5b62001a0862001adc565b9162001b27565b5038808080620019ae565b506060620019fe565b62461bcd60e51b815260206004820152602660248201527f416464726573733a2064656c65676174652063616c6c20746f206e6f6e2d636f6044820152651b9d1c9858dd60d21b6064820152608490fd5b5083620019a8565b9062001a8882620018c6565b604051916000926001600160a01b0382167fbc7cd75a20ee27fd9adebab32041f755214dbc6bffa90cc0225b39da2e5c2d3b8580a282511580159062001ad357620019b45750505050565b506001620019a8565b6040519062001aeb82620004d9565b60278252660819985a5b195960ca1b6040837f416464726573733a206c6f772d6c6576656c2064656c65676174652063616c6c60208201520152565b9091901562001b34575090565b81511562001b455750805190602001fd5b60405162461bcd60e51b815260206004820152908190620003ac90602483019062000f22565b62001b8960ff60005460081c1662001b838162001ba2565b62001ba2565b62001b9433620014f2565b620001f360ff60005460081c165b1562001baa57565b60405162461bcd60e51b815260206004820152602b60248201527f496e697469616c697a61626c653a20636f6e7472616374206973206e6f74206960448201526a6e697469616c697a696e6760a81b6064820152608490fd5b6020818303126200000f578051906001600160401b0382116200000f570181601f820112156200000f57805162001c3a8162000517565b9262001c4a6040519485620004f5565b818452602082840101116200000f5762001c6b916020808501910162000efd565b90565b909162001c8862001c6b9360408452604084019062000f22565b91602081840391015262000f22565b9998969795919461ffff9362001cd58c969762001cc56001600160401b0395610140808b528a019062000f22565b8881036020998a01529062000f22565b968c60406001600160a01b038094169101521660608c01521660808a01521660a088015286820360c08801528451908183528083019281808460051b8301019701936000915b84831062001d5f575050505050506000926101209262001d4b62001d5a9360e08901906001600160a01b03169052565b86820361010088015262000f22565b930152565b909192939497848062001d7f600193601f198682030187528c5162000f22565b9a0193019301919493929062001d1b565b99979461ffff9362001dbd8c969d9b989462001cc56001600160401b0395610140808b528a019062000f22565b6001600160a01b0391821660408e01529c1660608c01521660808a01521660a088015286880360c08801528351808952600581901b89018201948201916000818b015b83821062001e545750505050508596509162001e449162001e356101209460e0620001f3989901906001600160a01b03169052565b87820361010089015262000f22565b9401906001600160a01b03169052565b9091929396838062001e746001938f601f199082030186528b5162000f22565b9901920192019093929162001e00565b9398979196909492956001600160a01b036040518062001f0061045c808301908382106001600160401b0383111762001f88575b6200245084397f0000000000000000000000000000000000000000000000000000000000000000906001600160a01b0360609216815260406020820152600060408201520190565b03906000f0801562001f78575b16998a3b156200000f5760009762001f3b956040519a8b998a99632dca748160e11b8b5260048b0162001c97565b038183875af1801562001f68575b62001f515750565b8062001f61620001f3926200049a565b8062000817565b62001f726200164f565b62001f49565b62001f826200164f565b62001f0d565b62001f9262000483565b62001eb8565b94939998929690959791976001600160a01b03604051806200201561045c808301908382106001600160401b0383111762001f8857620028ac84397f0000000000000000000000000000000000000000000000000000000000000000906001600160a01b0360609216815260406020820152600060408201520190565b03906000f0801562002050575b169a8b3b156200000f5760009862001f3b966040519b8c9a8b9a632dca748160e11b8c5260048c0162001d90565b6200205a6200164f565b62002022565b6040516200206e81620004bd565b600181528060005b602080821015620020935790606060209282850101520162002076565b50505090565b805115620020a75760200190565b634e487b7160e01b600052603260045260246000fd5b928098959262002211989592620022059895620020d962002060565b96620021e7620020f082516001600160681b031690565b620021d862002106602085015163ffffffff1690565b936200211c60408201516001600160401b031690565b906200213260608201516001600160401b031690565b60808201516001600160401b03169060c06200215860a08501516001600160401b031690565b9301516040517fffdb71630000000000000000000000000000000000000000000000000000000060208201526001600160681b03909716602488015263ffffffff90981660448701526001600160401b03938416606487015283166084860152821660a48501521660c483015260e4820193909352918290610104820190565b03601f198101835282620004f5565b620021f28862002099565b52620021fe8762002099565b5062001e84565b6001600160a01b031690565b6040516001600160401b03929092168252906001600160a01b0382169033907fad59ebba8bfb06ba01a615a611467ca3bef86a275bd5e9704d3b295112550ba590602090a390565b926200221198959262002205989592829b98956200227662002060565b966200228d620020f082516001600160681b031690565b620022988862002099565b52620022a48762002099565b5062001f98565b959493929190620022de62001c6b9998620022cf6040519a8b926020840162001c6e565b03601f1981018a5289620004f5565b6001600160a01b037f00000000000000000000000000000000000000000000000000000000000000001696620020bd565b9594939291906200233462001c6b9a9998620022cf6040519a8b926020840162001c6e565b6001600160a01b037f0000000000000000000000000000000000000000000000000000000000000000169662002259565b9162002393906200238462001c6b959360608652606086019062000f22565b90848203602086015262000f22565b91604081840391015262000f22565b96620023c790620022cf62001c6b9b9a97949596976040519b8c936020850162002365565b6001600160a01b037f00000000000000000000000000000000000000000000000000000000000000001696620020bd565b966200241e90620022cf62001c6b9c9b9a97949596976040519b8c936020850162002365565b6001600160a01b037f000000000000000000000000000000000000000000000000000000000000000016966200225956fe608060405261045c80380380610014816100bd565b92833981016040828203126100a1578151916001600160a01b03831683036100a1576020810151906001600160401b0382116100a157019181601f840112156100a15782519261006b610066856100ef565b6100bd565b92848452602085830101116100a1576100939361008e9160208086019101610119565b61013c565b60405160cd908161038f8239f35b600080fd5b50634e487b7160e01b600052604160045260246000fd5b6040519190601f01601f191682016001600160401b038111838210176100e257604052565b6100ea6100a6565b604052565b6020906001600160401b03811161010c575b601f01601f19160190565b6101146100a6565b610101565b60005b83811061012c5750506000910152565b818101518382015260200161011c565b803b156101d5577f360894a13ba1a3210667c828492db98dca3e2076cc3735a920a3ca505d382bbc80546001600160a01b0319166001600160a01b0383169081179091557fbc7cd75a20ee27fd9adebab32041f755214dbc6bffa90cc0225b39da2e5c2d3b600080a28151158015906101cd575b6101b8575050565b6101ca916101c4610230565b91610297565b50565b5060006101b0565b60405162461bcd60e51b815260206004820152602d60248201527f455243313936373a206e657720696d706c656d656e746174696f6e206973206e60448201526c1bdd08184818dbdb9d1c9858dd609a1b6064820152608490fd5b60405190606082016001600160401b0381118382101761028a575b60405260278252660819985a5b195960ca1b6040837f416464726573733a206c6f772d6c6576656c2064656c65676174652063616c6c60208201520152565b6102926100a6565b61024b565b9190823b156102e0576000816102d59460208394519201905af43d156102d8573d906102c5610066836100ef565b9182523d6000602084013e610334565b90565b606090610334565b60405162461bcd60e51b815260206004820152602660248201527f416464726573733a2064656c65676174652063616c6c20746f206e6f6e2d636f6044820152651b9d1c9858dd60d21b6064820152608490fd5b90919015610340575090565b8151156103505750805190602001fd5b6044604051809262461bcd60e51b8252602060048301526103808151809281602486015260208686019101610119565b601f01601f19168101030190fdfe608060405236156052576001600160a01b037f360894a13ba1a3210667c828492db98dca3e2076cc3735a920a3ca505d382bbc54166000808092368280378136915af43d82803e15604e573d90f35b3d90fd5b6001600160a01b037f360894a13ba1a3210667c828492db98dca3e2076cc3735a920a3ca505d382bbc54166000808092368280378136915af43d82803e15604e573d90f3fea264697066735822122044c42e8d2ef27310c5476d9969df2b5f7c671b3a0dc4ae9fd5ffc7008778223764736f6c63430008110033608060405261045c80380380610014816100bd565b92833981016040828203126100a1578151916001600160a01b03831683036100a1576020810151906001600160401b0382116100a157019181601f840112156100a15782519261006b610066856100ef565b6100bd565b92848452602085830101116100a1576100939361008e9160208086019101610119565b61013c565b60405160cd908161038f8239f35b600080fd5b50634e487b7160e01b600052604160045260246000fd5b6040519190601f01601f191682016001600160401b038111838210176100e257604052565b6100ea6100a6565b604052565b6020906001600160401b03811161010c575b601f01601f19160190565b6101146100a6565b610101565b60005b83811061012c5750506000910152565b818101518382015260200161011c565b803b156101d5577f360894a13ba1a3210667c828492db98dca3e2076cc3735a920a3ca505d382bbc80546001600160a01b0319166001600160a01b0383169081179091557fbc7cd75a20ee27fd9adebab32041f755214dbc6bffa90cc0225b39da2e5c2d3b600080a28151158015906101cd575b6101b8575050565b6101ca916101c4610230565b91610297565b50565b5060006101b0565b60405162461bcd60e51b815260206004820152602d60248201527f455243313936373a206e657720696d706c656d656e746174696f6e206973206e60448201526c1bdd08184818dbdb9d1c9858dd609a1b6064820152608490fd5b60405190606082016001600160401b0381118382101761028a575b60405260278252660819985a5b195960ca1b6040837f416464726573733a206c6f772d6c6576656c2064656c65676174652063616c6c60208201520152565b6102926100a6565b61024b565b9190823b156102e0576000816102d59460208394519201905af43d156102d8573d906102c5610066836100ef565b9182523d6000602084013e610334565b90565b606090610334565b60405162461bcd60e51b815260206004820152602660248201527f416464726573733a2064656c65676174652063616c6c20746f206e6f6e2d636f6044820152651b9d1c9858dd60d21b6064820152608490fd5b90919015610340575090565b8151156103505750805190602001fd5b6044604051809262461bcd60e51b8252602060048301526103808151809281602486015260208686019101610119565b601f01601f19168101030190fdfe608060405236156052576001600160a01b037f360894a13ba1a3210667c828492db98dca3e2076cc3735a920a3ca505d382bbc54166000808092368280378136915af43d82803e15604e573d90f35b3d90fd5b6001600160a01b037f360894a13ba1a3210667c828492db98dca3e2076cc3735a920a3ca505d382bbc54166000808092368280378136915af43d82803e15604e573d90f3fea264697066735822122044c42e8d2ef27310c5476d9969df2b5f7c671b3a0dc4ae9fd5ffc7008778223764736f6c63430008110033360894a13ba1a3210667c828492db98dca3e2076cc3735a920a3ca505d382bbca2646970667358221220e7d349570f0217b0ecf469a2c0b43ebe16a551774561efced97c170ea39278c664736f6c63430008110033",
    "linkReferences": {}
  },
  "methodIdentifiers": {
    "contractName()": "75d0c0dc",
    "contractURI()": "e8a3d485",
    "contractVersion()": "a0a8e460",
    "createAndConfigureDrop(string,string,address,uint64,uint16,address,bytes[],address,bytes,address)": "cb0c247f",
    "createDrop(string,string,address,uint64,uint16,address,(uint104,uint32,uint64,uint64,uint64,uint64,bytes32),string,string)": "71525d8c",
    "createDropWithReferral(string,string,address,uint64,uint16,address,(uint104,uint32,uint64,uint64,uint64,uint64,bytes32),string,string,address)": "583fd1ab",
    "createEdition(string,string,uint64,uint16,address,address,(uint104,uint32,uint64,uint64,uint64,uint64,bytes32),string,string,string)": "3857fb13",
    "createEditionWithReferral(string,string,uint64,uint16,address,address,(uint104,uint32,uint64,uint64,uint64,uint64,bytes32),string,string,string,address)": "c4f932e1",
    "dropMetadataRenderer()": "4abde729",
    "editionMetadataRenderer()": "686ce435",
    "implementation()": "5c60da1b",
    "initialize()": "8129fc1c",
    "owner()": "8da5cb5b",
    "proxiableUUID()": "52d1902d",
    "renounceOwnership()": "715018a6",
    "setupDropsContract(string,string,address,uint64,uint16,address,(uint104,uint32,uint64,uint64,uint64,uint64,bytes32),address,bytes,address)": "5f7317fb",
    "transferOwnership(address)": "f2fde38b",
    "upgradeTo(address)": "3659cfe6",
    "upgradeToAndCall(address,bytes)": "4f1ef286"
  },
  "id": 75
}