{
  "abi": [
    {
      "inputs": [
        {
          "internalType": "address",
          "name": "_mintFeeRecipient",
          "type": "address"
        },
        {
          "internalType": "address",
          "name": "_upgradeGate",
          "type": "address"
        },
        {
          "internalType": "address",
          "name": "_protocolRewards",
          "type": "address"
        }
      ],
      "stateMutability": "nonpayable",
      "type": "constructor"
    },
    {
      "inputs": [],
      "name": "ADDRESS_DELEGATECALL_TO_NON_CONTRACT",
      "type": "error"
    },
    {
      "inputs": [],
      "name": "ADDRESS_LOW_LEVEL_CALL_FAILED",
      "type": "error"
    },
    {
      "inputs": [
        {
          "internalType": "address",
          "name": "operator",
          "type": "address"
        },
        {
          "internalType": "address",
          "name": "user",
          "type": "address"
        }
      ],
      "name": "Burn_NotOwnerOrApproved",
      "type": "error"
    },
    {
      "inputs": [],
      "name": "CREATOR_FUNDS_RECIPIENT_NOT_SET",
      "type": "error"
    },
    {
      "inputs": [
        {
          "internalType": "bytes",
          "name": "reason",
          "type": "bytes"
        }
      ],
      "name": "CallFailed",
      "type": "error"
    },
    {
      "inputs": [],
      "name": "Call_TokenIdMismatch",
      "type": "error"
    },
    {
      "inputs": [
        {
          "internalType": "uint256",
          "name": "tokenId",
          "type": "uint256"
        },
        {
          "internalType": "uint256",
          "name": "quantity",
          "type": "uint256"
        },
        {
          "internalType": "uint256",
          "name": "totalMinted",
          "type": "uint256"
        },
        {
          "internalType": "uint256",
          "name": "maxSupply",
          "type": "uint256"
        }
      ],
      "name": "CannotMintMoreTokens",
      "type": "error"
    },
    {
      "inputs": [
        {
          "internalType": "address",
          "name": "proposedAddress",
          "type": "address"
        }
      ],
      "name": "Config_TransferHookNotSupported",
      "type": "error"
    },
    {
      "inputs": [],
      "name": "ERC1155_ACCOUNTS_AND_IDS_LENGTH_MISMATCH",
      "type": "error"
    },
    {
      "inputs": [],
      "name": "ERC1155_ADDRESS_ZERO_IS_NOT_A_VALID_OWNER",
      "type": "error"
    },
    {
      "inputs": [],
      "name": "ERC1155_BURN_AMOUNT_EXCEEDS_BALANCE",
      "type": "error"
    },
    {
      "inputs": [],
      "name": "ERC1155_BURN_FROM_ZERO_ADDRESS",
      "type": "error"
    },
    {
      "inputs": [],
      "name": "ERC1155_CALLER_IS_NOT_TOKEN_OWNER_OR_APPROVED",
      "type": "error"
    },
    {
      "inputs": [],
      "name": "ERC1155_ERC1155RECEIVER_REJECTED_TOKENS",
      "type": "error"
    },
    {
      "inputs": [],
      "name": "ERC1155_IDS_AND_AMOUNTS_LENGTH_MISMATCH",
      "type": "error"
    },
    {
      "inputs": [],
      "name": "ERC1155_INSUFFICIENT_BALANCE_FOR_TRANSFER",
      "type": "error"
    },
    {
      "inputs": [],
      "name": "ERC1155_MINT_TO_ZERO_ADDRESS",
      "type": "error"
    },
    {
      "inputs": [],
      "name": "ERC1155_SETTING_APPROVAL_FOR_SELF",
      "type": "error"
    },
    {
      "inputs": [],
      "name": "ERC1155_TRANSFER_TO_NON_ERC1155RECEIVER_IMPLEMENTER",
      "type": "error"
    },
    {
      "inputs": [],
      "name": "ERC1155_TRANSFER_TO_ZERO_ADDRESS",
      "type": "error"
    },
    {
      "inputs": [],
      "name": "ERC1967_NEW_IMPL_NOT_CONTRACT",
      "type": "error"
    },
    {
      "inputs": [],
      "name": "ERC1967_NEW_IMPL_NOT_UUPS",
      "type": "error"
    },
    {
      "inputs": [],
      "name": "ERC1967_UNSUPPORTED_PROXIABLEUUID",
      "type": "error"
    },
    {
      "inputs": [
        {
          "internalType": "address",
          "name": "recipient",
          "type": "address"
        },
        {
          "internalType": "uint256",
          "name": "amount",
          "type": "uint256"
        }
      ],
      "name": "ETHWithdrawFailed",
      "type": "error"
    },
    {
      "inputs": [],
      "name": "FUNCTION_MUST_BE_CALLED_THROUGH_ACTIVE_PROXY",
      "type": "error"
    },
    {
      "inputs": [],
      "name": "FUNCTION_MUST_BE_CALLED_THROUGH_DELEGATECALL",
      "type": "error"
    },
    {
      "inputs": [
        {
          "internalType": "uint256",
          "name": "amount",
          "type": "uint256"
        },
        {
          "internalType": "uint256",
          "name": "contractValue",
          "type": "uint256"
        }
      ],
      "name": "FundsWithdrawInsolvent",
      "type": "error"
    },
    {
      "inputs": [],
      "name": "INITIALIZABLE_CONTRACT_ALREADY_INITIALIZED",
      "type": "error"
    },
    {
      "inputs": [],
      "name": "INITIALIZABLE_CONTRACT_IS_NOT_INITIALIZING",
      "type": "error"
    },
    {
      "inputs": [],
      "name": "INVALID_ADDRESS_ZERO",
      "type": "error"
    },
    {
      "inputs": [],
      "name": "INVALID_ETH_AMOUNT",
      "type": "error"
    },
    {
      "inputs": [],
      "name": "InvalidMintSchedule",
      "type": "error"
    },
    {
      "inputs": [],
      "name": "MintNotYetStarted",
      "type": "error"
    },
    {
      "inputs": [],
      "name": "Mint_InsolventSaleTransfer",
      "type": "error"
    },
    {
      "inputs": [],
      "name": "Mint_TokenIDMintNotAllowed",
      "type": "error"
    },
    {
      "inputs": [],
      "name": "Mint_UnknownCommand",
      "type": "error"
    },
    {
      "inputs": [],
      "name": "Mint_ValueTransferFail",
      "type": "error"
    },
    {
      "inputs": [],
      "name": "NewOwnerNeedsToBeAdmin",
      "type": "error"
    },
    {
      "inputs": [
        {
          "internalType": "uint256",
          "name": "tokenId",
          "type": "uint256"
        }
      ],
      "name": "NoRendererForToken",
      "type": "error"
    },
    {
      "inputs": [],
      "name": "ONLY_CREATE_REFERRAL",
      "type": "error"
    },
    {
      "inputs": [],
      "name": "PremintDeleted",
      "type": "error"
    },
    {
      "inputs": [
        {
          "internalType": "address",
          "name": "caller",
          "type": "address"
        },
        {
          "internalType": "address",
          "name": "recipient",
          "type": "address"
        },
        {
          "internalType": "uint256",
          "name": "amount",
          "type": "uint256"
        }
      ],
      "name": "ProtocolRewardsWithdrawFailed",
      "type": "error"
    },
    {
      "inputs": [
        {
          "internalType": "address",
          "name": "renderer",
          "type": "address"
        }
      ],
      "name": "RendererNotValid",
      "type": "error"
    },
    {
      "inputs": [],
      "name": "Renderer_NotValidRendererContract",
      "type": "error"
    },
    {
      "inputs": [
        {
          "internalType": "address",
          "name": "targetContract",
          "type": "address"
        }
      ],
      "name": "Sale_CannotCallNonSalesContract",
      "type": "error"
    },
    {
      "inputs": [
        {
          "internalType": "uint256",
          "name": "expected",
          "type": "uint256"
        },
        {
          "internalType": "uint256",
          "name": "actual",
          "type": "uint256"
        }
      ],
      "name": "TokenIdMismatch",
      "type": "error"
    },
    {
      "inputs": [],
      "name": "UUPS_UPGRADEABLE_MUST_NOT_BE_CALLED_THROUGH_DELEGATECALL",
      "type": "error"
    },
    {
      "inputs": [
        {
          "internalType": "address",
          "name": "user",
          "type": "address"
        },
        {
          "internalType": "uint256",
          "name": "tokenId",
          "type": "uint256"
        },
        {
          "internalType": "uint256",
          "name": "role",
          "type": "uint256"
        }
      ],
      "name": "UserMissingRoleForToken",
      "type": "error"
    },
    {
      "anonymous": false,
      "inputs": [
        {
          "indexed": false,
          "internalType": "address",
          "name": "previousAdmin",
          "type": "address"
        },
        {
          "indexed": false,
          "internalType": "address",
          "name": "newAdmin",
          "type": "address"
        }
      ],
      "name": "AdminChanged",
      "type": "event"
    },
    {
      "anonymous": false,
      "inputs": [
        {
          "indexed": true,
          "internalType": "address",
          "name": "account",
          "type": "address"
        },
        {
          "indexed": true,
          "internalType": "address",
          "name": "operator",
          "type": "address"
        },
        {
          "indexed": false,
          "internalType": "bool",
          "name": "approved",
          "type": "bool"
        }
      ],
      "name": "ApprovalForAll",
      "type": "event"
    },
    {
      "anonymous": false,
      "inputs": [
        {
          "indexed": true,
          "internalType": "address",
          "name": "beacon",
          "type": "address"
        }
      ],
      "name": "BeaconUpgraded",
      "type": "event"
    },
    {
      "anonymous": false,
      "inputs": [
        {
          "indexed": true,
          "internalType": "address",
          "name": "updater",
          "type": "address"
        },
        {
          "indexed": true,
          "internalType": "enum IZoraCreator1155.ConfigUpdate",
          "name": "updateType",
          "type": "uint8"
        },
        {
          "components": [
            {
              "internalType": "address",
              "name": "owner",
              "type": "address"
            },
            {
              "internalType": "uint96",
              "name": "__gap1",
              "type": "uint96"
            },
            {
              "internalType": "address payable",
              "name": "fundsRecipient",
              "type": "address"
            },
            {
              "internalType": "uint96",
              "name": "__gap2",
              "type": "uint96"
            },
            {
              "internalType": "contract ITransferHookReceiver",
              "name": "transferHook",
              "type": "address"
            },
            {
              "internalType": "uint96",
              "name": "__gap3",
              "type": "uint96"
            }
          ],
          "indexed": false,
          "internalType": "struct IZoraCreator1155TypesV1.ContractConfig",
          "name": "newConfig",
          "type": "tuple"
        }
      ],
      "name": "ConfigUpdated",
      "type": "event"
    },
    {
      "anonymous": false,
      "inputs": [
        {
          "indexed": true,
          "internalType": "address",
          "name": "updater",
          "type": "address"
        },
        {
          "indexed": false,
          "internalType": "string",
          "name": "uri",
          "type": "string"
        },
        {
          "indexed": false,
          "internalType": "string",
          "name": "name",
          "type": "string"
        }
      ],
      "name": "ContractMetadataUpdated",
      "type": "event"
    },
    {
      "anonymous": false,
      "inputs": [
        {
          "indexed": false,
          "internalType": "contract IRenderer1155",
          "name": "renderer",
          "type": "address"
        }
      ],
      "name": "ContractRendererUpdated",
      "type": "event"
    },
    {
      "anonymous": false,
      "inputs": [
        {
          "indexed": false,
          "internalType": "bytes32",
          "name": "structHash",
          "type": "bytes32"
        },
        {
          "indexed": false,
          "internalType": "string",
          "name": "domainName",
          "type": "string"
        },
        {
          "indexed": false,
          "internalType": "string",
          "name": "version",
          "type": "string"
        },
        {
          "indexed": false,
          "internalType": "address",
          "name": "creator",
          "type": "address"
        },
        {
          "indexed": false,
          "internalType": "bytes",
          "name": "signature",
          "type": "bytes"
        }
      ],
      "name": "CreatorAttribution",
      "type": "event"
    },
    {
      "anonymous": false,
      "inputs": [
        {
          "indexed": false,
          "internalType": "uint8",
          "name": "version",
          "type": "uint8"
        }
      ],
      "name": "Initialized",
      "type": "event"
    },
    {
      "anonymous": false,
      "inputs": [
        {
          "indexed": false,
          "internalType": "address",
          "name": "lastOwner",
          "type": "address"
        },
        {
          "indexed": false,
          "internalType": "address",
          "name": "newOwner",
          "type": "address"
        }
      ],
      "name": "OwnershipTransferred",
      "type": "event"
    },
    {
      "anonymous": false,
      "inputs": [
        {
          "indexed": true,
          "internalType": "address",
          "name": "sender",
          "type": "address"
        },
        {
          "indexed": true,
          "internalType": "address",
          "name": "minter",
          "type": "address"
        },
        {
          "indexed": true,
          "internalType": "uint256",
          "name": "tokenId",
          "type": "uint256"
        },
        {
          "indexed": false,
          "internalType": "uint256",
          "name": "quantity",
          "type": "uint256"
        },
        {
          "indexed": false,
          "internalType": "uint256",
          "name": "value",
          "type": "uint256"
        }
      ],
      "name": "Purchased",
      "type": "event"
    },
    {
      "anonymous": false,
      "inputs": [
        {
          "indexed": true,
          "internalType": "uint256",
          "name": "tokenId",
          "type": "uint256"
        },
        {
          "indexed": true,
          "internalType": "address",
          "name": "renderer",
          "type": "address"
        },
        {
          "indexed": true,
          "internalType": "address",
          "name": "user",
          "type": "address"
        }
      ],
      "name": "RendererUpdated",
      "type": "event"
    },
    {
      "anonymous": false,
      "inputs": [
        {
          "indexed": true,
          "internalType": "uint256",
          "name": "tokenId",
          "type": "uint256"
        },
        {
          "indexed": true,
          "internalType": "address",
          "name": "sender",
          "type": "address"
        },
        {
          "indexed": false,
          "internalType": "string",
          "name": "newURI",
          "type": "string"
        },
        {
          "indexed": false,
          "internalType": "uint256",
          "name": "maxSupply",
          "type": "uint256"
        }
      ],
      "name": "SetupNewToken",
      "type": "event"
    },
    {
      "anonymous": false,
      "inputs": [
        {
          "indexed": true,
          "internalType": "address",
          "name": "operator",
          "type": "address"
        },
        {
          "indexed": true,
          "internalType": "address",
          "name": "from",
          "type": "address"
        },
        {
          "indexed": true,
          "internalType": "address",
          "name": "to",
          "type": "address"
        },
        {
          "indexed": false,
          "internalType": "uint256[]",
          "name": "ids",
          "type": "uint256[]"
        },
        {
          "indexed": false,
          "internalType": "uint256[]",
          "name": "values",
          "type": "uint256[]"
        }
      ],
      "name": "TransferBatch",
      "type": "event"
    },
    {
      "anonymous": false,
      "inputs": [
        {
          "indexed": true,
          "internalType": "address",
          "name": "operator",
          "type": "address"
        },
        {
          "indexed": true,
          "internalType": "address",
          "name": "from",
          "type": "address"
        },
        {
          "indexed": true,
          "internalType": "address",
          "name": "to",
          "type": "address"
        },
        {
          "indexed": false,
          "internalType": "uint256",
          "name": "id",
          "type": "uint256"
        },
        {
          "indexed": false,
          "internalType": "uint256",
          "name": "value",
          "type": "uint256"
        }
      ],
      "name": "TransferSingle",
      "type": "event"
    },
    {
      "anonymous": false,
      "inputs": [
        {
          "indexed": false,
          "internalType": "string",
          "name": "value",
          "type": "string"
        },
        {
          "indexed": true,
          "internalType": "uint256",
          "name": "id",
          "type": "uint256"
        }
      ],
      "name": "URI",
      "type": "event"
    },
    {
      "anonymous": false,
      "inputs": [
        {
          "indexed": true,
          "internalType": "uint256",
          "name": "tokenId",
          "type": "uint256"
        },
        {
          "indexed": true,
          "internalType": "address",
          "name": "user",
          "type": "address"
        },
        {
          "indexed": true,
          "internalType": "uint256",
          "name": "permissions",
          "type": "uint256"
        }
      ],
      "name": "UpdatedPermissions",
      "type": "event"
    },
    {
      "anonymous": false,
      "inputs": [
        {
          "indexed": true,
          "internalType": "uint256",
          "name": "tokenId",
          "type": "uint256"
        },
        {
          "indexed": true,
          "internalType": "address",
          "name": "user",
          "type": "address"
        },
        {
          "components": [
            {
              "internalType": "uint32",
              "name": "royaltyMintSchedule",
              "type": "uint32"
            },
            {
              "internalType": "uint32",
              "name": "royaltyBPS",
              "type": "uint32"
            },
            {
              "internalType": "address",
              "name": "royaltyRecipient",
              "type": "address"
            }
          ],
          "indexed": false,
          "internalType": "struct ICreatorRoyaltiesControl.RoyaltyConfiguration",
          "name": "configuration",
          "type": "tuple"
        }
      ],
      "name": "UpdatedRoyalties",
      "type": "event"
    },
    {
      "anonymous": false,
      "inputs": [
        {
          "indexed": true,
          "internalType": "address",
          "name": "from",
          "type": "address"
        },
        {
          "indexed": true,
          "internalType": "uint256",
          "name": "tokenId",
          "type": "uint256"
        },
        {
          "components": [
            {
              "internalType": "string",
              "name": "uri",
              "type": "string"
            },
            {
              "internalType": "uint256",
              "name": "maxSupply",
              "type": "uint256"
            },
            {
              "internalType": "uint256",
              "name": "totalMinted",
              "type": "uint256"
            }
          ],
          "indexed": false,
          "internalType": "struct IZoraCreator1155TypesV1.TokenData",
          "name": "tokenData",
          "type": "tuple"
        }
      ],
      "name": "UpdatedToken",
      "type": "event"
    },
    {
      "anonymous": false,
      "inputs": [
        {
          "indexed": true,
          "internalType": "address",
          "name": "implementation",
          "type": "address"
        }
      ],
      "name": "Upgraded",
      "type": "event"
    },
    {
      "inputs": [],
      "name": "CONTRACT_BASE_ID",
      "outputs": [
        {
          "internalType": "uint256",
          "name": "",
          "type": "uint256"
        }
      ],
      "stateMutability": "view",
      "type": "function"
    },
    {
      "inputs": [],
      "name": "PERMISSION_BIT_ADMIN",
      "outputs": [
        {
          "internalType": "uint256",
          "name": "",
          "type": "uint256"
        }
      ],
      "stateMutability": "view",
      "type": "function"
    },
    {
      "inputs": [],
      "name": "PERMISSION_BIT_FUNDS_MANAGER",
      "outputs": [
        {
          "internalType": "uint256",
          "name": "",
          "type": "uint256"
        }
      ],
      "stateMutability": "view",
      "type": "function"
    },
    {
      "inputs": [],
      "name": "PERMISSION_BIT_METADATA",
      "outputs": [
        {
          "internalType": "uint256",
          "name": "",
          "type": "uint256"
        }
      ],
      "stateMutability": "view",
      "type": "function"
    },
    {
      "inputs": [],
      "name": "PERMISSION_BIT_MINTER",
      "outputs": [
        {
          "internalType": "uint256",
          "name": "",
          "type": "uint256"
        }
      ],
      "stateMutability": "view",
      "type": "function"
    },
    {
      "inputs": [],
      "name": "PERMISSION_BIT_SALES",
      "outputs": [
        {
          "internalType": "uint256",
          "name": "",
          "type": "uint256"
        }
      ],
      "stateMutability": "view",
      "type": "function"
    },
    {
      "inputs": [
        {
          "internalType": "uint256",
          "name": "tokenId",
          "type": "uint256"
        },
        {
          "internalType": "address",
          "name": "user",
          "type": "address"
        },
        {
          "internalType": "uint256",
          "name": "permissionBits",
          "type": "uint256"
        }
      ],
      "name": "addPermission",
      "outputs": [],
      "stateMutability": "nonpayable",
      "type": "function"
    },
    {
      "inputs": [
        {
          "internalType": "address",
          "name": "recipient",
          "type": "address"
        },
        {
          "internalType": "uint256",
          "name": "tokenId",
          "type": "uint256"
        },
        {
          "internalType": "uint256",
          "name": "quantity",
          "type": "uint256"
        },
        {
          "internalType": "bytes",
          "name": "data",
          "type": "bytes"
        }
      ],
      "name": "adminMint",
      "outputs": [],
      "stateMutability": "nonpayable",
      "type": "function"
    },
    {
      "inputs": [
        {
          "internalType": "address",
          "name": "recipient",
          "type": "address"
        },
        {
          "internalType": "uint256[]",
          "name": "tokenIds",
          "type": "uint256[]"
        },
        {
          "internalType": "uint256[]",
          "name": "quantities",
          "type": "uint256[]"
        },
        {
          "internalType": "bytes",
          "name": "data",
          "type": "bytes"
        }
      ],
      "name": "adminMintBatch",
      "outputs": [],
      "stateMutability": "nonpayable",
      "type": "function"
    },
    {
      "inputs": [
        {
          "internalType": "uint256",
          "name": "lastTokenId",
          "type": "uint256"
        }
      ],
      "name": "assumeLastTokenIdMatches",
      "outputs": [],
      "stateMutability": "view",
      "type": "function"
    },
    {
      "inputs": [
        {
          "internalType": "address",
          "name": "account",
          "type": "address"
        },
        {
          "internalType": "uint256",
          "name": "id",
          "type": "uint256"
        }
      ],
      "name": "balanceOf",
      "outputs": [
        {
          "internalType": "uint256",
          "name": "",
          "type": "uint256"
        }
      ],
      "stateMutability": "view",
      "type": "function"
    },
    {
      "inputs": [
        {
          "internalType": "address[]",
          "name": "accounts",
          "type": "address[]"
        },
        {
          "internalType": "uint256[]",
          "name": "ids",
          "type": "uint256[]"
        }
      ],
      "name": "balanceOfBatch",
      "outputs": [
        {
          "internalType": "uint256[]",
          "name": "batchBalances",
          "type": "uint256[]"
        }
      ],
      "stateMutability": "view",
      "type": "function"
    },
    {
      "inputs": [
        {
          "internalType": "address",
          "name": "from",
          "type": "address"
        },
        {
          "internalType": "uint256[]",
          "name": "tokenIds",
          "type": "uint256[]"
        },
        {
          "internalType": "uint256[]",
          "name": "amounts",
          "type": "uint256[]"
        }
      ],
      "name": "burnBatch",
      "outputs": [],
      "stateMutability": "nonpayable",
      "type": "function"
    },
    {
      "inputs": [
        {
          "internalType": "uint256",
          "name": "tokenId",
          "type": "uint256"
        },
        {
          "internalType": "bytes",
          "name": "data",
          "type": "bytes"
        }
      ],
      "name": "callRenderer",
      "outputs": [],
      "stateMutability": "nonpayable",
      "type": "function"
    },
    {
      "inputs": [
        {
          "internalType": "uint256",
          "name": "tokenId",
          "type": "uint256"
        },
        {
          "internalType": "contract IMinter1155",
          "name": "salesConfig",
          "type": "address"
        },
        {
          "internalType": "bytes",
          "name": "data",
          "type": "bytes"
        }
      ],
      "name": "callSale",
      "outputs": [],
      "stateMutability": "nonpayable",
      "type": "function"
    },
    {
      "inputs": [
        {
          "internalType": "uint256",
          "name": "numTokens",
          "type": "uint256"
        }
      ],
      "name": "computeFreeMintRewards",
      "outputs": [
        {
          "components": [
            {
              "internalType": "uint256",
              "name": "creatorReward",
              "type": "uint256"
            },
            {
              "internalType": "uint256",
              "name": "createReferralReward",
              "type": "uint256"
            },
            {
              "internalType": "uint256",
              "name": "mintReferralReward",
              "type": "uint256"
            },
            {
              "internalType": "uint256",
              "name": "firstMinterReward",
              "type": "uint256"
            },
            {
              "internalType": "uint256",
              "name": "zoraReward",
              "type": "uint256"
            }
          ],
          "internalType": "struct RewardsSettings",
          "name": "",
          "type": "tuple"
        }
      ],
      "stateMutability": "pure",
      "type": "function"
    },
    {
      "inputs": [
        {
          "internalType": "uint256",
          "name": "numTokens",
          "type": "uint256"
        }
      ],
      "name": "computePaidMintRewards",
      "outputs": [
        {
          "components": [
            {
              "internalType": "uint256",
              "name": "creatorReward",
              "type": "uint256"
            },
            {
              "internalType": "uint256",
              "name": "createReferralReward",
              "type": "uint256"
            },
            {
              "internalType": "uint256",
              "name": "mintReferralReward",
              "type": "uint256"
            },
            {
              "internalType": "uint256",
              "name": "firstMinterReward",
              "type": "uint256"
            },
            {
              "internalType": "uint256",
              "name": "zoraReward",
              "type": "uint256"
            }
          ],
          "internalType": "struct RewardsSettings",
          "name": "",
          "type": "tuple"
        }
      ],
      "stateMutability": "pure",
      "type": "function"
    },
    {
      "inputs": [
        {
          "internalType": "uint256",
          "name": "numTokens",
          "type": "uint256"
        }
      ],
      "name": "computeTotalReward",
      "outputs": [
        {
          "internalType": "uint256",
          "name": "",
          "type": "uint256"
        }
      ],
      "stateMutability": "pure",
      "type": "function"
    },
    {
      "inputs": [],
      "name": "config",
      "outputs": [
        {
          "internalType": "address",
          "name": "owner",
          "type": "address"
        },
        {
          "internalType": "uint96",
          "name": "__gap1",
          "type": "uint96"
        },
        {
          "internalType": "address payable",
          "name": "fundsRecipient",
          "type": "address"
        },
        {
          "internalType": "uint96",
          "name": "__gap2",
          "type": "uint96"
        },
        {
          "internalType": "contract ITransferHookReceiver",
          "name": "transferHook",
          "type": "address"
        },
        {
          "internalType": "uint96",
          "name": "__gap3",
          "type": "uint96"
        }
      ],
      "stateMutability": "view",
      "type": "function"
    },
    {
      "inputs": [],
      "name": "contractURI",
      "outputs": [
        {
          "internalType": "string",
          "name": "",
          "type": "string"
        }
      ],
      "stateMutability": "view",
      "type": "function"
    },
    {
      "inputs": [],
      "name": "contractVersion",
      "outputs": [
        {
          "internalType": "string",
          "name": "",
          "type": "string"
        }
      ],
      "stateMutability": "pure",
      "type": "function"
    },
    {
      "inputs": [
        {
          "internalType": "uint256",
          "name": "",
          "type": "uint256"
        }
      ],
      "name": "createReferrals",
      "outputs": [
        {
          "internalType": "address",
          "name": "",
          "type": "address"
        }
      ],
      "stateMutability": "view",
      "type": "function"
    },
    {
      "inputs": [
        {
          "internalType": "uint256",
          "name": "",
          "type": "uint256"
        }
      ],
      "name": "customRenderers",
      "outputs": [
        {
          "internalType": "contract IRenderer1155",
          "name": "",
          "type": "address"
        }
      ],
      "stateMutability": "view",
      "type": "function"
    },
    {
      "inputs": [
        {
          "components": [
            {
              "components": [
                {
                  "internalType": "string",
                  "name": "tokenURI",
                  "type": "string"
                },
                {
                  "internalType": "uint256",
                  "name": "maxSupply",
                  "type": "uint256"
                },
                {
                  "internalType": "uint64",
                  "name": "maxTokensPerAddress",
                  "type": "uint64"
                },
                {
                  "internalType": "uint96",
                  "name": "pricePerToken",
                  "type": "uint96"
                },
                {
                  "internalType": "uint64",
                  "name": "mintStart",
                  "type": "uint64"
                },
                {
                  "internalType": "uint64",
                  "name": "mintDuration",
                  "type": "uint64"
                },
                {
                  "internalType": "uint32",
                  "name": "royaltyMintSchedule",
                  "type": "uint32"
                },
                {
                  "internalType": "uint32",
                  "name": "royaltyBPS",
                  "type": "uint32"
                },
                {
                  "internalType": "address",
                  "name": "royaltyRecipient",
                  "type": "address"
                },
                {
                  "internalType": "address",
                  "name": "fixedPriceMinter",
                  "type": "address"
                }
              ],
              "internalType": "struct TokenCreationConfig",
              "name": "tokenConfig",
              "type": "tuple"
            },
            {
              "internalType": "uint32",
              "name": "uid",
              "type": "uint32"
            },
            {
              "internalType": "uint32",
              "name": "version",
              "type": "uint32"
            },
            {
              "internalType": "bool",
              "name": "deleted",
              "type": "bool"
            }
          ],
          "internalType": "struct PremintConfig",
          "name": "premintConfig",
          "type": "tuple"
        },
        {
          "internalType": "bytes",
          "name": "signature",
          "type": "bytes"
        },
        {
          "internalType": "address",
          "name": "sender",
          "type": "address"
        }
      ],
      "name": "delegateSetupNewToken",
      "outputs": [
        {
          "internalType": "uint256",
          "name": "newTokenId",
          "type": "uint256"
        }
      ],
      "stateMutability": "nonpayable",
      "type": "function"
    },
    {
      "inputs": [
        {
          "internalType": "uint32",
          "name": "",
          "type": "uint32"
        }
      ],
      "name": "delegatedTokenId",
      "outputs": [
        {
          "internalType": "uint256",
          "name": "",
          "type": "uint256"
        }
      ],
      "stateMutability": "view",
      "type": "function"
    },
    {
      "inputs": [
        {
          "internalType": "uint256",
          "name": "",
          "type": "uint256"
        }
      ],
      "name": "firstMinters",
      "outputs": [
        {
          "internalType": "address",
          "name": "",
          "type": "address"
        }
      ],
      "stateMutability": "view",
      "type": "function"
    },
    {
      "inputs": [
        {
          "internalType": "uint256",
          "name": "tokenId",
          "type": "uint256"
        }
      ],
      "name": "getCreatorRewardRecipient",
      "outputs": [
        {
          "internalType": "address",
          "name": "",
          "type": "address"
        }
      ],
      "stateMutability": "view",
      "type": "function"
    },
    {
      "inputs": [
        {
          "internalType": "uint256",
          "name": "tokenId",
          "type": "uint256"
        }
      ],
      "name": "getCustomRenderer",
      "outputs": [
        {
          "internalType": "contract IRenderer1155",
          "name": "customRenderer",
          "type": "address"
        }
      ],
      "stateMutability": "view",
      "type": "function"
    },
    {
      "inputs": [
        {
          "internalType": "uint256",
          "name": "tokenId",
          "type": "uint256"
        }
      ],
      "name": "getRoyalties",
      "outputs": [
        {
          "components": [
            {
              "internalType": "uint32",
              "name": "royaltyMintSchedule",
              "type": "uint32"
            },
            {
              "internalType": "uint32",
              "name": "royaltyBPS",
              "type": "uint32"
            },
            {
              "internalType": "address",
              "name": "royaltyRecipient",
              "type": "address"
            }
          ],
          "internalType": "struct ICreatorRoyaltiesControl.RoyaltyConfiguration",
          "name": "",
          "type": "tuple"
        }
      ],
      "stateMutability": "view",
      "type": "function"
    },
    {
      "inputs": [
        {
          "internalType": "uint256",
          "name": "tokenId",
          "type": "uint256"
        }
      ],
      "name": "getTokenInfo",
      "outputs": [
        {
          "components": [
            {
              "internalType": "string",
              "name": "uri",
              "type": "string"
            },
            {
              "internalType": "uint256",
              "name": "maxSupply",
              "type": "uint256"
            },
            {
              "internalType": "uint256",
              "name": "totalMinted",
              "type": "uint256"
            }
          ],
          "internalType": "struct IZoraCreator1155TypesV1.TokenData",
          "name": "",
          "type": "tuple"
        }
      ],
      "stateMutability": "view",
      "type": "function"
    },
    {
      "inputs": [],
      "name": "implementation",
      "outputs": [
        {
          "internalType": "address",
          "name": "",
          "type": "address"
        }
      ],
      "stateMutability": "view",
      "type": "function"
    },
    {
      "inputs": [
        {
          "internalType": "string",
          "name": "contractName",
          "type": "string"
        },
        {
          "internalType": "string",
          "name": "newContractURI",
          "type": "string"
        },
        {
          "components": [
            {
              "internalType": "uint32",
              "name": "royaltyMintSchedule",
              "type": "uint32"
            },
            {
              "internalType": "uint32",
              "name": "royaltyBPS",
              "type": "uint32"
            },
            {
              "internalType": "address",
              "name": "royaltyRecipient",
              "type": "address"
            }
          ],
          "internalType": "struct ICreatorRoyaltiesControl.RoyaltyConfiguration",
          "name": "defaultRoyaltyConfiguration",
          "type": "tuple"
        },
        {
          "internalType": "address payable",
          "name": "defaultAdmin",
          "type": "address"
        },
        {
          "internalType": "bytes[]",
          "name": "setupActions",
          "type": "bytes[]"
        }
      ],
      "name": "initialize",
      "outputs": [],
      "stateMutability": "nonpayable",
      "type": "function"
    },
    {
      "inputs": [
        {
          "internalType": "address",
          "name": "user",
          "type": "address"
        },
        {
          "internalType": "uint256",
          "name": "tokenId",
          "type": "uint256"
        },
        {
          "internalType": "uint256",
          "name": "role",
          "type": "uint256"
        }
      ],
      "name": "isAdminOrRole",
      "outputs": [
        {
          "internalType": "bool",
          "name": "",
          "type": "bool"
        }
      ],
      "stateMutability": "view",
      "type": "function"
    },
    {
      "inputs": [
        {
          "internalType": "address",
          "name": "account",
          "type": "address"
        },
        {
          "internalType": "address",
          "name": "operator",
          "type": "address"
        }
      ],
      "name": "isApprovedForAll",
      "outputs": [
        {
          "internalType": "bool",
          "name": "",
          "type": "bool"
        }
      ],
      "stateMutability": "view",
      "type": "function"
    },
    {
      "inputs": [
        {
          "internalType": "uint256",
          "name": "",
          "type": "uint256"
        }
      ],
      "name": "metadataRendererContract",
      "outputs": [
        {
          "internalType": "address",
          "name": "",
          "type": "address"
        }
      ],
      "stateMutability": "view",
      "type": "function"
    },
    {
      "inputs": [
        {
          "internalType": "contract IMinter1155",
          "name": "minter",
          "type": "address"
        },
        {
          "internalType": "uint256",
          "name": "tokenId",
          "type": "uint256"
        },
        {
          "internalType": "uint256",
          "name": "quantity",
          "type": "uint256"
        },
        {
          "internalType": "bytes",
          "name": "minterArguments",
          "type": "bytes"
        }
      ],
      "name": "mint",
      "outputs": [],
      "stateMutability": "payable",
      "type": "function"
    },
    {
      "inputs": [],
      "name": "mintFee",
      "outputs": [
        {
          "internalType": "uint256",
          "name": "",
          "type": "uint256"
        }
      ],
      "stateMutability": "pure",
      "type": "function"
    },
    {
      "inputs": [
        {
          "internalType": "contract IMinter1155",
          "name": "minter",
          "type": "address"
        },
        {
          "internalType": "uint256",
          "name": "tokenId",
          "type": "uint256"
        },
        {
          "internalType": "uint256",
          "name": "quantity",
          "type": "uint256"
        },
        {
          "internalType": "bytes",
          "name": "minterArguments",
          "type": "bytes"
        },
        {
          "internalType": "address",
          "name": "mintReferral",
          "type": "address"
        }
      ],
      "name": "mintWithRewards",
      "outputs": [],
      "stateMutability": "payable",
      "type": "function"
    },
    {
      "inputs": [
        {
          "internalType": "bytes[]",
          "name": "data",
          "type": "bytes[]"
        }
      ],
      "name": "multicall",
      "outputs": [
        {
          "internalType": "bytes[]",
          "name": "results",
          "type": "bytes[]"
        }
      ],
      "stateMutability": "nonpayable",
      "type": "function"
    },
    {
      "inputs": [],
      "name": "name",
      "outputs": [
        {
          "internalType": "string",
          "name": "",
          "type": "string"
        }
      ],
      "stateMutability": "view",
      "type": "function"
    },
    {
      "inputs": [],
      "name": "nextTokenId",
      "outputs": [
        {
          "internalType": "uint256",
          "name": "",
          "type": "uint256"
        }
      ],
      "stateMutability": "view",
      "type": "function"
    },
    {
      "inputs": [],
      "name": "owner",
      "outputs": [
        {
          "internalType": "address",
          "name": "",
          "type": "address"
        }
      ],
      "stateMutability": "view",
      "type": "function"
    },
    {
      "inputs": [
        {
          "internalType": "uint256",
          "name": "",
          "type": "uint256"
        },
        {
          "internalType": "address",
          "name": "",
          "type": "address"
        }
      ],
      "name": "permissions",
      "outputs": [
        {
          "internalType": "uint256",
          "name": "",
          "type": "uint256"
        }
      ],
      "stateMutability": "view",
      "type": "function"
    },
    {
      "inputs": [],
      "name": "proxiableUUID",
      "outputs": [
        {
          "internalType": "bytes32",
          "name": "",
          "type": "bytes32"
        }
      ],
      "stateMutability": "view",
      "type": "function"
    },
    {
      "inputs": [
        {
          "internalType": "uint256",
          "name": "tokenId",
          "type": "uint256"
        },
        {
          "internalType": "address",
          "name": "user",
          "type": "address"
        },
        {
          "internalType": "uint256",
          "name": "permissionBits",
          "type": "uint256"
        }
      ],
      "name": "removePermission",
      "outputs": [],
      "stateMutability": "nonpayable",
      "type": "function"
    },
    {
      "inputs": [
        {
          "internalType": "uint256",
          "name": "",
          "type": "uint256"
        }
      ],
      "name": "royalties",
      "outputs": [
        {
          "internalType": "uint32",
          "name": "royaltyMintSchedule",
          "type": "uint32"
        },
        {
          "internalType": "uint32",
          "name": "royaltyBPS",
          "type": "uint32"
        },
        {
          "internalType": "address",
          "name": "royaltyRecipient",
          "type": "address"
        }
      ],
      "stateMutability": "view",
      "type": "function"
    },
    {
      "inputs": [
        {
          "internalType": "uint256",
          "name": "tokenId",
          "type": "uint256"
        },
        {
          "internalType": "uint256",
          "name": "salePrice",
          "type": "uint256"
        }
      ],
      "name": "royaltyInfo",
      "outputs": [
        {
          "internalType": "address",
          "name": "receiver",
          "type": "address"
        },
        {
          "internalType": "uint256",
          "name": "royaltyAmount",
          "type": "uint256"
        }
      ],
      "stateMutability": "view",
      "type": "function"
    },
    {
      "inputs": [
        {
          "internalType": "address",
          "name": "from",
          "type": "address"
        },
        {
          "internalType": "address",
          "name": "to",
          "type": "address"
        },
        {
          "internalType": "uint256[]",
          "name": "ids",
          "type": "uint256[]"
        },
        {
          "internalType": "uint256[]",
          "name": "amounts",
          "type": "uint256[]"
        },
        {
          "internalType": "bytes",
          "name": "data",
          "type": "bytes"
        }
      ],
      "name": "safeBatchTransferFrom",
      "outputs": [],
      "stateMutability": "nonpayable",
      "type": "function"
    },
    {
      "inputs": [
        {
          "internalType": "address",
          "name": "from",
          "type": "address"
        },
        {
          "internalType": "address",
          "name": "to",
          "type": "address"
        },
        {
          "internalType": "uint256",
          "name": "id",
          "type": "uint256"
        },
        {
          "internalType": "uint256",
          "name": "amount",
          "type": "uint256"
        },
        {
          "internalType": "bytes",
          "name": "data",
          "type": "bytes"
        }
      ],
      "name": "safeTransferFrom",
      "outputs": [],
      "stateMutability": "nonpayable",
      "type": "function"
    },
    {
      "inputs": [
        {
          "internalType": "address",
          "name": "operator",
          "type": "address"
        },
        {
          "internalType": "bool",
          "name": "approved",
          "type": "bool"
        }
      ],
      "name": "setApprovalForAll",
      "outputs": [],
      "stateMutability": "nonpayable",
      "type": "function"
    },
    {
      "inputs": [
        {
          "internalType": "address payable",
          "name": "fundsRecipient",
          "type": "address"
        }
      ],
      "name": "setFundsRecipient",
      "outputs": [],
      "stateMutability": "nonpayable",
      "type": "function"
    },
    {
      "inputs": [
        {
          "internalType": "address",
          "name": "newOwner",
          "type": "address"
        }
      ],
      "name": "setOwner",
      "outputs": [],
      "stateMutability": "nonpayable",
      "type": "function"
    },
    {
      "inputs": [
        {
          "internalType": "uint256",
          "name": "tokenId",
          "type": "uint256"
        },
        {
          "internalType": "contract IRenderer1155",
          "name": "renderer",
          "type": "address"
        }
      ],
      "name": "setTokenMetadataRenderer",
      "outputs": [],
      "stateMutability": "nonpayable",
      "type": "function"
    },
    {
      "inputs": [
        {
          "internalType": "contract ITransferHookReceiver",
          "name": "transferHook",
          "type": "address"
        }
      ],
      "name": "setTransferHook",
      "outputs": [],
      "stateMutability": "nonpayable",
      "type": "function"
    },
    {
      "inputs": [
        {
          "internalType": "string",
          "name": "newURI",
          "type": "string"
        },
        {
          "internalType": "uint256",
          "name": "maxSupply",
          "type": "uint256"
        }
      ],
      "name": "setupNewToken",
      "outputs": [
        {
          "internalType": "uint256",
          "name": "",
          "type": "uint256"
        }
      ],
      "stateMutability": "nonpayable",
      "type": "function"
    },
    {
      "inputs": [
        {
          "internalType": "string",
          "name": "newURI",
          "type": "string"
        },
        {
          "internalType": "uint256",
          "name": "maxSupply",
          "type": "uint256"
        },
        {
          "internalType": "address",
          "name": "createReferral",
          "type": "address"
        }
      ],
      "name": "setupNewTokenWithCreateReferral",
      "outputs": [
        {
          "internalType": "uint256",
          "name": "",
          "type": "uint256"
        }
      ],
      "stateMutability": "nonpayable",
      "type": "function"
    },
    {
      "inputs": [
        {
          "internalType": "bytes4",
          "name": "interfaceId",
          "type": "bytes4"
        }
      ],
      "name": "supportsInterface",
      "outputs": [
        {
          "internalType": "bool",
          "name": "",
          "type": "bool"
        }
      ],
      "stateMutability": "view",
      "type": "function"
    },
    {
      "inputs": [],
      "name": "symbol",
      "outputs": [
        {
          "internalType": "string",
          "name": "",
          "type": "string"
        }
      ],
      "stateMutability": "pure",
      "type": "function"
    },
    {
      "inputs": [
        {
          "internalType": "string",
          "name": "_newURI",
          "type": "string"
        },
        {
          "internalType": "string",
          "name": "_newName",
          "type": "string"
        }
      ],
      "name": "updateContractMetadata",
      "outputs": [],
      "stateMutability": "nonpayable",
      "type": "function"
    },
    {
      "inputs": [
        {
          "internalType": "uint256",
          "name": "tokenId",
          "type": "uint256"
        },
        {
          "internalType": "address",
          "name": "recipient",
          "type": "address"
        }
      ],
      "name": "updateCreateReferral",
      "outputs": [],
      "stateMutability": "nonpayable",
      "type": "function"
    },
    {
      "inputs": [
        {
          "internalType": "uint256",
          "name": "tokenId",
          "type": "uint256"
        },
        {
          "components": [
            {
              "internalType": "uint32",
              "name": "royaltyMintSchedule",
              "type": "uint32"
            },
            {
              "internalType": "uint32",
              "name": "royaltyBPS",
              "type": "uint32"
            },
            {
              "internalType": "address",
              "name": "royaltyRecipient",
              "type": "address"
            }
          ],
          "internalType": "struct ICreatorRoyaltiesControl.RoyaltyConfiguration",
          "name": "newConfiguration",
          "type": "tuple"
        }
      ],
      "name": "updateRoyaltiesForToken",
      "outputs": [],
      "stateMutability": "nonpayable",
      "type": "function"
    },
    {
      "inputs": [
        {
          "internalType": "uint256",
          "name": "tokenId",
          "type": "uint256"
        },
        {
          "internalType": "string",
          "name": "_newURI",
          "type": "string"
        }
      ],
      "name": "updateTokenURI",
      "outputs": [],
      "stateMutability": "nonpayable",
      "type": "function"
    },
    {
      "inputs": [
        {
          "internalType": "address",
          "name": "newImplementation",
          "type": "address"
        }
      ],
      "name": "upgradeTo",
      "outputs": [],
      "stateMutability": "nonpayable",
      "type": "function"
    },
    {
      "inputs": [
        {
          "internalType": "address",
          "name": "newImplementation",
          "type": "address"
        },
        {
          "internalType": "bytes",
          "name": "data",
          "type": "bytes"
        }
      ],
      "name": "upgradeToAndCall",
      "outputs": [],
      "stateMutability": "payable",
      "type": "function"
    },
    {
      "inputs": [
        {
          "internalType": "uint256",
          "name": "tokenId",
          "type": "uint256"
        }
      ],
      "name": "uri",
      "outputs": [
        {
          "internalType": "string",
          "name": "",
          "type": "string"
        }
      ],
      "stateMutability": "view",
      "type": "function"
    },
    {
      "inputs": [],
      "name": "withdraw",
      "outputs": [],
      "stateMutability": "nonpayable",
      "type": "function"
    },
    {
      "inputs": [
        {
          "internalType": "address",
          "name": "to",
          "type": "address"
        },
        {
          "internalType": "uint256",
          "name": "amount",
          "type": "uint256"
        }
      ],
      "name": "withdrawRewards",
      "outputs": [],
      "stateMutability": "nonpayable",
      "type": "function"
    }
  ],
  "bytecode": {
    "object": "0x6101206040523073ffffffffffffffffffffffffffffffffffffffff1660809073ffffffffffffffffffffffffffffffffffffffff1681525061271060a0908152503480156200004e57600080fd5b506040516200ab583803806200ab58833981810160405281019062000074919062000392565b80838181600073ffffffffffffffffffffffffffffffffffffffff168273ffffffffffffffffffffffffffffffffffffffff161480620000e05750600073ffffffffffffffffffffffffffffffffffffffff168173ffffffffffffffffffffffffffffffffffffffff16145b1562000118576040517f2d87658900000000000000000000000000000000000000000000000000000000815260040160405180910390fd5b8173ffffffffffffffffffffffffffffffffffffffff1660e08173ffffffffffffffffffffffffffffffffffffffff16815250508073ffffffffffffffffffffffffffffffffffffffff1660c08173ffffffffffffffffffffffffffffffffffffffff16815250505050505060008060019054906101000a900460ff16159050801580620001b8575060008060009054906101000a900460ff1660ff1614155b8015620001f45750620001d6306200030560201b620039651760201c565b80620001f35750600160008054906101000a900460ff1660ff1614155b5b156200022c576040517f7ab8448200000000000000000000000000000000000000000000000000000000815260040160405180910390fd5b60016000806101000a81548160ff021916908360ff16021790555080156200026a576001600060016101000a81548160ff0219169083151502179055505b8273ffffffffffffffffffffffffffffffffffffffff166101008173ffffffffffffffffffffffffffffffffffffffff16815250508015620002fb5760008060016101000a81548160ff0219169083151502179055507f7f26b83ff96e1f2b6a682f133852f6798a09c465da95921460cefb38474024986001604051620002f2919062000448565b60405180910390a15b5050505062000465565b6000808273ffffffffffffffffffffffffffffffffffffffff163b119050919050565b600080fd5b600073ffffffffffffffffffffffffffffffffffffffff82169050919050565b60006200035a826200032d565b9050919050565b6200036c816200034d565b81146200037857600080fd5b50565b6000815190506200038c8162000361565b92915050565b600080600060608486031215620003ae57620003ad62000328565b5b6000620003be868287016200037b565b9350506020620003d1868287016200037b565b9250506040620003e4868287016200037b565b9150509250925092565b6000819050919050565b600060ff82169050919050565b6000819050919050565b6000620004306200042a6200042484620003ee565b62000405565b620003f8565b9050919050565b62000442816200040f565b82525050565b60006020820190506200045f600083018462000437565b92915050565b60805160a05160c05160e0516101005161a661620004f7600039600061423d0152600081816132b001528181615e610152615ff9015260008181615de501528181615e3d01528181615eb601528181615f7d01528181615fd5015261604b0152600061143801526000818161154c015281816115d10152818161189c0152818161192101526119c8015261a6616000f3fe6080604052600436106102f35760003560e01c8062fdd58e146102f8578063011442011461033557806301ffc9a71461036057806306fdde031461039d5780630e89341c146103c857806310a7eb5d1461040557806313966db51461042e57806313af40351461045957806317bd48bb1461048257806318711c7d146104ab57806318e97fd1146104d657806323bd0386146104ff5780632a55205a1461053c5780632eb2c2d61461057a578063300ecdb9146105a35780633659cfe6146105e05780633ccfd60b146106095780634132239b146106205780634e1273f41461065d5780634f1ef2861461069a57806352d1902d146106b65780635638ecb5146106e15780635c0460841461071e5780635c60da1b1461075b5780635d0f6cba146107865780635e4e0404146107af5780636661a9ba146107ec578063674cbae61461081557806369a5b302146108525780636b20c4541461088f578063722933f7146108b8578063731133e9146108f557806375794a3c1461091157806379502c551461093c5780637dafae4d1461096c5780637f2dc61c146109a95780637f77f574146109d25780638a08eb4c14610a115780638c7a63ae14610a3a5780638da5cb5b14610a775780638ec998a014610aa2578063929a712814610acb57806395d89b4114610af65780639c5c63c914610b215780639dbb844d14610b4a5780639ebb832414610b66578063a0a8e46014610ba3578063a22cb46514610bce578063a453eaf014610bf7578063ac9650d814610c22578063afed7e9e14610c5f578063bb3bafd614610c88578063bdd864f214610cc5578063c046435614610d02578063c238d1ee14610d2d578063d1ad846b14610d56578063d258609a14610d7f578063d6ef7af014610dbc578063d904b94a14610de5578063dd15e05f14610e0e578063e72878b414610e4b578063e74d86c214610e74578063e8a3d48514610eb1578063e985e9c514610edc578063ef71c82e14610f19578063f1b0d6bb14610f42578063f242432a14610f6d575b600080fd5b34801561030457600080fd5b5061031f600480360381019061031a9190616c68565b610f96565b60405161032c9190616cb7565b60405180910390f35b34801561034157600080fd5b5061034a611056565b6040516103579190616cb7565b60405180910390f35b34801561036c57600080fd5b5061038760048036038101906103829190616d2a565b61105b565b6040516103949190616d72565b60405180910390f35b3480156103a957600080fd5b506103b26110e5565b6040516103bf9190616e1d565b60405180910390f35b3480156103d457600080fd5b506103ef60048036038101906103ea9190616e3f565b611178565b6040516103fc9190616e1d565b60405180910390f35b34801561041157600080fd5b5061042c60048036038101906104279190616eaa565b61125e565b005b34801561043a57600080fd5b5061044361127b565b6040516104509190616cb7565b60405180910390f35b34801561046557600080fd5b50610480600480360381019061047b9190616ed7565b61128a565b005b34801561048e57600080fd5b506104a960048036038101906104a49190616f04565b6112e6565b005b3480156104b757600080fd5b506104c061138d565b6040516104cd9190616cb7565b60405180910390f35b3480156104e257600080fd5b506104fd60048036038101906104f89190617079565b611392565b005b34801561050b57600080fd5b50610526600480360381019061052191906170d5565b611410565b6040516105339190616d72565b60405180910390f35b34801561054857600080fd5b50610563600480360381019061055e9190617128565b611426565b604051610571929190617177565b60405180910390f35b34801561058657600080fd5b506105a1600480360381019061059c9190617309565b611488565b005b3480156105af57600080fd5b506105ca60048036038101906105c59190616f04565b611524565b6040516105d79190616cb7565b60405180910390f35b3480156105ec57600080fd5b5061060760048036038101906106029190616ed7565b61154a565b005b34801561061557600080fd5b5061061e6116c0565b005b34801561062c57600080fd5b5061064760048036038101906106429190616e3f565b611776565b6040516106549190616cb7565b60405180910390f35b34801561066957600080fd5b50610684600480360381019061067f919061749b565b611792565b60405161069191906175d1565b60405180910390f35b6106b460048036038101906106af91906175f3565b61189a565b005b3480156106c257600080fd5b506106cb6119c4565b6040516106d89190617668565b60405180910390f35b3480156106ed57600080fd5b5061070860048036038101906107039190617702565b611a74565b6040516107159190616cb7565b60405180910390f35b34801561072a57600080fd5b5061074560048036038101906107409190616e3f565b611e47565b60405161075291906177fa565b60405180910390f35b34801561076757600080fd5b50610770611ec2565b60405161077d9190617815565b60405180910390f35b34801561079257600080fd5b506107ad60048036038101906107a89190617830565b611ed1565b005b3480156107bb57600080fd5b506107d660048036038101906107d19190616e3f565b611f74565b6040516107e39190617815565b60405180910390f35b3480156107f857600080fd5b50610813600480360381019061080e91906178c1565b612056565b005b34801561082157600080fd5b5061083c60048036038101906108379190617957565b6120ff565b6040516108499190616cb7565b60405180910390f35b34801561085e57600080fd5b5061087960048036038101906108749190616e3f565b612149565b6040516108869190617815565b60405180910390f35b34801561089b57600080fd5b506108b660048036038101906108b19190617a21565b61217d565b005b3480156108c457600080fd5b506108df60048036038101906108da9190616e3f565b612298565b6040516108ec91906177fa565b60405180910390f35b61090f600480360381019061090a9190617af4565b612324565b005b34801561091d57600080fd5b506109266124cc565b6040516109339190616cb7565b60405180910390f35b34801561094857600080fd5b506109516124d3565b60405161096396959493929190617c11565b60405180910390f35b34801561097857600080fd5b50610993600480360381019061098e9190616e3f565b6125a6565b6040516109a09190617815565b60405180910390f35b3480156109b557600080fd5b506109d060048036038101906109cb9190617cb0565b6125da565b005b3480156109de57600080fd5b506109f960048036038101906109f49190616e3f565b6127a2565b604051610a0893929190617cfc565b60405180910390f35b348015610a1d57600080fd5b50610a386004803603810190610a339190617e23565b61280d565b005b348015610a4657600080fd5b50610a616004803603810190610a5c9190616e3f565b6129bb565b604051610a6e9190617f8f565b60405180910390f35b348015610a8357600080fd5b50610a8c612a8f565b604051610a999190617815565b60405180910390f35b348015610aae57600080fd5b50610ac96004803603810190610ac49190617830565b612abd565b005b348015610ad757600080fd5b50610ae0612ad9565b604051610aed9190616cb7565b60405180910390f35b348015610b0257600080fd5b50610b0b612ade565b604051610b189190616e1d565b60405180910390f35b348015610b2d57600080fd5b50610b486004803603810190610b439190617fb1565b612ae3565b005b610b646004803603810190610b5f919061800d565b612bb2565b005b348015610b7257600080fd5b50610b8d6004803603810190610b889190616e3f565b612d5a565b604051610b9a9190617815565b60405180910390f35b348015610baf57600080fd5b50610bb8612d8e565b604051610bc59190616e1d565b60405180910390f35b348015610bda57600080fd5b50610bf56004803603810190610bf091906180d3565b612dcb565b005b348015610c0357600080fd5b50610c0c612de1565b604051610c199190616cb7565b60405180910390f35b348015610c2e57600080fd5b50610c496004803603810190610c449190618113565b612de6565b604051610c569190618277565b60405180910390f35b348015610c6b57600080fd5b50610c866004803603810190610c819190618299565b612ef2565b005b348015610c9457600080fd5b50610caf6004803603810190610caa9190616e3f565b612f10565b604051610cbc9190618339565b60405180910390f35b348015610cd157600080fd5b50610cec6004803603810190610ce79190618354565b613114565b604051610cf99190616cb7565b60405180910390f35b348015610d0e57600080fd5b50610d1761312d565b604051610d249190616cb7565b60405180910390f35b348015610d3957600080fd5b50610d546004803603810190610d4f9190618381565b613132565b005b348015610d6257600080fd5b50610d7d6004803603810190610d789190618404565b613164565b005b348015610d8b57600080fd5b50610da66004803603810190610da191906184bf565b6131e2565b604051610db39190616cb7565b60405180910390f35b348015610dc857600080fd5b50610de36004803603810190610dde9190616c68565b613221565b005b348015610df157600080fd5b50610e0c6004803603810190610e07919061851f565b613387565b005b348015610e1a57600080fd5b50610e356004803603810190610e309190616e3f565b613599565b604051610e4291906185b4565b60405180910390f35b348015610e5757600080fd5b50610e726004803603810190610e6d9190616e3f565b6135cd565b005b348015610e8057600080fd5b50610e9b6004803603810190610e969190616e3f565b613622565b604051610ea891906185b4565b60405180910390f35b348015610ebd57600080fd5b50610ec66136cc565b604051610ed39190616e1d565b60405180910390f35b348015610ee857600080fd5b50610f036004803603810190610efe91906185cf565b61379d565b604051610f109190616d72565b60405180910390f35b348015610f2557600080fd5b50610f406004803603810190610f3b919061860f565b613831565b005b348015610f4e57600080fd5b50610f576138c4565b604051610f649190616cb7565b60405180910390f35b348015610f7957600080fd5b50610f946004803603810190610f8f9190618687565b6138c9565b005b60008073ffffffffffffffffffffffffffffffffffffffff168373ffffffffffffffffffffffffffffffffffffffff1603610ffd576040517f8620cc3400000000000000000000000000000000000000000000000000000000815260040160405180910390fd5b6097600083815260200190815260200160002060008473ffffffffffffffffffffffffffffffffffffffff1673ffffffffffffffffffffffffffffffffffffffff16815260200190815260200160002054905092915050565b600081565b600061106682613988565b806110ce57507f6c8e4b16000000000000000000000000000000000000000000000000000000007bffffffffffffffffffffffffffffffffffffffffffffffffffffffff1916827bffffffffffffffffffffffffffffffffffffffffffffffffffffffff1916145b806110de57506110dd826139f2565b5b9050919050565b606061019380546110f59061874d565b80601f01602080910402602001604051908101604052809291908181526020018280546111219061874d565b801561116e5780601f106111435761010080835404028352916020019161116e565b820191906000526020600020905b81548152906001019060200180831161115157829003601f168201915b5050505050905090565b606060006101c66000848152602001908152602001600020600001805461119e9061874d565b9050111561124d576101c6600083815260200190815260200160002060000180546111c89061874d565b80601f01602080910402602001604051908101604052809291908181526020018280546111f49061874d565b80156112415780601f1061121657610100808354040283529160200191611241565b820191906000526020600020905b81548152906001019060200180831161122457829003601f168201915b50505050509050611259565b61125682613ad4565b90505b919050565b6000602061126d338383613b64565b61127683613bd2565b505050565b60006602c2ad68fd9000905090565b60006112963382613c7e565b6112a36000836002613ce8565b6112d9576040517f98ee9d3800000000000000000000000000000000000000000000000000000000815260040160405180910390fd5b6112e282613d49565b5050565b610231600083815260200190815260200160002060009054906101000a900473ffffffffffffffffffffffffffffffffffffffff1673ffffffffffffffffffffffffffffffffffffffff163373ffffffffffffffffffffffffffffffffffffffff161461137f576040517f2afb0ecf00000000000000000000000000000000000000000000000000000000815260040160405180910390fd5b6113898282613e5a565b5050565b600881565b8160106113a0338383613b64565b600084036113ad57600080fd5b837f6bb7ff708619ba0610cba295a58592e0451dee2622938c8755667688daf3529b846040516113dd9190616e1d565b60405180910390a2826101c6600086815260200190815260200160002060000190816114099190618920565b5050505050565b600061141d848484613eb1565b90509392505050565b600080600061143485612f10565b90507f000000000000000000000000000000000000000000000000000000000000000084826020015163ffffffff1661146d9190618a21565b6114779190618a92565b915080604001519250509250929050565b611490613eca565b73ffffffffffffffffffffffffffffffffffffffff168573ffffffffffffffffffffffffffffffffffffffff16141580156114d957506114d7856114d2613eca565b61379d565b155b15611510576040517ff8ba805400000000000000000000000000000000000000000000000000000000815260040160405180910390fd5b61151d8585858585613ed2565b5050505050565b6101fe602052816000526040600020602052806000526040600020600091509150505481565b7f000000000000000000000000000000000000000000000000000000000000000073ffffffffffffffffffffffffffffffffffffffff163073ffffffffffffffffffffffffffffffffffffffff16036115cf576040517f1932df4500000000000000000000000000000000000000000000000000000000815260040160405180910390fd5b7f000000000000000000000000000000000000000000000000000000000000000073ffffffffffffffffffffffffffffffffffffffff1661160e6141d8565b73ffffffffffffffffffffffffffffffffffffffff161461165b576040517f64cd8d1900000000000000000000000000000000000000000000000000000000815260040160405180910390fd5b6116648161422f565b6116bd81600067ffffffffffffffff81111561168357611682616f4e565b5b6040519080825280601f01601f1916602001820160405280156116b55781602001600182028036833780820191505090505b5060006142eb565b50565b600060206116cf338383613b64565b60004790506117086101c960010160009054906101000a900473ffffffffffffffffffffffffffffffffffffffff16826204baf0614447565b611771576101c960010160009054906101000a900473ffffffffffffffffffffffffffffffffffffffff16816040517fa489930c000000000000000000000000000000000000000000000000000000008152600401611768929190618ae4565b60405180910390fd5b505050565b60006602c2ad68fd90008261178b9190618a21565b9050919050565b6060600083519050825181146117d4576040517f4ce4cfdc00000000000000000000000000000000000000000000000000000000815260040160405180910390fd5b8067ffffffffffffffff8111156117ee576117ed616f4e565b5b60405190808252806020026020018201604052801561181c5781602001602082028036833780820191505090505b50915060005b81811015611892576118688582815181106118405761183f618b0d565b5b602002602001015185838151811061185b5761185a618b0d565b5b6020026020010151610f96565b83828151811061187b5761187a618b0d565b5b602002602001018181525050806001019050611822565b505092915050565b7f000000000000000000000000000000000000000000000000000000000000000073ffffffffffffffffffffffffffffffffffffffff163073ffffffffffffffffffffffffffffffffffffffff160361191f576040517f1932df4500000000000000000000000000000000000000000000000000000000815260040160405180910390fd5b7f000000000000000000000000000000000000000000000000000000000000000073ffffffffffffffffffffffffffffffffffffffff1661195e6141d8565b73ffffffffffffffffffffffffffffffffffffffff16146119ab576040517f64cd8d1900000000000000000000000000000000000000000000000000000000815260040160405180910390fd5b6119b48261422f565b6119c0828260016142eb565b5050565b60007f000000000000000000000000000000000000000000000000000000000000000073ffffffffffffffffffffffffffffffffffffffff163073ffffffffffffffffffffffffffffffffffffffff1614611a4b576040517f5e4c25f100000000000000000000000000000000000000000000000000000000815260040160405180910390fd5b7f360894a13ba1a3210667c828492db98dca3e2076cc3735a920a3ca505d382bbc60001b905090565b6000611a7e6144bf565b60006102336000876020016020810190611a989190618354565b63ffffffff1663ffffffff1681526020019081526020016000205414611af2576102336000866020016020810190611ad09190618354565b63ffffffff1663ffffffff168152602001908152602001600020549050611e37565b611afb8561450e565b600073__$3f3302c75789e2197206cbb897aeac1c1e$__63c77f6a35876040518263ffffffff1660e01b8152600401611b349190618f14565b602060405180830381865af4158015611b51573d6000803e3d6000fd5b505050506040513d601f19601f82011682018060405250810190611b759190618f62565b9050600073__$3f3302c75789e2197206cbb897aeac1c1e$__635bc32e4183888830466040518663ffffffff1660e01b8152600401611bb8959493929190618ffa565b602060405180830381865af4158015611bd5573d6000803e3d6000fd5b505050506040513d601f19601f82011682018060405250810190611bf9919061905d565b90507f06c5a80e592816bd4f60093568e69affa68b5e378a189b2f59a1121703de47de826040518060400160405280600981526020017f5072656d696e74657200000000000000000000000000000000000000000000008152506040518060400160405280600181526020017f3100000000000000000000000000000000000000000000000000000000000000815250848a8a604051611c9e969594939291906190c8565b60405180910390a1611cb38160006004613b64565b611cf1878060000190611cc69190619141565b8060000190611cd5919061916a565b898060000190611ce59190619141565b602001353360026145f8565b9250826102336000896020016020810190611d0c9190618354565b63ffffffff1663ffffffff1681526020019081526020016000208190555083610232600085815260200190815260200160002060006101000a81548173ffffffffffffffffffffffffffffffffffffffff021916908373ffffffffffffffffffffffffffffffffffffffff160217905550600073__$120d765bc358e089111ec05609e28fb35a$__6303d662aa85848b8060000190611dab9190619141565b6040518463ffffffff1660e01b8152600401611dc9939291906192f9565b600060405180830381865af4158015611de6573d6000803e3d6000fd5b505050506040513d6000823e3d601f19601f82011682018060405250810190611e0f9190619488565b9050611e1a816146fd565b50611e27843360026147b7565b611e33848360026148b4565b5050505b611e3f6149b0565b949350505050565b611e4f616b2d565b6040518060a001604052806000815260200165c9e86723e00084611e739190618a21565b815260200165c9e86723e00084611e8a9190618a21565b81526020016564f43391f00084611ea19190618a21565b815260200165c9e86723e00084611eb89190618a21565b8152509050919050565b6000611ecc6141d8565b905090565b82611edc3382613c7e565b611ee78484846147b7565b600084148015611f4857506101c960000160009054906101000a900473ffffffffffffffffffffffffffffffffffffffff1673ffffffffffffffffffffffffffffffffffffffff168373ffffffffffffffffffffffffffffffffffffffff16145b8015611f5e5750611f5c6000846002613ce8565b155b15611f6e57611f6d6000613d49565b5b50505050565b600080611f8083612f10565b604001519050600073ffffffffffffffffffffffffffffffffffffffff168173ffffffffffffffffffffffffffffffffffffffff1614611fc35780915050612051565b600073ffffffffffffffffffffffffffffffffffffffff166101c960010160009054906101000a900473ffffffffffffffffffffffffffffffffffffffff1673ffffffffffffffffffffffffffffffffffffffff161461204c576101c960010160009054906101000a900473ffffffffffffffffffffffffffffffffffffffff16915050612051565b309150505b919050565b61205e6144bf565b81601061206c338383613b64565b61207684846149ba565b600084036120ba577f56e810c8cae84731149f628981d25769a084570b9ba6eebf3c32879e3dce5609836040516120ad91906185b4565b60405180910390a16120f1565b837f6bb7ff708619ba0610cba295a58592e0451dee2622938c8755667688daf3529b6040516120e8906194f7565b60405180910390a25b50506120fb6149b0565b5050565b600080600461210f338383613b64565b6121176144bf565b60006121278888883360026145f8565b90506121338186613e5a565b8093505061213f6149b0565b5050949350505050565b6101c76020528060005260406000206000915054906101000a900473ffffffffffffffffffffffffffffffffffffffff1681565b3373ffffffffffffffffffffffffffffffffffffffff168573ffffffffffffffffffffffffffffffffffffffff16141580156121c057506121be853361379d565b155b156122045733856040517f839c23f20000000000000000000000000000000000000000000000000000000081526004016121fb929190619517565b60405180910390fd5b61229185858580806020026020016040519081016040528093929190818152602001838360200280828437600081840152601f19601f82011690508083019250505050505050848480806020026020016040519081016040528093929190818152602001838360200280828437600081840152601f19601f82011690508083019250505050505050614b7c565b5050505050565b6122a0616b2d565b6040518060a0016040528066012edc9ab5d000846122be9190618a21565b81526020016564f43391f000846122d59190618a21565b81526020016564f43391f000846122ec9190618a21565b81526020016564f43391f000846123039190618a21565b81526020016564f43391f0008461231a9190618a21565b8152509050919050565b61232c6144bf565b61233885856004613b64565b60006123b9348561234888611f74565b61023160008a815260200190815260200160002060009054906101000a900473ffffffffffffffffffffffffffffffffffffffff16600061023260008c815260200190815260200160002060009054906101000a900473ffffffffffffffffffffffffffffffffffffffff16614e2c565b90506124548673ffffffffffffffffffffffffffffffffffffffff16636890e5b33388888689896040518763ffffffff1660e01b815260040161240196959493929190619540565b6000604051808303816000875af1158015612420573d6000803e3d6000fd5b505050506040513d6000823e3d601f19601f82011682018060405250810190612449919061978f565b600001518287614ee9565b848673ffffffffffffffffffffffffffffffffffffffff163373ffffffffffffffffffffffffffffffffffffffff167fb362243af1e2070d7d5bf8d713f2e0fab64203f1b71462afbe20572909788c5e87346040516124b49291906197d8565b60405180910390a4506124c56149b0565b5050505050565b6101c85481565b6101c98060000160009054906101000a900473ffffffffffffffffffffffffffffffffffffffff16908060000160149054906101000a90046bffffffffffffffffffffffff16908060010160009054906101000a900473ffffffffffffffffffffffffffffffffffffffff16908060010160149054906101000a90046bffffffffffffffffffffffff16908060020160009054906101000a900473ffffffffffffffffffffffffffffffffffffffff16908060020160149054906101000a90046bffffffffffffffffffffffff16905086565b6102316020528060005260406000206000915054906101000a900473ffffffffffffffffffffffffffffffffffffffff1681565b60006125e63382613c7e565b600073ffffffffffffffffffffffffffffffffffffffff168273ffffffffffffffffffffffffffffffffffffffff16146126f6578173ffffffffffffffffffffffffffffffffffffffff166301ffc9a77f024755e0000000000000000000000000000000000000000000000000000000006040518263ffffffff1660e01b81526004016126739190619810565b602060405180830381865afa158015612690573d6000803e3d6000fd5b505050506040513d601f19601f820116820180604052508101906126b49190619840565b6126f557816040517f17ce95600000000000000000000000000000000000000000000000000000000081526004016126ec9190617815565b60405180910390fd5b5b816101c960020160006101000a81548173ffffffffffffffffffffffffffffffffffffffff021916908373ffffffffffffffffffffffffffffffffffffffff16021790555060028081111561274e5761274d61986d565b5b3373ffffffffffffffffffffffffffffffffffffffff167f3be6d3a1d957610f7e900c66889b874cdc9f0c22901aa8be6ec3d2d04c14ca0f6101c96040516127969190619a6d565b60405180910390a35050565b6101606020528060005260406000206000915090508060000160009054906101000a900463ffffffff16908060000160049054906101000a900463ffffffff16908060000160089054906101000a900473ffffffffffffffffffffffffffffffffffffffff16905083565b6128156144bf565b60008060019054906101000a900460ff16159050801580612848575060008060009054906101000a900460ff1660ff1614155b8015612875575061285830613965565b806128745750600160008054906101000a900460ff1660ff1614155b5b156128ac576040517f7ab8448200000000000000000000000000000000000000000000000000000000815260040160405180910390fd5b60016000806101000a81548160ff021916908360ff16021790555080156128e9576001600060016101000a81548160ff0219169083151502179055505b6128f16150ef565b6128f9615137565b612904848787615187565b61290d84613d49565b61291684613bd2565b61291f876151b0565b60008383905011156129515761293860003360026148b4565b6129428383612de6565b5061295060003360026147b7565b5b80156129aa5760008060016101000a81548160ff0219169083151502179055507f7f26b83ff96e1f2b6a682f133852f6798a09c465da95921460cefb384740249860016040516129a19190619ad0565b60405180910390a15b506129b36149b0565b505050505050565b6129c3616b5c565b6101c660008381526020019081526020016000206040518060600160405290816000820180546129f29061874d565b80601f0160208091040260200160405190810160405280929190818152602001828054612a1e9061874d565b8015612a6b5780601f10612a4057610100808354040283529160200191612a6b565b820191906000526020600020905b815481529060010190602001808311612a4e57829003601f168201915b50505050508152602001600182015481526020016002820154815250509050919050565b60006101c960000160009054906101000a900473ffffffffffffffffffffffffffffffffffffffff16905090565b82612ac83382613c7e565b612ad38484846148b4565b50505050565b602081565b606090565b816010612af1338383613b64565b600080612afd86613622565b73ffffffffffffffffffffffffffffffffffffffff1685604051612b219190619b27565b6000604051808303816000865af19150503d8060008114612b5e576040519150601f19603f3d011682016040523d82523d6000602084013e612b63565b606091505b509150915081612baa57806040517fa5fa8d2b000000000000000000000000000000000000000000000000000000008152600401612ba19190619b77565b60405180910390fd5b505050505050565b612bba6144bf565b612bc686866004613b64565b6000612c463486612bd689611f74565b61023160008b815260200190815260200160002060009054906101000a900473ffffffffffffffffffffffffffffffffffffffff168661023260008d815260200190815260200160002060009054906101000a900473ffffffffffffffffffffffffffffffffffffffff16614e2c565b9050612ce18773ffffffffffffffffffffffffffffffffffffffff16636890e5b3338989868a8a6040518763ffffffff1660e01b8152600401612c8e96959493929190619540565b6000604051808303816000875af1158015612cad573d6000803e3d6000fd5b505050506040513d6000823e3d601f19601f82011682018060405250810190612cd6919061978f565b600001518288614ee9565b858773ffffffffffffffffffffffffffffffffffffffff163373ffffffffffffffffffffffffffffffffffffffff167fb362243af1e2070d7d5bf8d713f2e0fab64203f1b71462afbe20572909788c5e8834604051612d419291906197d8565b60405180910390a450612d526149b0565b505050505050565b6102326020528060005260406000206000915054906101000a900473ffffffffffffffffffffffffffffffffffffffff1681565b60606040518060400160405280600581526020017f322e332e30000000000000000000000000000000000000000000000000000000815250905090565b612ddd612dd6613eca565b83836151c4565b5050565b601081565b60608282905067ffffffffffffffff811115612e0557612e04616f4e565b5b604051908082528060200260200182016040528015612e3857816020015b6060815260200190600190039081612e235790505b50905060005b83839050811015612eeb57612eba30858584818110612e6057612e5f618b0d565b5b9050602002810190612e729190619b99565b8080601f016020809104026020016040519081016040528093929190818152602001838380828437600081840152601f19601f82011690508083019250505050505050615327565b828281518110612ecd57612ecc618b0d565b5b60200260200101819052508080612ee390619bfc565b915050612e3e565b5092915050565b816020612f00338383613b64565b612f0a8484615354565b50505050565b612f18616b7d565b600073ffffffffffffffffffffffffffffffffffffffff16610160600084815260200190815260200160002060000160089054906101000a900473ffffffffffffffffffffffffffffffffffffffff1673ffffffffffffffffffffffffffffffffffffffff161461304b5761016060008381526020019081526020016000206040518060600160405290816000820160009054906101000a900463ffffffff1663ffffffff1663ffffffff1681526020016000820160049054906101000a900463ffffffff1663ffffffff1663ffffffff1681526020016000820160089054906101000a900473ffffffffffffffffffffffffffffffffffffffff1673ffffffffffffffffffffffffffffffffffffffff1673ffffffffffffffffffffffffffffffffffffffff1681525050905061310f565b61016060008081526020019081526020016000206040518060600160405290816000820160009054906101000a900463ffffffff1663ffffffff1663ffffffff1681526020016000820160049054906101000a900463ffffffff1663ffffffff1663ffffffff1681526020016000820160089054906101000a900473ffffffffffffffffffffffffffffffffffffffff1673ffffffffffffffffffffffffffffffffffffffff1673ffffffffffffffffffffffffffffffffffffffff168152505090505b919050565b6102336020528060005260406000206000915090505481565b600281565b61313a6144bf565b826004613148338383613b64565b61315486868686615519565b505061315e6149b0565b50505050565b61316c6144bf565b600061317b3360006004613eb1565b905060005b84518110156131c657816131b5576131b4338683815181106131a5576131a4618b0d565b5b60200260200101516004613b64565b5b806131bf90619bfc565b9050613180565b506131d385858585615563565b506131dc6149b0565b50505050565b60008060046131f2338383613b64565b6131fa6144bf565b600061320a8787873360026145f8565b9050809350506132186149b0565b50509392505050565b60006020613230338383613b64565b600063f3fef3a360e01b858560405160240161324d929190617177565b604051602081830303815290604052907bffffffffffffffffffffffffffffffffffffffffffffffffffffffff19166020820180517bffffffffffffffffffffffffffffffffffffffffffffffffffffffff8381831617835250505050905060007f000000000000000000000000000000000000000000000000000000000000000073ffffffffffffffffffffffffffffffffffffffff16826040516132f39190619b27565b6000604051808303816000865af19150503d8060008114613330576040519150601f19603f3d011682016040523d82523d6000602084013e613335565b606091505b505090508061337f573386866040517f424cf2e300000000000000000000000000000000000000000000000000000000815260040161337693929190619c44565b60405180910390fd5b505050505050565b836008613395338383613b64565b6133a185876004613b64565b8473ffffffffffffffffffffffffffffffffffffffff166301ffc9a77f6890e5b3000000000000000000000000000000000000000000000000000000006040518263ffffffff1660e01b81526004016133fa9190619810565b602060405180830381865afa158015613417573d6000803e3d6000fd5b505050506040513d601f19601f8201168201806040525081019061343b9190619840565b61347c57846040517fe15b8e060000000000000000000000000000000000000000000000000000000081526004016134739190617815565b60405180910390fd5b6000848460049060249261349293929190619c85565b9061349d9190619ccb565b60001c90508681146134db576040517ffe486c2b00000000000000000000000000000000000000000000000000000000815260040160405180910390fd5b6000808773ffffffffffffffffffffffffffffffffffffffff168787604051613505929190619d4f565b6000604051808303816000865af19150503d8060008114613542576040519150601f19603f3d011682016040523d82523d6000602084013e613547565b606091505b50915091508161358e57806040517fa5fa8d2b0000000000000000000000000000000000000000000000000000000081526004016135859190619b77565b60405180910390fd5b505050505050505050565b61012d6020528060005260406000206000915054906101000a900473ffffffffffffffffffffffffffffffffffffffff1681565b8060016101c854031461361f578060016101c854036040517f4fa09b3f0000000000000000000000000000000000000000000000000000000081526004016136169291906197d8565b60405180910390fd5b50565b600061012d600083815260200190815260200160002060009054906101000a900473ffffffffffffffffffffffffffffffffffffffff169050600073ffffffffffffffffffffffffffffffffffffffff168173ffffffffffffffffffffffffffffffffffffffff16036136c75761012d600080815260200190815260200160002060009054906101000a900473ffffffffffffffffffffffffffffffffffffffff1690505b919050565b606060006136da6000613622565b9050600073ffffffffffffffffffffffffffffffffffffffff168173ffffffffffffffffffffffffffffffffffffffff161461378c578073ffffffffffffffffffffffffffffffffffffffff1663e8a3d4856040518163ffffffff1660e01b8152600401600060405180830381865afa15801561375b573d6000803e3d6000fd5b505050506040513d6000823e3d601f19601f820116820180604052508101906137849190619dd8565b91505061379a565b6137966000611178565b9150505b90565b6000609860008473ffffffffffffffffffffffffffffffffffffffff1673ffffffffffffffffffffffffffffffffffffffff16815260200190815260200160002060008373ffffffffffffffffffffffffffffffffffffffff1673ffffffffffffffffffffffffffffffffffffffff16815260200190815260200160002060009054906101000a900460ff16905092915050565b60006010613840338383613b64565b836101c6600080815260200190815260200160002060000190816138649190618920565b5061386e836151b0565b3373ffffffffffffffffffffffffffffffffffffffff167f74b7c2afa3f89c562b59674a101e2c48bceeb27cdb620afefa14446f1ffa487b85856040516138b6929190619e21565b60405180910390a250505050565b600481565b6138d1613eca565b73ffffffffffffffffffffffffffffffffffffffff168573ffffffffffffffffffffffffffffffffffffffff161415801561391a575061391885613913613eca565b61379d565b155b15613951576040517ff8ba805400000000000000000000000000000000000000000000000000000000815260040160405180910390fd5b61395e8585858585615639565b5050505050565b6000808273ffffffffffffffffffffffffffffffffffffffff163b119050919050565b60007f2a55205a000000000000000000000000000000000000000000000000000000007bffffffffffffffffffffffffffffffffffffffffffffffffffffffff1916827bffffffffffffffffffffffffffffffffffffffffffffffffffffffff1916149050919050565b60007fd9b67a26000000000000000000000000000000000000000000000000000000007bffffffffffffffffffffffffffffffffffffffffffffffffffffffff1916827bffffffffffffffffffffffffffffffffffffffffffffffffffffffff19161480613abd57507f0e89341c000000000000000000000000000000000000000000000000000000007bffffffffffffffffffffffffffffffffffffffffffffffffffffffff1916827bffffffffffffffffffffffffffffffffffffffffffffffffffffffff1916145b80613acd5750613acc826158a9565b5b9050919050565b6060613adf82613622565b73ffffffffffffffffffffffffffffffffffffffff16630e89341c836040518263ffffffff1660e01b8152600401613b179190616cb7565b600060405180830381865afa158015613b34573d6000803e3d6000fd5b505050506040513d6000823e3d601f19601f82011682018060405250810190613b5d9190619dd8565b9050919050565b613b72828483600217613ce8565b80613b885750613b8760008483600217613ce8565b5b613bcd578282826040517f4baa2a4d000000000000000000000000000000000000000000000000000000008152600401613bc493929190619e58565b60405180910390fd5b505050565b806101c960010160006101000a81548173ffffffffffffffffffffffffffffffffffffffff021916908373ffffffffffffffffffffffffffffffffffffffff16021790555060016002811115613c2b57613c2a61986d565b5b3373ffffffffffffffffffffffffffffffffffffffff167f3be6d3a1d957610f7e900c66889b874cdc9f0c22901aa8be6ec3d2d04c14ca0f6101c9604051613c739190619a6d565b60405180910390a350565b613c8a81836002613ce8565b80613c9e5750613c9d6000836002613ce8565b5b613ce457818160026040517f4baa2a4d000000000000000000000000000000000000000000000000000000008152600401613cdb93929190619e58565b60405180910390fd5b5050565b600080826101fe600087815260200190815260200160002060008673ffffffffffffffffffffffffffffffffffffffff1673ffffffffffffffffffffffffffffffffffffffff16815260200190815260200160002054161190509392505050565b60006101c960000160009054906101000a900473ffffffffffffffffffffffffffffffffffffffff169050816101c960000160006101000a81548173ffffffffffffffffffffffffffffffffffffffff021916908373ffffffffffffffffffffffffffffffffffffffff1602179055507f8be0079c531659141344cd1fd0a4f28419497f9722a3daafe3b4186f6b6457e08183604051613dea929190619517565b60405180910390a160006002811115613e0657613e0561986d565b5b3373ffffffffffffffffffffffffffffffffffffffff167f3be6d3a1d957610f7e900c66889b874cdc9f0c22901aa8be6ec3d2d04c14ca0f6101c9604051613e4e9190619a6d565b60405180910390a35050565b80610231600084815260200190815260200160002060006101000a81548173ffffffffffffffffffffffffffffffffffffffff021916908373ffffffffffffffffffffffffffffffffffffffff1602179055505050565b6000613ec1838584600217613ce8565b90509392505050565b600033905090565b60008351905082518114613f12576040517f4ce4cfdc00000000000000000000000000000000000000000000000000000000815260040160405180910390fd5b600073ffffffffffffffffffffffffffffffffffffffff168573ffffffffffffffffffffffffffffffffffffffff1603613f78576040517f714fd84400000000000000000000000000000000000000000000000000000000815260040160405180910390fd5b6000613f82613eca565b9050613f92818888888888615913565b6000806000805b8581101561413157888181518110613fb457613fb3618b0d565b5b60200260200101519350878181518110613fd157613fd0618b0d565b5b602002602001015192506097600085815260200190815260200160002060008c73ffffffffffffffffffffffffffffffffffffffff1673ffffffffffffffffffffffffffffffffffffffff16815260200190815260200160002054915082821015614068576040517fdd543d5200000000000000000000000000000000000000000000000000000000815260040160405180910390fd5b826097600086815260200190815260200160002060008c73ffffffffffffffffffffffffffffffffffffffff1673ffffffffffffffffffffffffffffffffffffffff16815260200190815260200160002060008282546140c89190619e8f565b925050819055508282036097600086815260200190815260200160002060008d73ffffffffffffffffffffffffffffffffffffffff1673ffffffffffffffffffffffffffffffffffffffff16815260200190815260200160002081905550806001019050613f99565b508873ffffffffffffffffffffffffffffffffffffffff168a73ffffffffffffffffffffffffffffffffffffffff168573ffffffffffffffffffffffffffffffffffffffff167f4a39dc06d4c0dbc64b70af90fd698a233a518aa5d07e595d983b8c0526c8f7fb8b8b6040516141a8929190619ec3565b60405180910390a46141be848b8b8b8b8b615a21565b6141cc848b8b8b8b8b615a29565b50505050505050505050565b60006142067f360894a13ba1a3210667c828492db98dca3e2076cc3735a920a3ca505d382bbc60001b615bee565b60000160009054906101000a900473ffffffffffffffffffffffffffffffffffffffff16905090565b600061423b3382613c7e565b7f000000000000000000000000000000000000000000000000000000000000000073ffffffffffffffffffffffffffffffffffffffff166321f7434761427f6141d8565b846040518363ffffffff1660e01b815260040161429d929190619517565b602060405180830381865afa1580156142ba573d6000803e3d6000fd5b505050506040513d601f19601f820116820180604052508101906142de9190619840565b6142e757600080fd5b5050565b6143177f4910fdfa16fed3260ed0e7147f7cc6da11a60208b5b9406d12a635614ffd914360001b615bf8565b60000160009054906101000a900460ff161561433b5761433683615c02565b614442565b8273ffffffffffffffffffffffffffffffffffffffff166352d1902d6040518163ffffffff1660e01b8152600401602060405180830381865afa9250505080156143a357506040513d601f19601f820116820180604052508101906143a09190618f62565b60015b6143d9576040517fe5ec176900000000000000000000000000000000000000000000000000000000815260040160405180910390fd5b7f360894a13ba1a3210667c828492db98dca3e2076cc3735a920a3ca505d382bbc60001b8114614435576040517f8373ebf000000000000000000000000000000000000000000000000000000000815260040160405180910390fd5b50614441838383615cb2565b5b505050565b60008373ffffffffffffffffffffffffffffffffffffffff1683839060405161446f90619f1d565b600060405180830381858888f193505050503d80600081146144ad576040519150601f19603f3d011682016040523d82523d6000602084013e6144b2565b606091505b5050809150509392505050565b600260655403614504576040517f08c379a00000000000000000000000000000000000000000000000000000000081526004016144fb90619f7e565b60405180910390fd5b6002606581905550565b60008180600001906145209190619141565b60800160208101906145329190619f9e565b67ffffffffffffffff16141580156145745750428180600001906145569190619141565b60800160208101906145689190619f9e565b67ffffffffffffffff16115b156145ab576040517f1d23a74200000000000000000000000000000000000000000000000000000000815260040160405180910390fd5b8060600160208101906145be9190619fcb565b156145f5576040517fbf65a67900000000000000000000000000000000000000000000000000000000815260040160405180910390fd5b50565b60008061464987878080601f016020809104026020016040519081016040528093929190818152602001838380828437600081840152601f19601f8201169050808301925050505050505086615cde565b90506146568185856148b4565b600087879050111561469d57807f6bb7ff708619ba0610cba295a58592e0451dee2622938c8755667688daf3529b888860405161469492919061a025565b60405180910390a25b8373ffffffffffffffffffffffffffffffffffffffff16817f1b944478023872bf91b25a13fdba3a686fdb1bf4dbb872f850240fad4b8cc0688989896040516146e89392919061a049565b60405180910390a38091505095945050505050565b6060815167ffffffffffffffff81111561471a57614719616f4e565b5b60405190808252806020026020018201604052801561474d57816020015b60608152602001906001900390816147385790505b50905060005b82518110156147b1576147803084838151811061477357614772618b0d565b5b6020026020010151615327565b82828151811061479357614792618b0d565b5b602002602001018190525080806147a990619bfc565b915050614753565b50919050565b60006101fe600085815260200190815260200160002060008473ffffffffffffffffffffffffffffffffffffffff1673ffffffffffffffffffffffffffffffffffffffff168152602001908152602001600020549050811981169050806101fe600086815260200190815260200160002060008573ffffffffffffffffffffffffffffffffffffffff1673ffffffffffffffffffffffffffffffffffffffff16815260200190815260200160002081905550808373ffffffffffffffffffffffffffffffffffffffff16857f35fb03d0d293ef5b362761900725ce891f8f766b5a662cdd445372355448e7ca60405160405180910390a450505050565b60006101fe600085815260200190815260200160002060008473ffffffffffffffffffffffffffffffffffffffff1673ffffffffffffffffffffffffffffffffffffffff1681526020019081526020016000205490508181179050806101fe600086815260200190815260200160002060008573ffffffffffffffffffffffffffffffffffffffff1673ffffffffffffffffffffffffffffffffffffffff16815260200190815260200160002081905550808373ffffffffffffffffffffffffffffffffffffffff16857f35fb03d0d293ef5b362761900725ce891f8f766b5a662cdd445372355448e7ca60405160405180910390a450505050565b6001606581905550565b8061012d600084815260200190815260200160002060006101000a81548173ffffffffffffffffffffffffffffffffffffffff021916908373ffffffffffffffffffffffffffffffffffffffff160217905550600073ffffffffffffffffffffffffffffffffffffffff168173ffffffffffffffffffffffffffffffffffffffff1614614b1d578073ffffffffffffffffffffffffffffffffffffffff166301ffc9a77f7bc7e646000000000000000000000000000000000000000000000000000000006040518263ffffffff1660e01b8152600401614a9a9190619810565b602060405180830381865afa158015614ab7573d6000803e3d6000fd5b505050506040513d601f19601f82011682018060405250810190614adb9190619840565b614b1c57806040517fda755beb000000000000000000000000000000000000000000000000000000008152600401614b139190617815565b60405180910390fd5b5b3373ffffffffffffffffffffffffffffffffffffffff168173ffffffffffffffffffffffffffffffffffffffff16837f5010f780a0de79bcfb9f3d6fec3cfe29758ef5c5800d575af709bc590bd78ade60405160405180910390a45050565b600073ffffffffffffffffffffffffffffffffffffffff168373ffffffffffffffffffffffffffffffffffffffff1603614be2576040517f45d40ad500000000000000000000000000000000000000000000000000000000815260040160405180910390fd5b60008251905081518114614c22576040517ff9532c3900000000000000000000000000000000000000000000000000000000815260040160405180910390fd5b6000614c2c613eca565b9050614c4c81866000878760405180602001604052806000815250615913565b6000806000805b85811015614d8457878181518110614c6e57614c6d618b0d565b5b60200260200101519350868181518110614c8b57614c8a618b0d565b5b602002602001015192506097600085815260200190815260200160002060008a73ffffffffffffffffffffffffffffffffffffffff1673ffffffffffffffffffffffffffffffffffffffff16815260200190815260200160002054915082821015614d22576040517f5f896ec200000000000000000000000000000000000000000000000000000000815260040160405180910390fd5b8282036097600086815260200190815260200160002060008b73ffffffffffffffffffffffffffffffffffffffff1673ffffffffffffffffffffffffffffffffffffffff16815260200190815260200160002081905550806001019050614c53565b50600073ffffffffffffffffffffffffffffffffffffffff168873ffffffffffffffffffffffffffffffffffffffff168573ffffffffffffffffffffffffffffffffffffffff167f4a39dc06d4c0dbc64b70af90fd698a233a518aa5d07e595d983b8c0526c8f7fb8a8a604051614dfc929190619ec3565b60405180910390a4614e22848960008a8a60405180602001604052806000815250615a21565b5050505050505050565b600080614e3887611776565b9050600073ffffffffffffffffffffffffffffffffffffffff168373ffffffffffffffffffffffffffffffffffffffff1603614e72578592505b80881015614eac576040517fede1d8dc00000000000000000000000000000000000000000000000000000000815260040160405180910390fd5b808803614ecb57614ec1818888888888615da2565b6000915050614edf565b614ed88188878787615f3a565b8088039150505b9695505050505050565b60005b83518110156150e9576000848281518110614f0a57614f09618b0d565b5b602002602001015160000151905060016002811115614f2c57614f2b61986d565b5b816002811115614f3f57614f3e61986d565b5b0361500257600080868481518110614f5a57614f59618b0d565b5b602002602001015160200151806020019051810190614f79919061a090565b9150915080861115614fb7576040517f644f3cdc00000000000000000000000000000000000000000000000000000000815260040160405180910390fd5b614fc582826204baf0614447565b614ffb576040517fe373ab5c00000000000000000000000000000000000000000000000000000000815260040160405180910390fd5b50506150d7565b6002808111156150155761501461986d565b5b8160028111156150285761502761986d565b5b036150d557600080600087858151811061504557615044618b0d565b5b602002602001015160200151806020019051810190615064919061a0d0565b9250925092506000861415801561507b5750858214155b156150b2576040517f4cdcfbf900000000000000000000000000000000000000000000000000000000815260040160405180910390fd5b6150cd83878360405180602001604052806000815250615519565b5050506150d6565b5b5b50806150e290619bfc565b9050614eec565b50505050565b600060019054906101000a900460ff16615135576040517f96bfb10000000000000000000000000000000000000000000000000000000000815260040160405180910390fd5b565b600060019054906101000a900460ff1661517d576040517f96bfb10000000000000000000000000000000000000000000000000000000000815260040160405180910390fd5b6151856160ce565b565b61519460008460026148b4565b61519f826000615cde565b506151ab600082615354565b505050565b8061019390816151c09190618920565b5050565b8173ffffffffffffffffffffffffffffffffffffffff168373ffffffffffffffffffffffffffffffffffffffff1603615229576040517fd67f41b200000000000000000000000000000000000000000000000000000000815260040160405180910390fd5b80609860008573ffffffffffffffffffffffffffffffffffffffff1673ffffffffffffffffffffffffffffffffffffffff16815260200190815260200160002060008473ffffffffffffffffffffffffffffffffffffffff1673ffffffffffffffffffffffffffffffffffffffff16815260200190815260200160002060006101000a81548160ff0219169083151502179055508173ffffffffffffffffffffffffffffffffffffffff168373ffffffffffffffffffffffffffffffffffffffff167f17307eab39ab6107e8899845ad3d59bd9653f200f220920489ca2b5937696c318360405161531a9190616d72565b60405180910390a3505050565b606061534c838360405180606001604052806027815260200161a6056027913961611e565b905092915050565b6000816000015163ffffffff1614615398576040517f0d9b92f100000000000000000000000000000000000000000000000000000000815260040160405180910390fd5b600073ffffffffffffffffffffffffffffffffffffffff16816040015173ffffffffffffffffffffffffffffffffffffffff161480156153e257506000816020015163ffffffff16115b15615419576040517f0d9b92f100000000000000000000000000000000000000000000000000000000815260040160405180910390fd5b80610160600084815260200190815260200160002060008201518160000160006101000a81548163ffffffff021916908363ffffffff16021790555060208201518160000160046101000a81548163ffffffff021916908363ffffffff16021790555060408201518160000160086101000a81548173ffffffffffffffffffffffffffffffffffffffff021916908373ffffffffffffffffffffffffffffffffffffffff1602179055509050503373ffffffffffffffffffffffffffffffffffffffff16827f5837d55897cfc337f160a71d7b63a047abd50a3a8834f1c5d70f338846358c6d8360405161550d9190618339565b60405180910390a35050565b61552383836161a4565b816101c66000858152602001908152602001600020600201600082825461554a9190619e8f565b9250508190555061555d84848484616227565b50505050565b60008351905060005b81811015615625576155b285828151811061558a57615589618b0d565b5b60200260200101518583815181106155a5576155a4618b0d565b5b60200260200101516161a4565b8381815181106155c5576155c4618b0d565b5b60200260200101516101c660008784815181106155e5576155e4618b0d565b5b60200260200101518152602001908152602001600020600201600082825461560d9190619e8f565b925050819055508061561e90619bfc565b905061556c565b50615632858585856163b3565b5050505050565b600073ffffffffffffffffffffffffffffffffffffffff168473ffffffffffffffffffffffffffffffffffffffff160361569f576040517f714fd84400000000000000000000000000000000000000000000000000000000815260040160405180910390fd5b60006156a9613eca565b90506156b98187878787876165cb565b60006097600086815260200190815260200160002060008873ffffffffffffffffffffffffffffffffffffffff1673ffffffffffffffffffffffffffffffffffffffff16815260200190815260200160002054905083811015615748576040517fdd543d5200000000000000000000000000000000000000000000000000000000815260040160405180910390fd5b8381036097600087815260200190815260200160002060008973ffffffffffffffffffffffffffffffffffffffff1673ffffffffffffffffffffffffffffffffffffffff16815260200190815260200160002081905550836097600087815260200190815260200160002060008873ffffffffffffffffffffffffffffffffffffffff1673ffffffffffffffffffffffffffffffffffffffff16815260200190815260200160002060008282546157ff9190619e8f565b925050819055508573ffffffffffffffffffffffffffffffffffffffff168773ffffffffffffffffffffffffffffffffffffffff168373ffffffffffffffffffffffffffffffffffffffff167fc3d58168c5ae7397731d063d5bbf3d657854427343f4c083240f7aacaa2d0f62888860405161587c9291906197d8565b60405180910390a46158928288888888886166d9565b6158a08288888888886166e1565b50505050505050565b60007f01ffc9a7000000000000000000000000000000000000000000000000000000007bffffffffffffffffffffffffffffffffffffffffffffffffffffffff1916827bffffffffffffffffffffffffffffffffffffffffffffffffffffffff1916149050919050565b6159218686868686866168a6565b600073ffffffffffffffffffffffffffffffffffffffff166101c960020160009054906101000a900473ffffffffffffffffffffffffffffffffffffffff1673ffffffffffffffffffffffffffffffffffffffff1614615a19576101c960020160009054906101000a900473ffffffffffffffffffffffffffffffffffffffff1673ffffffffffffffffffffffffffffffffffffffff166380b10ace308888888888886040518863ffffffff1660e01b81526004016159e6979695949392919061a123565b600060405180830381600087803b158015615a0057600080fd5b505af1158015615a14573d6000803e3d6000fd5b505050505b505050505050565b505050505050565b615a488473ffffffffffffffffffffffffffffffffffffffff16613965565b15615be6578373ffffffffffffffffffffffffffffffffffffffff1663bc197c8187878686866040518663ffffffff1660e01b8152600401615a8e95949392919061a1a7565b6020604051808303816000875af1925050508015615aca57506040513d601f19601f82011682018060405250810190615ac7919061a224565b60015b615b6657615ad661a25e565b806308c379a003615b325750615aea61a280565b80615af55750615b34565b806040517f08c379a0000000000000000000000000000000000000000000000000000000008152600401615b299190616e1d565b60405180910390fd5b505b6040517fefab692200000000000000000000000000000000000000000000000000000000815260040160405180910390fd5b63bc197c8160e01b7bffffffffffffffffffffffffffffffffffffffffffffffffffffffff1916817bffffffffffffffffffffffffffffffffffffffffffffffffffffffff191614615be4576040517ffeff9fd400000000000000000000000000000000000000000000000000000000815260040160405180910390fd5b505b505050505050565b6000819050919050565b6000819050919050565b615c0b81613965565b615c41576040517f529880eb00000000000000000000000000000000000000000000000000000000815260040160405180910390fd5b80615c6e7f360894a13ba1a3210667c828492db98dca3e2076cc3735a920a3ca505d382bbc60001b615bee565b60000160006101000a81548173ffffffffffffffffffffffffffffffffffffffff021916908373ffffffffffffffffffffffffffffffffffffffff16021790555050565b615cbb836168ae565b600082511180615cc85750805b15615cd957615cd783836168fd565b505b505050565b6000615ce86169bf565b90506000604051806060016040528085815260200184815260200160008152509050806101c660008481526020019081526020016000206000820151816000019081615d349190618920565b506020820151816001015560408201518160020155905050813373ffffffffffffffffffffffffffffffffffffffff167f5086d1bcea28999da9875111e3592688fbfa821db63214c695ca35768080c2fe83604051615d939190617f8f565b60405180910390a35092915050565b6000615dad86612298565b9050600073ffffffffffffffffffffffffffffffffffffffff168473ffffffffffffffffffffffffffffffffffffffff1603615e07577f000000000000000000000000000000000000000000000000000000000000000093505b600073ffffffffffffffffffffffffffffffffffffffff168373ffffffffffffffffffffffffffffffffffffffff1603615e5f577f000000000000000000000000000000000000000000000000000000000000000092505b7f000000000000000000000000000000000000000000000000000000000000000073ffffffffffffffffffffffffffffffffffffffff1663faa3516f888784600001518886602001518988604001518a8a606001517f00000000000000000000000000000000000000000000000000000000000000008c608001516040518c63ffffffff1660e01b8152600401615eff9a9998979695949392919061a310565b6000604051808303818588803b158015615f1857600080fd5b505af1158015615f2c573d6000803e3d6000fd5b505050505050505050505050565b6000615f4585611e47565b9050600073ffffffffffffffffffffffffffffffffffffffff168473ffffffffffffffffffffffffffffffffffffffff1603615f9f577f000000000000000000000000000000000000000000000000000000000000000093505b600073ffffffffffffffffffffffffffffffffffffffff168373ffffffffffffffffffffffffffffffffffffffff1603615ff7577f000000000000000000000000000000000000000000000000000000000000000092505b7f000000000000000000000000000000000000000000000000000000000000000073ffffffffffffffffffffffffffffffffffffffff1663faa3516f876000808886602001518988604001518a8a606001517f00000000000000000000000000000000000000000000000000000000000000008c608001516040518c63ffffffff1660e01b81526004016160949a9998979695949392919061a3e7565b6000604051808303818588803b1580156160ad57600080fd5b505af11580156160c1573d6000803e3d6000fd5b5050505050505050505050565b600060019054906101000a900460ff16616114576040517f96bfb10000000000000000000000000000000000000000000000000000000000815260040160405180910390fd5b6001606581905550565b60606000808573ffffffffffffffffffffffffffffffffffffffff16856040516161489190619b27565b600060405180830381855af49150503d8060008114616183576040519150601f19603f3d011682016040523d82523d6000602084013e616188565b606091505b5091509150616199868383876169d8565b925050509392505050565b60006101c66000848152602001908152602001600020905080600101548282600201546161d19190619e8f565b1115616222578282826002015483600101546040517f1255c8fd000000000000000000000000000000000000000000000000000000008152600401616219949392919061a483565b60405180910390fd5b505050565b600073ffffffffffffffffffffffffffffffffffffffff168473ffffffffffffffffffffffffffffffffffffffff160361628d576040517f8113ddc800000000000000000000000000000000000000000000000000000000815260040160405180910390fd5b6000616297613eca565b90506162a8816000878787876165cb565b826097600086815260200190815260200160002060008773ffffffffffffffffffffffffffffffffffffffff1673ffffffffffffffffffffffffffffffffffffffff16815260200190815260200160002060008282546163089190619e8f565b925050819055508473ffffffffffffffffffffffffffffffffffffffff16600073ffffffffffffffffffffffffffffffffffffffff168273ffffffffffffffffffffffffffffffffffffffff167fc3d58168c5ae7397731d063d5bbf3d657854427343f4c083240f7aacaa2d0f6287876040516163869291906197d8565b60405180910390a461639d816000878787876166d9565b6163ac816000878787876166e1565b5050505050565b600073ffffffffffffffffffffffffffffffffffffffff168473ffffffffffffffffffffffffffffffffffffffff1603616419576040517f8113ddc800000000000000000000000000000000000000000000000000000000815260040160405180910390fd5b60008351905082518114616459576040517ff9532c3900000000000000000000000000000000000000000000000000000000815260040160405180910390fd5b6000616463613eca565b905061647481600088888888615913565b60005b828110156165255784818151811061649257616491618b0d565b5b6020026020010151609760008884815181106164b1576164b0618b0d565b5b6020026020010151815260200190815260200160002060008973ffffffffffffffffffffffffffffffffffffffff1673ffffffffffffffffffffffffffffffffffffffff16815260200190815260200160002060008282546165139190619e8f565b92505081905550806001019050616477565b508573ffffffffffffffffffffffffffffffffffffffff16600073ffffffffffffffffffffffffffffffffffffffff168273ffffffffffffffffffffffffffffffffffffffff167f4a39dc06d4c0dbc64b70af90fd698a233a518aa5d07e595d983b8c0526c8f7fb888860405161659d929190619ec3565b60405180910390a46165b481600088888888615a21565b6165c381600088888888615a29565b505050505050565b6165d9868686868686616a4d565b600073ffffffffffffffffffffffffffffffffffffffff166101c960020160009054906101000a900473ffffffffffffffffffffffffffffffffffffffff1673ffffffffffffffffffffffffffffffffffffffff16146166d1576101c960020160009054906101000a900473ffffffffffffffffffffffffffffffffffffffff1673ffffffffffffffffffffffffffffffffffffffff166382f65f2e308888888888886040518863ffffffff1660e01b815260040161669e979695949392919061a4c8565b600060405180830381600087803b1580156166b857600080fd5b505af11580156166cc573d6000803e3d6000fd5b505050505b505050505050565b505050505050565b6167008473ffffffffffffffffffffffffffffffffffffffff16613965565b1561689e578373ffffffffffffffffffffffffffffffffffffffff1663f23a6e6187878686866040518663ffffffff1660e01b815260040161674695949392919061a53e565b6020604051808303816000875af192505050801561678257506040513d601f19601f8201168201806040525081019061677f919061a224565b60015b61681e5761678e61a25e565b806308c379a0036167ea57506167a261a280565b806167ad57506167ec565b806040517f08c379a00000000000000000000000000000000000000000000000000000000081526004016167e19190616e1d565b60405180910390fd5b505b6040517fefab692200000000000000000000000000000000000000000000000000000000815260040160405180910390fd5b63f23a6e6160e01b7bffffffffffffffffffffffffffffffffffffffffffffffffffffffff1916817bffffffffffffffffffffffffffffffffffffffffffffffffffffffff19161461689c576040517ffeff9fd400000000000000000000000000000000000000000000000000000000815260040160405180910390fd5b505b505050505050565b505050505050565b6168b781615c02565b8073ffffffffffffffffffffffffffffffffffffffff167fbc7cd75a20ee27fd9adebab32041f755214dbc6bffa90cc0225b39da2e5c2d3b60405160405180910390a250565b606061690883613965565b61693e576040517f369891e700000000000000000000000000000000000000000000000000000000815260040160405180910390fd5b6000808473ffffffffffffffffffffffffffffffffffffffff16846040516169669190619b27565b600060405180830381855af49150503d80600081146169a1576040519150601f19603f3d011682016040523d82523d6000602084013e6169a6565b606091505b50915091506169b58282616a55565b9250505092915050565b60006101c8600081548092919060010191905055905090565b60608315616a3a576000835103616a32576169f285616a75565b616a31576040517f08c379a0000000000000000000000000000000000000000000000000000000008152600401616a289061a5e4565b60405180910390fd5b5b829050616a45565b616a448383616a98565b5b949350505050565b505050505050565b60608215616a6557819050616a6f565b616a6e82616ae8565b5b92915050565b6000808273ffffffffffffffffffffffffffffffffffffffff163b119050919050565b600082511115616aab5781518083602001fd5b806040517f08c379a0000000000000000000000000000000000000000000000000000000008152600401616adf9190616e1d565b60405180910390fd5b600081511115616afb5780518082602001fd5b6040517fa145193600000000000000000000000000000000000000000000000000000000815260040160405180910390fd5b6040518060a0016040528060008152602001600081526020016000815260200160008152602001600081525090565b60405180606001604052806060815260200160008152602001600081525090565b6040518060600160405280600063ffffffff168152602001600063ffffffff168152602001600073ffffffffffffffffffffffffffffffffffffffff1681525090565b6000604051905090565b600080fd5b600080fd5b600073ffffffffffffffffffffffffffffffffffffffff82169050919050565b6000616bff82616bd4565b9050919050565b616c0f81616bf4565b8114616c1a57600080fd5b50565b600081359050616c2c81616c06565b92915050565b6000819050919050565b616c4581616c32565b8114616c5057600080fd5b50565b600081359050616c6281616c3c565b92915050565b60008060408385031215616c7f57616c7e616bca565b5b6000616c8d85828601616c1d565b9250506020616c9e85828601616c53565b9150509250929050565b616cb181616c32565b82525050565b6000602082019050616ccc6000830184616ca8565b92915050565b60007fffffffff0000000000000000000000000000000000000000000000000000000082169050919050565b616d0781616cd2565b8114616d1257600080fd5b50565b600081359050616d2481616cfe565b92915050565b600060208284031215616d4057616d3f616bca565b5b6000616d4e84828501616d15565b91505092915050565b60008115159050919050565b616d6c81616d57565b82525050565b6000602082019050616d876000830184616d63565b92915050565b600081519050919050565b600082825260208201905092915050565b60005b83811015616dc7578082015181840152602081019050616dac565b60008484015250505050565b6000601f19601f8301169050919050565b6000616def82616d8d565b616df98185616d98565b9350616e09818560208601616da9565b616e1281616dd3565b840191505092915050565b60006020820190508181036000830152616e378184616de4565b905092915050565b600060208284031215616e5557616e54616bca565b5b6000616e6384828501616c53565b91505092915050565b6000616e7782616bd4565b9050919050565b616e8781616e6c565b8114616e9257600080fd5b50565b600081359050616ea481616e7e565b92915050565b600060208284031215616ec057616ebf616bca565b5b6000616ece84828501616e95565b91505092915050565b600060208284031215616eed57616eec616bca565b5b6000616efb84828501616c1d565b91505092915050565b60008060408385031215616f1b57616f1a616bca565b5b6000616f2985828601616c53565b9250506020616f3a85828601616c1d565b9150509250929050565b600080fd5b600080fd5b7f4e487b7100000000000000000000000000000000000000000000000000000000600052604160045260246000fd5b616f8682616dd3565b810181811067ffffffffffffffff82111715616fa557616fa4616f4e565b5b80604052505050565b6000616fb8616bc0565b9050616fc48282616f7d565b919050565b600067ffffffffffffffff821115616fe457616fe3616f4e565b5b616fed82616dd3565b9050602081019050919050565b82818337600083830152505050565b600061701c61701784616fc9565b616fae565b90508281526020810184848401111561703857617037616f49565b5b617043848285616ffa565b509392505050565b600082601f8301126170605761705f616f44565b5b8135617070848260208601617009565b91505092915050565b600080604083850312156170905761708f616bca565b5b600061709e85828601616c53565b925050602083013567ffffffffffffffff8111156170bf576170be616bcf565b5b6170cb8582860161704b565b9150509250929050565b6000806000606084860312156170ee576170ed616bca565b5b60006170fc86828701616c1d565b935050602061710d86828701616c53565b925050604061711e86828701616c53565b9150509250925092565b6000806040838503121561713f5761713e616bca565b5b600061714d85828601616c53565b925050602061715e85828601616c53565b9150509250929050565b61717181616bf4565b82525050565b600060408201905061718c6000830185617168565b6171996020830184616ca8565b9392505050565b600067ffffffffffffffff8211156171bb576171ba616f4e565b5b602082029050602081019050919050565b600080fd5b60006171e46171df846171a0565b616fae565b90508083825260208201905060208402830185811115617207576172066171cc565b5b835b81811015617230578061721c8882616c53565b845260208401935050602081019050617209565b5050509392505050565b600082601f83011261724f5761724e616f44565b5b813561725f8482602086016171d1565b91505092915050565b600067ffffffffffffffff82111561728357617282616f4e565b5b61728c82616dd3565b9050602081019050919050565b60006172ac6172a784617268565b616fae565b9050828152602081018484840111156172c8576172c7616f49565b5b6172d3848285616ffa565b509392505050565b600082601f8301126172f0576172ef616f44565b5b8135617300848260208601617299565b91505092915050565b600080600080600060a0868803121561732557617324616bca565b5b600061733388828901616c1d565b955050602061734488828901616c1d565b945050604086013567ffffffffffffffff81111561736557617364616bcf565b5b6173718882890161723a565b935050606086013567ffffffffffffffff81111561739257617391616bcf565b5b61739e8882890161723a565b925050608086013567ffffffffffffffff8111156173bf576173be616bcf565b5b6173cb888289016172db565b9150509295509295909350565b600067ffffffffffffffff8211156173f3576173f2616f4e565b5b602082029050602081019050919050565b6000617417617412846173d8565b616fae565b9050808382526020820190506020840283018581111561743a576174396171cc565b5b835b81811015617463578061744f8882616c1d565b84526020840193505060208101905061743c565b5050509392505050565b600082601f83011261748257617481616f44565b5b8135617492848260208601617404565b91505092915050565b600080604083850312156174b2576174b1616bca565b5b600083013567ffffffffffffffff8111156174d0576174cf616bcf565b5b6174dc8582860161746d565b925050602083013567ffffffffffffffff8111156174fd576174fc616bcf565b5b6175098582860161723a565b9150509250929050565b600081519050919050565b600082825260208201905092915050565b6000819050602082019050919050565b61754881616c32565b82525050565b600061755a838361753f565b60208301905092915050565b6000602082019050919050565b600061757e82617513565b617588818561751e565b93506175938361752f565b8060005b838110156175c45781516175ab888261754e565b97506175b683617566565b925050600181019050617597565b5085935050505092915050565b600060208201905081810360008301526175eb8184617573565b905092915050565b6000806040838503121561760a57617609616bca565b5b600061761885828601616c1d565b925050602083013567ffffffffffffffff81111561763957617638616bcf565b5b617645858286016172db565b9150509250929050565b6000819050919050565b6176628161764f565b82525050565b600060208201905061767d6000830184617659565b92915050565b600080fd5b60006080828403121561769e5761769d617683565b5b81905092915050565b600080fd5b60008083601f8401126176c2576176c1616f44565b5b8235905067ffffffffffffffff8111156176df576176de6176a7565b5b6020830191508360018202830111156176fb576176fa6171cc565b5b9250929050565b6000806000806060858703121561771c5761771b616bca565b5b600085013567ffffffffffffffff81111561773a57617739616bcf565b5b61774687828801617688565b945050602085013567ffffffffffffffff81111561776757617766616bcf565b5b617773878288016176ac565b9350935050604061778687828801616c1d565b91505092959194509250565b60a0820160008201516177a8600085018261753f565b5060208201516177bb602085018261753f565b5060408201516177ce604085018261753f565b5060608201516177e1606085018261753f565b5060808201516177f4608085018261753f565b50505050565b600060a08201905061780f6000830184617792565b92915050565b600060208201905061782a6000830184617168565b92915050565b60008060006060848603121561784957617848616bca565b5b600061785786828701616c53565b935050602061786886828701616c1d565b925050604061787986828701616c53565b9150509250925092565b600061788e82616bf4565b9050919050565b61789e81617883565b81146178a957600080fd5b50565b6000813590506178bb81617895565b92915050565b600080604083850312156178d8576178d7616bca565b5b60006178e685828601616c53565b92505060206178f7858286016178ac565b9150509250929050565b60008083601f84011261791757617916616f44565b5b8235905067ffffffffffffffff811115617934576179336176a7565b5b6020830191508360018202830111156179505761794f6171cc565b5b9250929050565b6000806000806060858703121561797157617970616bca565b5b600085013567ffffffffffffffff81111561798f5761798e616bcf565b5b61799b87828801617901565b945094505060206179ae87828801616c53565b92505060406179bf87828801616c1d565b91505092959194509250565b60008083601f8401126179e1576179e0616f44565b5b8235905067ffffffffffffffff8111156179fe576179fd6176a7565b5b602083019150836020820283011115617a1a57617a196171cc565b5b9250929050565b600080600080600060608688031215617a3d57617a3c616bca565b5b6000617a4b88828901616c1d565b955050602086013567ffffffffffffffff811115617a6c57617a6b616bcf565b5b617a78888289016179cb565b9450945050604086013567ffffffffffffffff811115617a9b57617a9a616bcf565b5b617aa7888289016179cb565b92509250509295509295909350565b6000617ac182616bf4565b9050919050565b617ad181617ab6565b8114617adc57600080fd5b50565b600081359050617aee81617ac8565b92915050565b600080600080600060808688031215617b1057617b0f616bca565b5b6000617b1e88828901617adf565b9550506020617b2f88828901616c53565b9450506040617b4088828901616c53565b935050606086013567ffffffffffffffff811115617b6157617b60616bcf565b5b617b6d888289016176ac565b92509250509295509295909350565b60006bffffffffffffffffffffffff82169050919050565b617b9d81617b7c565b82525050565b617bac81616e6c565b82525050565b6000819050919050565b6000617bd7617bd2617bcd84616bd4565b617bb2565b616bd4565b9050919050565b6000617be982617bbc565b9050919050565b6000617bfb82617bde565b9050919050565b617c0b81617bf0565b82525050565b600060c082019050617c266000830189617168565b617c336020830188617b94565b617c406040830187617ba3565b617c4d6060830186617b94565b617c5a6080830185617c02565b617c6760a0830184617b94565b979650505050505050565b6000617c7d82616bf4565b9050919050565b617c8d81617c72565b8114617c9857600080fd5b50565b600081359050617caa81617c84565b92915050565b600060208284031215617cc657617cc5616bca565b5b6000617cd484828501617c9b565b91505092915050565b600063ffffffff82169050919050565b617cf681617cdd565b82525050565b6000606082019050617d116000830186617ced565b617d1e6020830185617ced565b617d2b6040830184617168565b949350505050565b600080fd5b600080fd5b617d4681617cdd565b8114617d5157600080fd5b50565b600081359050617d6381617d3d565b92915050565b600060608284031215617d7f57617d7e617d33565b5b617d896060616fae565b90506000617d9984828501617d54565b6000830152506020617dad84828501617d54565b6020830152506040617dc184828501616c1d565b60408301525092915050565b60008083601f840112617de357617de2616f44565b5b8235905067ffffffffffffffff811115617e0057617dff6176a7565b5b602083019150836020820283011115617e1c57617e1b6171cc565b5b9250929050565b60008060008060008060e08789031215617e4057617e3f616bca565b5b600087013567ffffffffffffffff811115617e5e57617e5d616bcf565b5b617e6a89828a0161704b565b965050602087013567ffffffffffffffff811115617e8b57617e8a616bcf565b5b617e9789828a0161704b565b9550506040617ea889828a01617d69565b94505060a0617eb989828a01616e95565b93505060c087013567ffffffffffffffff811115617eda57617ed9616bcf565b5b617ee689828a01617dcd565b92509250509295509295509295565b600082825260208201905092915050565b6000617f1182616d8d565b617f1b8185617ef5565b9350617f2b818560208601616da9565b617f3481616dd3565b840191505092915050565b60006060830160008301518482036000860152617f5c8282617f06565b9150506020830151617f71602086018261753f565b506040830151617f84604086018261753f565b508091505092915050565b60006020820190508181036000830152617fa98184617f3f565b905092915050565b60008060408385031215617fc857617fc7616bca565b5b6000617fd685828601616c53565b925050602083013567ffffffffffffffff811115617ff757617ff6616bcf565b5b618003858286016172db565b9150509250929050565b60008060008060008060a0878903121561802a57618029616bca565b5b600061803889828a01617adf565b965050602061804989828a01616c53565b955050604061805a89828a01616c53565b945050606087013567ffffffffffffffff81111561807b5761807a616bcf565b5b61808789828a016176ac565b9350935050608061809a89828a01616c1d565b9150509295509295509295565b6180b081616d57565b81146180bb57600080fd5b50565b6000813590506180cd816180a7565b92915050565b600080604083850312156180ea576180e9616bca565b5b60006180f885828601616c1d565b9250506020618109858286016180be565b9150509250929050565b6000806020838503121561812a57618129616bca565b5b600083013567ffffffffffffffff81111561814857618147616bcf565b5b61815485828601617dcd565b92509250509250929050565b600081519050919050565b600082825260208201905092915050565b6000819050602082019050919050565b600081519050919050565b600082825260208201905092915050565b60006181b38261818c565b6181bd8185618197565b93506181cd818560208601616da9565b6181d681616dd3565b840191505092915050565b60006181ed83836181a8565b905092915050565b6000602082019050919050565b600061820d82618160565b618217818561816b565b9350836020820285016182298561817c565b8060005b85811015618265578484038952815161824685826181e1565b9450618251836181f5565b925060208a0199505060018101905061822d565b50829750879550505050505092915050565b600060208201905081810360008301526182918184618202565b905092915050565b600080608083850312156182b0576182af616bca565b5b60006182be85828601616c53565b92505060206182cf85828601617d69565b9150509250929050565b6182e281617cdd565b82525050565b6182f181616bf4565b82525050565b60608201600082015161830d60008501826182d9565b50602082015161832060208501826182d9565b50604082015161833360408501826182e8565b50505050565b600060608201905061834e60008301846182f7565b92915050565b60006020828403121561836a57618369616bca565b5b600061837884828501617d54565b91505092915050565b6000806000806080858703121561839b5761839a616bca565b5b60006183a987828801616c1d565b94505060206183ba87828801616c53565b93505060406183cb87828801616c53565b925050606085013567ffffffffffffffff8111156183ec576183eb616bcf565b5b6183f8878288016172db565b91505092959194509250565b6000806000806080858703121561841e5761841d616bca565b5b600061842c87828801616c1d565b945050602085013567ffffffffffffffff81111561844d5761844c616bcf565b5b6184598782880161723a565b935050604085013567ffffffffffffffff81111561847a57618479616bcf565b5b6184868782880161723a565b925050606085013567ffffffffffffffff8111156184a7576184a6616bcf565b5b6184b3878288016172db565b91505092959194509250565b6000806000604084860312156184d8576184d7616bca565b5b600084013567ffffffffffffffff8111156184f6576184f5616bcf565b5b61850286828701617901565b9350935050602061851586828701616c53565b9150509250925092565b6000806000806060858703121561853957618538616bca565b5b600061854787828801616c53565b945050602061855887828801617adf565b935050604085013567ffffffffffffffff81111561857957618578616bcf565b5b618585878288016176ac565b925092505092959194509250565b600061859e82617bde565b9050919050565b6185ae81618593565b82525050565b60006020820190506185c960008301846185a5565b92915050565b600080604083850312156185e6576185e5616bca565b5b60006185f485828601616c1d565b925050602061860585828601616c1d565b9150509250929050565b6000806040838503121561862657618625616bca565b5b600083013567ffffffffffffffff81111561864457618643616bcf565b5b6186508582860161704b565b925050602083013567ffffffffffffffff81111561867157618670616bcf565b5b61867d8582860161704b565b9150509250929050565b600080600080600060a086880312156186a3576186a2616bca565b5b60006186b188828901616c1d565b95505060206186c288828901616c1d565b94505060406186d388828901616c53565b93505060606186e488828901616c53565b925050608086013567ffffffffffffffff81111561870557618704616bcf565b5b618711888289016172db565b9150509295509295909350565b7f4e487b7100000000000000000000000000000000000000000000000000000000600052602260045260246000fd5b6000600282049050600182168061876557607f821691505b6020821081036187785761877761871e565b5b50919050565b60008190508160005260206000209050919050565b60006020601f8301049050919050565b600082821b905092915050565b6000600883026187e07fffffffffffffffffffffffffffffffffffffffffffffffffffffffffffffffff826187a3565b6187ea86836187a3565b95508019841693508086168417925050509392505050565b600061881d61881861881384616c32565b617bb2565b616c32565b9050919050565b6000819050919050565b61883783618802565b61884b61884382618824565b8484546187b0565b825550505050565b600090565b618860618853565b61886b81848461882e565b505050565b5b8181101561888f57618884600082618858565b600181019050618871565b5050565b601f8211156188d4576188a58161877e565b6188ae84618793565b810160208510156188bd578190505b6188d16188c985618793565b830182618870565b50505b505050565b600082821c905092915050565b60006188f7600019846008026188d9565b1980831691505092915050565b600061891083836188e6565b9150826002028217905092915050565b61892982616d8d565b67ffffffffffffffff81111561894257618941616f4e565b5b61894c825461874d565b618957828285618893565b600060209050601f83116001811461898a5760008415618978578287015190505b6189828582618904565b8655506189ea565b601f1984166189988661877e565b60005b828110156189c05784890151825560018201915060208501945060208101905061899b565b868310156189dd57848901516189d9601f8916826188e6565b8355505b6001600288020188555050505b505050505050565b7f4e487b7100000000000000000000000000000000000000000000000000000000600052601160045260246000fd5b6000618a2c82616c32565b9150618a3783616c32565b9250828202618a4581616c32565b91508282048414831517618a5c57618a5b6189f2565b5b5092915050565b7f4e487b7100000000000000000000000000000000000000000000000000000000600052601260045260246000fd5b6000618a9d82616c32565b9150618aa883616c32565b925082618ab857618ab7618a63565b5b828204905092915050565b6000618ace82617bde565b9050919050565b618ade81618ac3565b82525050565b6000604082019050618af96000830185618ad5565b618b066020830184616ca8565b9392505050565b7f4e487b7100000000000000000000000000000000000000000000000000000000600052603260045260246000fd5b600080fd5b60008235600161014003833603038112618b5e57618b5d618b3c565b5b82810191505092915050565b600080fd5b600080fd5b60008083356001602003843603038112618b9157618b90618b3c565b5b83810192508235915060208301925067ffffffffffffffff821115618bb957618bb8618b6a565b5b600182023603831315618bcf57618bce618b6f565b5b509250929050565b600082825260208201905092915050565b6000618bf48385618bd7565b9350618c01838584616ffa565b618c0a83616dd3565b840190509392505050565b6000618c246020840184616c53565b905092915050565b618c3581616c32565b82525050565b600067ffffffffffffffff82169050919050565b618c5881618c3b565b8114618c6357600080fd5b50565b600081359050618c7581618c4f565b92915050565b6000618c8a6020840184618c66565b905092915050565b618c9b81618c3b565b82525050565b618caa81617b7c565b8114618cb557600080fd5b50565b600081359050618cc781618ca1565b92915050565b6000618cdc6020840184618cb8565b905092915050565b618ced81617b7c565b82525050565b6000618d026020840184617d54565b905092915050565b618d1381617cdd565b82525050565b6000618d286020840184616c1d565b905092915050565b618d3981616bf4565b82525050565b60006101408301618d536000840184618b74565b8583036000870152618d66838284618be8565b92505050618d776020840184618c15565b618d846020860182618c2c565b50618d926040840184618c7b565b618d9f6040860182618c92565b50618dad6060840184618ccd565b618dba6060860182618ce4565b50618dc86080840184618c7b565b618dd56080860182618c92565b50618de360a0840184618c7b565b618df060a0860182618c92565b50618dfe60c0840184618cf3565b618e0b60c0860182618d0a565b50618e1960e0840184618cf3565b618e2660e0860182618d0a565b50618e35610100840184618d19565b618e43610100860182618d30565b50618e52610120840184618d19565b618e60610120860182618d30565b508091505092915050565b6000618e7a60208401846180be565b905092915050565b618e8b81616d57565b82525050565b600060808301618ea46000840184618b41565b8482036000860152618eb68282618d3f565b915050618ec66020840184618cf3565b618ed36020860182618d0a565b50618ee16040840184618cf3565b618eee6040860182618d0a565b50618efc6060840184618e6b565b618f096060860182618e82565b508091505092915050565b60006020820190508181036000830152618f2e8184618e91565b905092915050565b618f3f8161764f565b8114618f4a57600080fd5b50565b600081519050618f5c81618f36565b92915050565b600060208284031215618f7857618f77616bca565b5b6000618f8684828501618f4d565b91505092915050565b618f988161764f565b82525050565b600082825260208201905092915050565b6000618fbb8385618f9e565b9350618fc8838584616ffa565b618fd183616dd3565b840190509392505050565b618fe581616bf4565b82525050565b618ff481616c32565b82525050565b600060808201905061900f6000830188618f8f565b8181036020830152619022818688618faf565b90506190316040830185618fdc565b61903e6060830184618feb565b9695505050505050565b60008151905061905781616c06565b92915050565b60006020828403121561907357619072616bca565b5b600061908184828501619048565b91505092915050565b600082825260208201905092915050565b60006190a7838561908a565b93506190b4838584616ffa565b6190bd83616dd3565b840190509392505050565b600060a0820190506190dd6000830189617659565b81810360208301526190ef8188616de4565b905081810360408301526191038187616de4565b90506191126060830186617168565b818103608083015261912581848661909b565b9050979650505050505050565b600080fd5b600080fd5b600080fd5b6000823560016101400383360303811261915e5761915d619132565b5b80830191505092915050565b6000808335600160200384360303811261918757619186619132565b5b80840192508235915067ffffffffffffffff8211156191a9576191a8619137565b5b6020830192506001820236038313156191c5576191c461913c565b5b509250929050565b600061014083016191e16000840184618b74565b85830360008701526191f4838284618be8565b925050506192056020840184618c15565b6192126020860182618c2c565b506192206040840184618c7b565b61922d6040860182618c92565b5061923b6060840184618ccd565b6192486060860182618ce4565b506192566080840184618c7b565b6192636080860182618c92565b5061927160a0840184618c7b565b61927e60a0860182618c92565b5061928c60c0840184618cf3565b61929960c0860182618d0a565b506192a760e0840184618cf3565b6192b460e0860182618d0a565b506192c3610100840184618d19565b6192d1610100860182618d30565b506192e0610120840184618d19565b6192ee610120860182618d30565b508091505092915050565b600060608201905061930e6000830186618feb565b61931b6020830185618fdc565b818103604083015261932d81846191cd565b9050949350505050565b600067ffffffffffffffff82111561935257619351616f4e565b5b602082029050602081019050919050565b600061937661937184617268565b616fae565b90508281526020810184848401111561939257619391616f49565b5b61939d848285616da9565b509392505050565b600082601f8301126193ba576193b9616f44565b5b81516193ca848260208601619363565b91505092915050565b60006193e66193e184619337565b616fae565b90508083825260208201905060208402830185811115619409576194086171cc565b5b835b8181101561945057805167ffffffffffffffff81111561942e5761942d616f44565b5b80860161943b89826193a5565b8552602085019450505060208101905061940b565b5050509392505050565b600082601f83011261946f5761946e616f44565b5b815161947f8482602086016193d3565b91505092915050565b60006020828403121561949e5761949d616bca565b5b600082015167ffffffffffffffff8111156194bc576194bb616bcf565b5b6194c88482850161945a565b91505092915050565b50565b60006194e1600083616d98565b91506194ec826194d1565b600082019050919050565b60006020820190508181036000830152619510816194d4565b9050919050565b600060408201905061952c6000830185617168565b6195396020830184617168565b9392505050565b600060a0820190506195556000830189617168565b6195626020830188616ca8565b61956f6040830187616ca8565b61957c6060830186616ca8565b818103608083015261958f81848661909b565b9050979650505050505050565b600067ffffffffffffffff8211156195b7576195b6616f4e565b5b602082029050602081019050919050565b600381106195d557600080fd5b50565b6000815190506195e7816195c8565b92915050565b60006040828403121561960357619602617d33565b5b61960d6040616fae565b9050600061961d848285016195d8565b600083015250602082015167ffffffffffffffff81111561964157619640617d38565b5b61964d848285016193a5565b60208301525092915050565b600061966c6196678461959c565b616fae565b9050808382526020820190506020840283018581111561968f5761968e6171cc565b5b835b818110156196d657805167ffffffffffffffff8111156196b4576196b3616f44565b5b8086016196c189826195ed565b85526020850194505050602081019050619691565b5050509392505050565b600082601f8301126196f5576196f4616f44565b5b8151619705848260208601619659565b91505092915050565b60008151905061971d81616c3c565b92915050565b60006040828403121561973957619738617d33565b5b6197436040616fae565b9050600082015167ffffffffffffffff81111561976357619762617d38565b5b61976f848285016196e0565b60008301525060206197838482850161970e565b60208301525092915050565b6000602082840312156197a5576197a4616bca565b5b600082015167ffffffffffffffff8111156197c3576197c2616bcf565b5b6197cf84828501619723565b91505092915050565b60006040820190506197ed6000830185616ca8565b6197fa6020830184616ca8565b9392505050565b61980a81616cd2565b82525050565b60006020820190506198256000830184619801565b92915050565b60008151905061983a816180a7565b92915050565b60006020828403121561985657619855616bca565b5b60006198648482850161982b565b91505092915050565b7f4e487b7100000000000000000000000000000000000000000000000000000000600052602160045260246000fd5b60008160001c9050919050565b600073ffffffffffffffffffffffffffffffffffffffff82169050919050565b60006198dc6198d78361989c565b6198a9565b9050919050565b60008160a01c9050919050565b60006bffffffffffffffffffffffff82169050919050565b600061991b619916836198e3565b6198f0565b9050919050565b61992b81617b7c565b82525050565b600073ffffffffffffffffffffffffffffffffffffffff82169050919050565b600061996461995f8361989c565b619931565b9050919050565b61997481616e6c565b82525050565b600073ffffffffffffffffffffffffffffffffffffffff82169050919050565b60006199ad6199a88361989c565b61997a565b9050919050565b6199bd81617bf0565b82525050565b60c0820160008083015490506199d8816198c9565b6199e560008601826182e8565b506199ef81619908565b6199fc6020860182619922565b5060018301549050619a0d81619951565b619a1a604086018261996b565b50619a2481619908565b619a316060860182619922565b5060028301549050619a428161999a565b619a4f60808601826199b4565b50619a5981619908565b619a6660a0860182619922565b5050505050565b600060c082019050619a8260008301846199c3565b92915050565b6000819050919050565b600060ff82169050919050565b6000619aba619ab5619ab084619a88565b617bb2565b619a92565b9050919050565b619aca81619a9f565b82525050565b6000602082019050619ae56000830184619ac1565b92915050565b600081905092915050565b6000619b018261818c565b619b0b8185619aeb565b9350619b1b818560208601616da9565b80840191505092915050565b6000619b338284619af6565b915081905092915050565b6000619b498261818c565b619b53818561908a565b9350619b63818560208601616da9565b619b6c81616dd3565b840191505092915050565b60006020820190508181036000830152619b918184619b3e565b905092915050565b60008083356001602003843603038112619bb657619bb5619132565b5b80840192508235915067ffffffffffffffff821115619bd857619bd7619137565b5b602083019250600182023603831315619bf457619bf361913c565b5b509250929050565b6000619c0782616c32565b91507fffffffffffffffffffffffffffffffffffffffffffffffffffffffffffffffff8203619c3957619c386189f2565b5b600182019050919050565b6000606082019050619c596000830186617168565b619c666020830185617168565b619c736040830184616ca8565b949350505050565b600080fd5b600080fd5b60008085851115619c9957619c98619c7b565b5b83861115619caa57619ca9619c80565b5b6001850283019150848603905094509492505050565b600082905092915050565b6000619cd78383619cc0565b82619ce2813561764f565b92506020821015619d2257619d1d7fffffffffffffffffffffffffffffffffffffffffffffffffffffffffffffffff836020036008026187a3565b831692505b505092915050565b6000619d368385619aeb565b9350619d43838584616ffa565b82840190509392505050565b6000619d5c828486619d2a565b91508190509392505050565b6000619d7b619d7684616fc9565b616fae565b905082815260208101848484011115619d9757619d96616f49565b5b619da2848285616da9565b509392505050565b600082601f830112619dbf57619dbe616f44565b5b8151619dcf848260208601619d68565b91505092915050565b600060208284031215619dee57619ded616bca565b5b600082015167ffffffffffffffff811115619e0c57619e0b616bcf565b5b619e1884828501619daa565b91505092915050565b60006040820190508181036000830152619e3b8185616de4565b90508181036020830152619e4f8184616de4565b90509392505050565b6000606082019050619e6d6000830186617168565b619e7a6020830185616ca8565b619e876040830184616ca8565b949350505050565b6000619e9a82616c32565b9150619ea583616c32565b9250828201905080821115619ebd57619ebc6189f2565b5b92915050565b60006040820190508181036000830152619edd8185617573565b90508181036020830152619ef18184617573565b90509392505050565b6000619f07600083619aeb565b9150619f12826194d1565b600082019050919050565b6000619f2882619efa565b9150819050919050565b7f5265656e7472616e637947756172643a207265656e7472616e742063616c6c00600082015250565b6000619f68601f83616d98565b9150619f7382619f32565b602082019050919050565b60006020820190508181036000830152619f9781619f5b565b9050919050565b600060208284031215619fb457619fb3616bca565b5b6000619fc284828501618c66565b91505092915050565b600060208284031215619fe157619fe0616bca565b5b6000619fef848285016180be565b91505092915050565b600061a0048385616d98565b935061a011838584616ffa565b61a01a83616dd3565b840190509392505050565b6000602082019050818103600083015261a040818486619ff8565b90509392505050565b6000604082019050818103600083015261a064818587619ff8565b905061a0736020830184616ca8565b949350505050565b60008151905061a08a81616e7e565b92915050565b6000806040838503121561a0a75761a0a6616bca565b5b600061a0b58582860161a07b565b925050602061a0c68582860161970e565b9150509250929050565b60008060006060848603121561a0e95761a0e8616bca565b5b600061a0f78682870161a07b565b935050602061a1088682870161970e565b925050604061a1198682870161970e565b9150509250925092565b600060e08201905061a138600083018a617168565b61a1456020830189617168565b61a1526040830188617168565b61a15f6060830187617168565b818103608083015261a1718186617573565b905081810360a083015261a1858185617573565b905081810360c083015261a1998184619b3e565b905098975050505050505050565b600060a08201905061a1bc6000830188617168565b61a1c96020830187617168565b818103604083015261a1db8186617573565b9050818103606083015261a1ef8185617573565b9050818103608083015261a2038184619b3e565b90509695505050505050565b60008151905061a21e81616cfe565b92915050565b60006020828403121561a23a5761a239616bca565b5b600061a2488482850161a20f565b91505092915050565b60008160e01c9050919050565b600060033d111561a27d5760046000803e61a27a60005161a251565b90505b90565b600060443d1061a30d5761a292616bc0565b60043d036004823e80513d602482011167ffffffffffffffff8211171561a2ba57505061a30d565b808201805167ffffffffffffffff81111561a2d8575050505061a30d565b80602083010160043d03850181111561a2f557505050505061a30d565b61a30482602001850186616f7d565b82955050505050505b90565b60006101408201905061a326600083018d617168565b61a333602083018c616ca8565b61a340604083018b617168565b61a34d606083018a616ca8565b61a35a6080830189617168565b61a36760a0830188616ca8565b61a37460c0830187617168565b61a38160e0830186616ca8565b61a38f610100830185617168565b61a39d610120830184616ca8565b9b9a5050505050505050505050565b6000819050919050565b600061a3d161a3cc61a3c78461a3ac565b617bb2565b616c32565b9050919050565b61a3e18161a3b6565b82525050565b60006101408201905061a3fd600083018d617168565b61a40a602083018c61a3d8565b61a417604083018b617168565b61a424606083018a616ca8565b61a4316080830189617168565b61a43e60a0830188616ca8565b61a44b60c0830187617168565b61a45860e0830186616ca8565b61a466610100830185617168565b61a474610120830184616ca8565b9b9a5050505050505050505050565b600060808201905061a4986000830187616ca8565b61a4a56020830186616ca8565b61a4b26040830185616ca8565b61a4bf6060830184616ca8565b95945050505050565b600060e08201905061a4dd600083018a617168565b61a4ea6020830189617168565b61a4f76040830188617168565b61a5046060830187617168565b61a5116080830186616ca8565b61a51e60a0830185616ca8565b81810360c083015261a5308184619b3e565b905098975050505050505050565b600060a08201905061a5536000830188617168565b61a5606020830187617168565b61a56d6040830186616ca8565b61a57a6060830185616ca8565b818103608083015261a58c8184619b3e565b90509695505050505050565b7f416464726573733a2063616c6c20746f206e6f6e2d636f6e7472616374000000600082015250565b600061a5ce601d83616d98565b915061a5d98261a598565b602082019050919050565b6000602082019050818103600083015261a5fd8161a5c1565b905091905056fe416464726573733a206c6f772d6c6576656c2064656c65676174652063616c6c206661696c6564a2646970667358221220b7acbb3e2905c31987fbd6c9993e8e04bd635de4ea5de479edbac81b9450e7f764736f6c63430008110033",
    "linkReferences": {
      "src/delegation/ZoraCreator1155Attribution.sol": {
        "PremintTokenSetup": [
          {
            "start": 8824,
            "length": 20
          }
        ],
        "ZoraCreator1155Attribution": [
          {
            "start": 8182,
            "length": 20
          },
          {
            "start": 8306,
            "length": 20
          }
        ]
      }
    }
  },
  "methodIdentifiers": {
    "CONTRACT_BASE_ID()": "01144201",
    "PERMISSION_BIT_ADMIN()": "c0464356",
    "PERMISSION_BIT_FUNDS_MANAGER()": "929a7128",
    "PERMISSION_BIT_METADATA()": "a453eaf0",
    "PERMISSION_BIT_MINTER()": "f1b0d6bb",
    "PERMISSION_BIT_SALES()": "18711c7d",
    "addPermission(uint256,address,uint256)": "8ec998a0",
    "adminMint(address,uint256,uint256,bytes)": "c238d1ee",
    "adminMintBatch(address,uint256[],uint256[],bytes)": "d1ad846b",
    "assumeLastTokenIdMatches(uint256)": "e72878b4",
    "balanceOf(address,uint256)": "00fdd58e",
    "balanceOfBatch(address[],uint256[])": "4e1273f4",
    "burnBatch(address,uint256[],uint256[])": "6b20c454",
    "callRenderer(uint256,bytes)": "9c5c63c9",
    "callSale(uint256,address,bytes)": "d904b94a",
    "computeFreeMintRewards(uint256)": "722933f7",
    "computePaidMintRewards(uint256)": "5c046084",
    "computeTotalReward(uint256)": "4132239b",
    "config()": "79502c55",
    "contractURI()": "e8a3d485",
    "contractVersion()": "a0a8e460",
    "createReferrals(uint256)": "7dafae4d",
    "customRenderers(uint256)": "dd15e05f",
    "delegateSetupNewToken(((string,uint256,uint64,uint96,uint64,uint64,uint32,uint32,address,address),uint32,uint32,bool),bytes,address)": "5638ecb5",
    "delegatedTokenId(uint32)": "bdd864f2",
    "firstMinters(uint256)": "9ebb8324",
    "getCreatorRewardRecipient(uint256)": "5e4e0404",
    "getCustomRenderer(uint256)": "e74d86c2",
    "getRoyalties(uint256)": "bb3bafd6",
    "getTokenInfo(uint256)": "8c7a63ae",
    "implementation()": "5c60da1b",
    "initialize(string,string,(uint32,uint32,address),address,bytes[])": "8a08eb4c",
    "isAdminOrRole(address,uint256,uint256)": "23bd0386",
    "isApprovedForAll(address,address)": "e985e9c5",
    "metadataRendererContract(uint256)": "69a5b302",
    "mint(address,uint256,uint256,bytes)": "731133e9",
    "mintFee()": "13966db5",
    "mintWithRewards(address,uint256,uint256,bytes,address)": "9dbb844d",
    "multicall(bytes[])": "ac9650d8",
    "name()": "06fdde03",
    "nextTokenId()": "75794a3c",
    "owner()": "8da5cb5b",
    "permissions(uint256,address)": "300ecdb9",
    "proxiableUUID()": "52d1902d",
    "removePermission(uint256,address,uint256)": "5d0f6cba",
    "royalties(uint256)": "7f77f574",
    "royaltyInfo(uint256,uint256)": "2a55205a",
    "safeBatchTransferFrom(address,address,uint256[],uint256[],bytes)": "2eb2c2d6",
    "safeTransferFrom(address,address,uint256,uint256,bytes)": "f242432a",
    "setApprovalForAll(address,bool)": "a22cb465",
    "setFundsRecipient(address)": "10a7eb5d",
    "setOwner(address)": "13af4035",
    "setTokenMetadataRenderer(uint256,address)": "6661a9ba",
    "setTransferHook(address)": "7f2dc61c",
    "setupNewToken(string,uint256)": "d258609a",
    "setupNewTokenWithCreateReferral(string,uint256,address)": "674cbae6",
    "supportsInterface(bytes4)": "01ffc9a7",
    "symbol()": "95d89b41",
    "updateContractMetadata(string,string)": "ef71c82e",
    "updateCreateReferral(uint256,address)": "17bd48bb",
    "updateRoyaltiesForToken(uint256,(uint32,uint32,address))": "afed7e9e",
    "updateTokenURI(uint256,string)": "18e97fd1",
    "upgradeTo(address)": "3659cfe6",
    "upgradeToAndCall(address,bytes)": "4f1ef286",
    "uri(uint256)": "0e89341c",
    "withdraw()": "3ccfd60b",
    "withdrawRewards(address,uint256)": "d6ef7af0"
  },
  "id": 164
}